ARM GAS  C:\Users\mkand\AppData\Local\Temp\cc6Q7h6g.s 			page 1


   1              		.cpu cortex-m4
   2              		.arch armv7e-m
   3              		.fpu fpv4-sp-d16
   4              		.eabi_attribute 27, 1
   5              		.eabi_attribute 28, 1
   6              		.eabi_attribute 20, 1
   7              		.eabi_attribute 21, 1
   8              		.eabi_attribute 23, 3
   9              		.eabi_attribute 24, 1
  10              		.eabi_attribute 25, 1
  11              		.eabi_attribute 26, 1
  12              		.eabi_attribute 30, 1
  13              		.eabi_attribute 34, 1
  14              		.eabi_attribute 18, 4
  15              		.file	"hc32_ll_efm.c"
  16              		.text
  17              	.Ltext0:
  18              		.cfi_sections	.debug_frame
  19              		.file 1 "hc32_ll_driver/src/hc32_ll_efm.c"
  20              		.section	.rodata.EFM_Cmd.str1.4,"aMS",%progbits,1
  21              		.align	2
  22              	.LC0:
  23 0000 68633332 		.ascii	"hc32_ll_driver/src/hc32_ll_efm.c\000"
  23      5F6C6C5F 
  23      64726976 
  23      65722F73 
  23      72632F68 
  24              		.section	.text.EFM_Cmd,"ax",%progbits
  25              		.align	1
  26              		.global	EFM_Cmd
  27              		.syntax unified
  28              		.thumb
  29              		.thumb_func
  31              	EFM_Cmd:
  32              	.LVL0:
  33              	.LFB138:
   1:hc32_ll_driver/src/hc32_ll_efm.c **** /**
   2:hc32_ll_driver/src/hc32_ll_efm.c ****  *******************************************************************************
   3:hc32_ll_driver/src/hc32_ll_efm.c ****  * @file  hc32_ll_efm.c
   4:hc32_ll_driver/src/hc32_ll_efm.c ****  * @brief This file provides firmware functions to manage the Embedded Flash
   5:hc32_ll_driver/src/hc32_ll_efm.c ****  *        Memory unit (EFM).
   6:hc32_ll_driver/src/hc32_ll_efm.c ****  @verbatim
   7:hc32_ll_driver/src/hc32_ll_efm.c ****    Change Logs:
   8:hc32_ll_driver/src/hc32_ll_efm.c ****    Date             Author          Notes
   9:hc32_ll_driver/src/hc32_ll_efm.c ****    2022-03-31       CDT             First version
  10:hc32_ll_driver/src/hc32_ll_efm.c ****    2022-10-31       CDT             Add API EFM_Protect_Enable & EFM_WriteSecurityCode
  11:hc32_ll_driver/src/hc32_ll_efm.c ****                                     Modify API EFM_Read & EFM_Program
  12:hc32_ll_driver/src/hc32_ll_efm.c ****    2023-01-15       CDT             Code refine
  13:hc32_ll_driver/src/hc32_ll_efm.c ****    2023-06-30       CDT             Modify API EFM_Program()
  14:hc32_ll_driver/src/hc32_ll_efm.c ****                                     Modify assert IS_EFM_ADDR() range
  15:hc32_ll_driver/src/hc32_ll_efm.c ****                                     Modify API EFM_Protect_Enable()
  16:hc32_ll_driver/src/hc32_ll_efm.c ****                                     Modify typo
  17:hc32_ll_driver/src/hc32_ll_efm.c ****                                     Modify API EFM_WriteSecurityCode(), switch to read_only mode be
  18:hc32_ll_driver/src/hc32_ll_efm.c ****    2023-09-30       CDT             Remove address assert from EFM_ReadByte()
  19:hc32_ll_driver/src/hc32_ll_efm.c ****                                     Refine EFM_SequenceProgram() & EFM_ChipErase(), and put them in
  20:hc32_ll_driver/src/hc32_ll_efm.c ****                                     Fix bug of EFM_GetSwapStatus()
  21:hc32_ll_driver/src/hc32_ll_efm.c ****  @endverbatim
ARM GAS  C:\Users\mkand\AppData\Local\Temp\cc6Q7h6g.s 			page 2


  22:hc32_ll_driver/src/hc32_ll_efm.c ****  *******************************************************************************
  23:hc32_ll_driver/src/hc32_ll_efm.c ****  * Copyright (C) 2022-2023, Xiaohua Semiconductor Co., Ltd. All rights reserved.
  24:hc32_ll_driver/src/hc32_ll_efm.c ****  *
  25:hc32_ll_driver/src/hc32_ll_efm.c ****  * This software component is licensed by XHSC under BSD 3-Clause license
  26:hc32_ll_driver/src/hc32_ll_efm.c ****  * (the "License"); You may not use this file except in compliance with the
  27:hc32_ll_driver/src/hc32_ll_efm.c ****  * License. You may obtain a copy of the License at:
  28:hc32_ll_driver/src/hc32_ll_efm.c ****  *                    opensource.org/licenses/BSD-3-Clause
  29:hc32_ll_driver/src/hc32_ll_efm.c ****  *
  30:hc32_ll_driver/src/hc32_ll_efm.c ****  *******************************************************************************
  31:hc32_ll_driver/src/hc32_ll_efm.c ****  */
  32:hc32_ll_driver/src/hc32_ll_efm.c **** 
  33:hc32_ll_driver/src/hc32_ll_efm.c **** /*******************************************************************************
  34:hc32_ll_driver/src/hc32_ll_efm.c ****  * Include files
  35:hc32_ll_driver/src/hc32_ll_efm.c ****  ******************************************************************************/
  36:hc32_ll_driver/src/hc32_ll_efm.c **** #include "hc32_ll_efm.h"
  37:hc32_ll_driver/src/hc32_ll_efm.c **** #include "hc32_ll_utility.h"
  38:hc32_ll_driver/src/hc32_ll_efm.c **** 
  39:hc32_ll_driver/src/hc32_ll_efm.c **** /**
  40:hc32_ll_driver/src/hc32_ll_efm.c ****  * @addtogroup LL_Driver
  41:hc32_ll_driver/src/hc32_ll_efm.c ****  * @{
  42:hc32_ll_driver/src/hc32_ll_efm.c ****  */
  43:hc32_ll_driver/src/hc32_ll_efm.c **** 
  44:hc32_ll_driver/src/hc32_ll_efm.c **** /**
  45:hc32_ll_driver/src/hc32_ll_efm.c ****  * @defgroup LL_EFM EFM
  46:hc32_ll_driver/src/hc32_ll_efm.c ****  * @brief Embedded Flash Management Driver Library
  47:hc32_ll_driver/src/hc32_ll_efm.c ****  * @{
  48:hc32_ll_driver/src/hc32_ll_efm.c ****  */
  49:hc32_ll_driver/src/hc32_ll_efm.c **** 
  50:hc32_ll_driver/src/hc32_ll_efm.c **** #if (LL_EFM_ENABLE == DDL_ON)
  51:hc32_ll_driver/src/hc32_ll_efm.c **** 
  52:hc32_ll_driver/src/hc32_ll_efm.c **** /*******************************************************************************
  53:hc32_ll_driver/src/hc32_ll_efm.c ****  * Local type definitions ('typedef')
  54:hc32_ll_driver/src/hc32_ll_efm.c ****  ******************************************************************************/
  55:hc32_ll_driver/src/hc32_ll_efm.c **** 
  56:hc32_ll_driver/src/hc32_ll_efm.c **** /*******************************************************************************
  57:hc32_ll_driver/src/hc32_ll_efm.c ****  * Local pre-processor symbols/macros ('#define')
  58:hc32_ll_driver/src/hc32_ll_efm.c ****  ******************************************************************************/
  59:hc32_ll_driver/src/hc32_ll_efm.c **** /**
  60:hc32_ll_driver/src/hc32_ll_efm.c ****  * @defgroup EFM_Local_Macros EFM Local Macros
  61:hc32_ll_driver/src/hc32_ll_efm.c ****  * @{
  62:hc32_ll_driver/src/hc32_ll_efm.c ****  */
  63:hc32_ll_driver/src/hc32_ll_efm.c **** #ifndef __EFM_FUNC
  64:hc32_ll_driver/src/hc32_ll_efm.c **** #define __EFM_FUNC                      __RAM_FUNC
  65:hc32_ll_driver/src/hc32_ll_efm.c **** #endif
  66:hc32_ll_driver/src/hc32_ll_efm.c **** 
  67:hc32_ll_driver/src/hc32_ll_efm.c **** #define REG_LEN                         (32U)
  68:hc32_ll_driver/src/hc32_ll_efm.c **** #define EFM_TIMEOUT                     (HCLK_VALUE / 20000UL)  /* EFM wait read timeout */
  69:hc32_ll_driver/src/hc32_ll_efm.c **** #define EFM_PGM_TIMEOUT                 (HCLK_VALUE / 20000UL)  /* EFM Program timeout max 53us */
  70:hc32_ll_driver/src/hc32_ll_efm.c **** #define EFM_ERASE_TIMEOUT               (HCLK_VALUE / 50UL)     /* EFM Erase timeout max 20ms */
  71:hc32_ll_driver/src/hc32_ll_efm.c **** #define EFM_SEQ_PGM_TIMEOUT             (HCLK_VALUE / 62500UL)  /* EFM Sequence Program timeout max
  72:hc32_ll_driver/src/hc32_ll_efm.c **** 
  73:hc32_ll_driver/src/hc32_ll_efm.c **** #define REMCR_REG(x)                    (*(__IO uint32_t *)((uint32_t)(&CM_EFM->MMF_REMCR0) + (4UL 
  74:hc32_ll_driver/src/hc32_ll_efm.c **** 
  75:hc32_ll_driver/src/hc32_ll_efm.c **** /**
  76:hc32_ll_driver/src/hc32_ll_efm.c ****  * @defgroup EFM_Configuration_Bit_Mask EFM Configuration Bit Mask
  77:hc32_ll_driver/src/hc32_ll_efm.c ****  * @{
  78:hc32_ll_driver/src/hc32_ll_efm.c ****  */
ARM GAS  C:\Users\mkand\AppData\Local\Temp\cc6Q7h6g.s 			page 3


  79:hc32_ll_driver/src/hc32_ll_efm.c **** #define EFM_CACHE_ALL                   (EFM_FRMC_CRST | EFM_FRMC_CACHE)
  80:hc32_ll_driver/src/hc32_ll_efm.c **** 
  81:hc32_ll_driver/src/hc32_ll_efm.c **** /**
  82:hc32_ll_driver/src/hc32_ll_efm.c ****  * @}
  83:hc32_ll_driver/src/hc32_ll_efm.c ****  */
  84:hc32_ll_driver/src/hc32_ll_efm.c **** 
  85:hc32_ll_driver/src/hc32_ll_efm.c **** /**
  86:hc32_ll_driver/src/hc32_ll_efm.c ****  * @defgroup EFM_protect EFM protect define
  87:hc32_ll_driver/src/hc32_ll_efm.c ****  * @{
  88:hc32_ll_driver/src/hc32_ll_efm.c ****  */
  89:hc32_ll_driver/src/hc32_ll_efm.c **** #define EFM_SECURITY_LEN                (12UL)
  90:hc32_ll_driver/src/hc32_ll_efm.c **** #define EFM_PROTECT1_KEY                (0xAF180402UL)
  91:hc32_ll_driver/src/hc32_ll_efm.c **** #define EFM_PROTECT2_KEY                (0xA85173AEUL)
  92:hc32_ll_driver/src/hc32_ll_efm.c **** 
  93:hc32_ll_driver/src/hc32_ll_efm.c **** #define EFM_PROTECT1_ADDR               (0x00000410UL)
  94:hc32_ll_driver/src/hc32_ll_efm.c **** #define EFM_PROTECT2_ADDR               (0x00000414UL)
  95:hc32_ll_driver/src/hc32_ll_efm.c **** #define EFM_SECURITY_ADDR               (0x0317FFECUL)
  96:hc32_ll_driver/src/hc32_ll_efm.c **** #define EFM_SECURITY_ADDR1              (0x0317FFE0UL)
  97:hc32_ll_driver/src/hc32_ll_efm.c **** /**
  98:hc32_ll_driver/src/hc32_ll_efm.c ****  * @}
  99:hc32_ll_driver/src/hc32_ll_efm.c ****  */
 100:hc32_ll_driver/src/hc32_ll_efm.c **** 
 101:hc32_ll_driver/src/hc32_ll_efm.c **** /**
 102:hc32_ll_driver/src/hc32_ll_efm.c ****  * @defgroup EFM_Check_Parameters_Validity EFM Check Parameters Validity
 103:hc32_ll_driver/src/hc32_ll_efm.c ****  * @{
 104:hc32_ll_driver/src/hc32_ll_efm.c ****  */
 105:hc32_ll_driver/src/hc32_ll_efm.c **** /* Parameter validity check for efm chip . */
 106:hc32_ll_driver/src/hc32_ll_efm.c **** #define IS_EFM_CHIP(x)                  ((x) == EFM_CHIP_ALL)
 107:hc32_ll_driver/src/hc32_ll_efm.c **** 
 108:hc32_ll_driver/src/hc32_ll_efm.c **** /* Parameter validity check for flash latency. */
 109:hc32_ll_driver/src/hc32_ll_efm.c **** #define IS_EFM_WAIT_CYCLE(x)            ((x) <= EFM_WAIT_CYCLE15)
 110:hc32_ll_driver/src/hc32_ll_efm.c **** 
 111:hc32_ll_driver/src/hc32_ll_efm.c **** /* Parameter validity check for operate mode. */
 112:hc32_ll_driver/src/hc32_ll_efm.c **** #define IS_EFM_OPERATE_MD(x)                                                    \
 113:hc32_ll_driver/src/hc32_ll_efm.c **** (   ((x) == EFM_MD_PGM_SINGLE)          ||                                      \
 114:hc32_ll_driver/src/hc32_ll_efm.c ****     ((x) == EFM_MD_PGM_READBACK)        ||                                      \
 115:hc32_ll_driver/src/hc32_ll_efm.c ****     ((x) == EFM_MD_PGM_SEQ)             ||                                      \
 116:hc32_ll_driver/src/hc32_ll_efm.c ****     ((x) == EFM_MD_ERASE_SECTOR)        ||                                      \
 117:hc32_ll_driver/src/hc32_ll_efm.c ****     ((x) == EFM_MD_ERASE_ALL_CHIP)      ||                                      \
 118:hc32_ll_driver/src/hc32_ll_efm.c ****     ((x) == EFM_MD_READONLY))
 119:hc32_ll_driver/src/hc32_ll_efm.c **** 
 120:hc32_ll_driver/src/hc32_ll_efm.c **** /* Parameter validity check for flash interrupt select. */
 121:hc32_ll_driver/src/hc32_ll_efm.c **** #define IS_EFM_INT_SEL(x)               (((x) | EFM_INT_ALL) == EFM_INT_ALL)
 122:hc32_ll_driver/src/hc32_ll_efm.c **** 
 123:hc32_ll_driver/src/hc32_ll_efm.c **** /* Parameter validity check for flash flag. */
 124:hc32_ll_driver/src/hc32_ll_efm.c **** #define IS_EFM_FLAG(x)                  (((x) | EFM_FLAG_ALL) == EFM_FLAG_ALL)
 125:hc32_ll_driver/src/hc32_ll_efm.c **** 
 126:hc32_ll_driver/src/hc32_ll_efm.c **** /* Parameter validity check for flash clear flag. */
 127:hc32_ll_driver/src/hc32_ll_efm.c **** #define IS_EFM_CLRFLAG(x)               (((x) | EFM_FLAG_ALL) == EFM_FLAG_ALL)
 128:hc32_ll_driver/src/hc32_ll_efm.c **** 
 129:hc32_ll_driver/src/hc32_ll_efm.c **** /* Parameter validity check for bus status while flash program or erase. */
 130:hc32_ll_driver/src/hc32_ll_efm.c **** #define IS_EFM_BUS_STATUS(x)                                                    \
 131:hc32_ll_driver/src/hc32_ll_efm.c **** (   ((x) == EFM_BUS_HOLD)               ||                                      \
 132:hc32_ll_driver/src/hc32_ll_efm.c ****     ((x) == EFM_BUS_RELEASE))
 133:hc32_ll_driver/src/hc32_ll_efm.c **** 
 134:hc32_ll_driver/src/hc32_ll_efm.c **** /* Parameter validity check for efm address. */
 135:hc32_ll_driver/src/hc32_ll_efm.c **** #define IS_EFM_ADDR(x)                                                          \
ARM GAS  C:\Users\mkand\AppData\Local\Temp\cc6Q7h6g.s 			page 4


 136:hc32_ll_driver/src/hc32_ll_efm.c **** (   ((x) <= EFM_END_ADDR)               ||                                      \
 137:hc32_ll_driver/src/hc32_ll_efm.c ****     (((x) >= EFM_OTP_START_ADDR) && ((x) <= EFM_OTP_END_ADDR)) ||               \
 138:hc32_ll_driver/src/hc32_ll_efm.c ****     (((x) >= EFM_SECURITY_START_ADDR) && ((x) <= EFM_SECURITY_END_ADDR)))
 139:hc32_ll_driver/src/hc32_ll_efm.c **** 
 140:hc32_ll_driver/src/hc32_ll_efm.c **** /* Parameter validity check for efm erase address. */
 141:hc32_ll_driver/src/hc32_ll_efm.c **** #define IS_EFM_ERASE_ADDR(x)            ((x) <= EFM_END_ADDR)
 142:hc32_ll_driver/src/hc32_ll_efm.c **** 
 143:hc32_ll_driver/src/hc32_ll_efm.c **** /* Parameter validity check for efm erase mode . */
 144:hc32_ll_driver/src/hc32_ll_efm.c **** #define IS_EFM_ERASE_MD(x)                                                      \
 145:hc32_ll_driver/src/hc32_ll_efm.c **** (   ((x) == EFM_MD_ERASE_ONE_CHIP)      ||                                      \
 146:hc32_ll_driver/src/hc32_ll_efm.c ****     ((x) == EFM_MD_ERASE_FULL))
 147:hc32_ll_driver/src/hc32_ll_efm.c **** 
 148:hc32_ll_driver/src/hc32_ll_efm.c **** /* Parameter validity check for EFM lock status. */
 149:hc32_ll_driver/src/hc32_ll_efm.c **** #define IS_EFM_REG_UNLOCK()             (CM_EFM->FAPRT == 0x00000001UL)
 150:hc32_ll_driver/src/hc32_ll_efm.c **** 
 151:hc32_ll_driver/src/hc32_ll_efm.c **** /* Parameter validity check for EFM_FWMC register lock status. */
 152:hc32_ll_driver/src/hc32_ll_efm.c **** #define IS_EFM_FWMC_UNLOCK()            (bCM_EFM->FWMC_b.PEMODE == 1U)
 153:hc32_ll_driver/src/hc32_ll_efm.c **** 
 154:hc32_ll_driver/src/hc32_ll_efm.c **** /* Parameter validity check for EFM remap lock status. */
 155:hc32_ll_driver/src/hc32_ll_efm.c **** #define IS_EFM_REMAP_UNLOCK()           (CM_EFM->MMF_REMPRT == 0x00000001UL)
 156:hc32_ll_driver/src/hc32_ll_efm.c **** 
 157:hc32_ll_driver/src/hc32_ll_efm.c **** /* Parameter validity check for EFM remap index */
 158:hc32_ll_driver/src/hc32_ll_efm.c **** #define IS_EFM_REMAP_IDX(x)                                                     \
 159:hc32_ll_driver/src/hc32_ll_efm.c **** (   ((x) == EFM_REMAP_IDX0)             ||                                      \
 160:hc32_ll_driver/src/hc32_ll_efm.c ****     ((x) == EFM_REMAP_IDX1))
 161:hc32_ll_driver/src/hc32_ll_efm.c **** 
 162:hc32_ll_driver/src/hc32_ll_efm.c **** /* Parameter validity check for EFM remap size */
 163:hc32_ll_driver/src/hc32_ll_efm.c **** #define IS_EFM_REMAP_SIZE(x)                                                    \
 164:hc32_ll_driver/src/hc32_ll_efm.c **** (   ((x) >= EFM_REMAP_4K)               &&                                      \
 165:hc32_ll_driver/src/hc32_ll_efm.c ****     ((x) <= EFM_REMAP_512K))
 166:hc32_ll_driver/src/hc32_ll_efm.c **** 
 167:hc32_ll_driver/src/hc32_ll_efm.c **** /* Parameter validity check for EFM remap address */
 168:hc32_ll_driver/src/hc32_ll_efm.c **** #define IS_EFM_REMAP_ADDR(x)                                                    \
 169:hc32_ll_driver/src/hc32_ll_efm.c **** (   ((x) <= EFM_REMAP_ROM_END_ADDR)     ||                                      \
 170:hc32_ll_driver/src/hc32_ll_efm.c ****     (((x) >= EFM_REMAP_RAM_START_ADDR)  &&                                      \
 171:hc32_ll_driver/src/hc32_ll_efm.c ****     ((x) <= EFM_REMAP_RAM_END_ADDR)))
 172:hc32_ll_driver/src/hc32_ll_efm.c **** 
 173:hc32_ll_driver/src/hc32_ll_efm.c **** /* Parameter validity check for EFM remap state */
 174:hc32_ll_driver/src/hc32_ll_efm.c **** #define IS_EFM_REMAP_STATE(x)                                                  \
 175:hc32_ll_driver/src/hc32_ll_efm.c **** (   ((x) == EFM_REMAP_OFF)             ||                                      \
 176:hc32_ll_driver/src/hc32_ll_efm.c ****     ((x) == EFM_REMAP_ON))
 177:hc32_ll_driver/src/hc32_ll_efm.c **** 
 178:hc32_ll_driver/src/hc32_ll_efm.c **** /* Parameter validity check for EFM security code length */
 179:hc32_ll_driver/src/hc32_ll_efm.c **** #define IS_EFM_SECURITY_CODE_LEN(x)    ((x) <= EFM_SECURITY_LEN)
 180:hc32_ll_driver/src/hc32_ll_efm.c **** /**
 181:hc32_ll_driver/src/hc32_ll_efm.c ****  * @}
 182:hc32_ll_driver/src/hc32_ll_efm.c ****  */
 183:hc32_ll_driver/src/hc32_ll_efm.c **** 
 184:hc32_ll_driver/src/hc32_ll_efm.c **** /**
 185:hc32_ll_driver/src/hc32_ll_efm.c ****  * @}
 186:hc32_ll_driver/src/hc32_ll_efm.c ****  */
 187:hc32_ll_driver/src/hc32_ll_efm.c **** 
 188:hc32_ll_driver/src/hc32_ll_efm.c **** /*******************************************************************************
 189:hc32_ll_driver/src/hc32_ll_efm.c ****  * Global variable definitions (declared in header file with 'extern')
 190:hc32_ll_driver/src/hc32_ll_efm.c ****  ******************************************************************************/
 191:hc32_ll_driver/src/hc32_ll_efm.c **** 
 192:hc32_ll_driver/src/hc32_ll_efm.c **** /*******************************************************************************
ARM GAS  C:\Users\mkand\AppData\Local\Temp\cc6Q7h6g.s 			page 5


 193:hc32_ll_driver/src/hc32_ll_efm.c ****  * Local function prototypes ('static')
 194:hc32_ll_driver/src/hc32_ll_efm.c ****  ******************************************************************************/
 195:hc32_ll_driver/src/hc32_ll_efm.c **** 
 196:hc32_ll_driver/src/hc32_ll_efm.c **** /*******************************************************************************
 197:hc32_ll_driver/src/hc32_ll_efm.c ****  * Local variable definitions ('static')
 198:hc32_ll_driver/src/hc32_ll_efm.c ****  ******************************************************************************/
 199:hc32_ll_driver/src/hc32_ll_efm.c **** 
 200:hc32_ll_driver/src/hc32_ll_efm.c **** /*******************************************************************************
 201:hc32_ll_driver/src/hc32_ll_efm.c ****  * Function implementation - global ('extern') and local ('static')
 202:hc32_ll_driver/src/hc32_ll_efm.c ****  ******************************************************************************/
 203:hc32_ll_driver/src/hc32_ll_efm.c **** 
 204:hc32_ll_driver/src/hc32_ll_efm.c **** /**
 205:hc32_ll_driver/src/hc32_ll_efm.c ****  * @defgroup EFM_Local_Functions EFM Local Functions
 206:hc32_ll_driver/src/hc32_ll_efm.c ****  * @{
 207:hc32_ll_driver/src/hc32_ll_efm.c ****  */
 208:hc32_ll_driver/src/hc32_ll_efm.c **** /**
 209:hc32_ll_driver/src/hc32_ll_efm.c ****  * @brief  Wait EFM flag.
 210:hc32_ll_driver/src/hc32_ll_efm.c ****  * @param  [in] u32Flag     Specifies the flag to be wait. @ref EFM_Flag_Sel
 211:hc32_ll_driver/src/hc32_ll_efm.c ****  * @param  [in] u32Time     Specifies the time to wait while the flag not be set.
 212:hc32_ll_driver/src/hc32_ll_efm.c ****  * @retval int32_t:
 213:hc32_ll_driver/src/hc32_ll_efm.c ****  *         - LL_OK: Flag was set.
 214:hc32_ll_driver/src/hc32_ll_efm.c ****  *         - LL_ERR_TIMEOUT: Flag was not set.
 215:hc32_ll_driver/src/hc32_ll_efm.c ****  */
 216:hc32_ll_driver/src/hc32_ll_efm.c **** static int32_t EFM_WaitFlag(uint32_t u32Flag, uint32_t u32Time)
 217:hc32_ll_driver/src/hc32_ll_efm.c **** {
 218:hc32_ll_driver/src/hc32_ll_efm.c ****     __IO uint32_t u32Timeout = 0UL;
 219:hc32_ll_driver/src/hc32_ll_efm.c ****     int32_t i32Ret = LL_OK;
 220:hc32_ll_driver/src/hc32_ll_efm.c **** 
 221:hc32_ll_driver/src/hc32_ll_efm.c ****     while (SET != EFM_GetStatus(u32Flag)) {
 222:hc32_ll_driver/src/hc32_ll_efm.c ****         u32Timeout++;
 223:hc32_ll_driver/src/hc32_ll_efm.c ****         if (u32Timeout > u32Time) {
 224:hc32_ll_driver/src/hc32_ll_efm.c ****             i32Ret = LL_ERR_TIMEOUT;
 225:hc32_ll_driver/src/hc32_ll_efm.c ****             break;
 226:hc32_ll_driver/src/hc32_ll_efm.c ****         }
 227:hc32_ll_driver/src/hc32_ll_efm.c ****     }
 228:hc32_ll_driver/src/hc32_ll_efm.c **** 
 229:hc32_ll_driver/src/hc32_ll_efm.c ****     return i32Ret;
 230:hc32_ll_driver/src/hc32_ll_efm.c **** }
 231:hc32_ll_driver/src/hc32_ll_efm.c **** 
 232:hc32_ll_driver/src/hc32_ll_efm.c **** /**
 233:hc32_ll_driver/src/hc32_ll_efm.c ****  * @}
 234:hc32_ll_driver/src/hc32_ll_efm.c ****  */
 235:hc32_ll_driver/src/hc32_ll_efm.c **** 
 236:hc32_ll_driver/src/hc32_ll_efm.c **** /**
 237:hc32_ll_driver/src/hc32_ll_efm.c ****  * @defgroup EFM_Global_Functions EFM Global Functions
 238:hc32_ll_driver/src/hc32_ll_efm.c ****  * @{
 239:hc32_ll_driver/src/hc32_ll_efm.c ****  */
 240:hc32_ll_driver/src/hc32_ll_efm.c **** 
 241:hc32_ll_driver/src/hc32_ll_efm.c **** /**
 242:hc32_ll_driver/src/hc32_ll_efm.c ****  * @brief  Enable or disable EFM.
 243:hc32_ll_driver/src/hc32_ll_efm.c ****  * @param  [in]  u32Flash       Specifies the FLASH. @ref EFM_Chip_Sel
 244:hc32_ll_driver/src/hc32_ll_efm.c ****  * @param  [in] enNewState      An @ref en_functional_state_t enumeration value.
 245:hc32_ll_driver/src/hc32_ll_efm.c ****  * @retval None
 246:hc32_ll_driver/src/hc32_ll_efm.c ****  */
 247:hc32_ll_driver/src/hc32_ll_efm.c **** void EFM_Cmd(uint32_t u32Flash, en_functional_state_t enNewState)
 248:hc32_ll_driver/src/hc32_ll_efm.c **** {
  34              		.loc 1 248 1 view -0
ARM GAS  C:\Users\mkand\AppData\Local\Temp\cc6Q7h6g.s 			page 6


  35              		.cfi_startproc
  36              		@ args = 0, pretend = 0, frame = 0
  37              		@ frame_needed = 0, uses_anonymous_args = 0
  38              		.loc 1 248 1 is_stmt 0 view .LVU1
  39 0000 38B5     		push	{r3, r4, r5, lr}
  40              	.LCFI0:
  41              		.cfi_def_cfa_offset 16
  42              		.cfi_offset 3, -16
  43              		.cfi_offset 4, -12
  44              		.cfi_offset 5, -8
  45              		.cfi_offset 14, -4
  46 0002 0446     		mov	r4, r0
  47 0004 0D46     		mov	r5, r1
 249:hc32_ll_driver/src/hc32_ll_efm.c ****     DDL_ASSERT(IS_FUNCTIONAL_STATE(enNewState));
  48              		.loc 1 249 5 is_stmt 1 view .LVU2
  49              		.loc 1 249 5 view .LVU3
  50 0006 0129     		cmp	r1, #1
  51 0008 0CD8     		bhi	.L8
  52              	.LVL1:
  53              	.L2:
  54              		.loc 1 249 5 discriminator 3 view .LVU4
 250:hc32_ll_driver/src/hc32_ll_efm.c ****     DDL_ASSERT(IS_EFM_REG_UNLOCK());
  55              		.loc 1 250 5 discriminator 3 view .LVU5
  56              		.loc 1 250 5 discriminator 3 view .LVU6
  57 000a 114B     		ldr	r3, .L12
  58 000c 1B68     		ldr	r3, [r3]
  59 000e 012B     		cmp	r3, #1
  60 0010 0DD1     		bne	.L9
  61              	.L3:
  62              		.loc 1 250 5 discriminator 3 view .LVU7
 251:hc32_ll_driver/src/hc32_ll_efm.c ****     DDL_ASSERT(IS_EFM_CHIP(u32Flash));
  63              		.loc 1 251 5 discriminator 3 view .LVU8
  64              		.loc 1 251 5 discriminator 3 view .LVU9
  65 0012 012C     		cmp	r4, #1
  66 0014 10D1     		bne	.L10
  67              	.L4:
  68              		.loc 1 251 5 discriminator 3 view .LVU10
 252:hc32_ll_driver/src/hc32_ll_efm.c **** 
 253:hc32_ll_driver/src/hc32_ll_efm.c ****     if (ENABLE == enNewState) {
  69              		.loc 1 253 5 discriminator 3 view .LVU11
  70              		.loc 1 253 8 is_stmt 0 discriminator 3 view .LVU12
  71 0016 012D     		cmp	r5, #1
  72 0018 13D0     		beq	.L11
 254:hc32_ll_driver/src/hc32_ll_efm.c ****         CLR_REG32_BIT(CM_EFM->FSTP, u32Flash);
 255:hc32_ll_driver/src/hc32_ll_efm.c ****     } else {
 256:hc32_ll_driver/src/hc32_ll_efm.c ****         SET_REG32_BIT(CM_EFM->FSTP, u32Flash);
  73              		.loc 1 256 9 is_stmt 1 view .LVU13
  74 001a 0D4A     		ldr	r2, .L12
  75 001c 5368     		ldr	r3, [r2, #4]
  76 001e 2343     		orrs	r3, r3, r4
  77 0020 5360     		str	r3, [r2, #4]
  78              	.L1:
 257:hc32_ll_driver/src/hc32_ll_efm.c ****     }
 258:hc32_ll_driver/src/hc32_ll_efm.c **** }
  79              		.loc 1 258 1 is_stmt 0 view .LVU14
  80 0022 38BD     		pop	{r3, r4, r5, pc}
  81              	.LVL2:
ARM GAS  C:\Users\mkand\AppData\Local\Temp\cc6Q7h6g.s 			page 7


  82              	.L8:
 249:hc32_ll_driver/src/hc32_ll_efm.c ****     DDL_ASSERT(IS_EFM_REG_UNLOCK());
  83              		.loc 1 249 5 discriminator 1 view .LVU15
  84 0024 F921     		movs	r1, #249
  85              	.LVL3:
 249:hc32_ll_driver/src/hc32_ll_efm.c ****     DDL_ASSERT(IS_EFM_REG_UNLOCK());
  86              		.loc 1 249 5 discriminator 1 view .LVU16
  87 0026 0B48     		ldr	r0, .L12+4
  88              	.LVL4:
 249:hc32_ll_driver/src/hc32_ll_efm.c ****     DDL_ASSERT(IS_EFM_REG_UNLOCK());
  89              		.loc 1 249 5 discriminator 1 view .LVU17
  90 0028 FFF7FEFF 		bl	DDL_AssertHandler
  91              	.LVL5:
  92 002c EDE7     		b	.L2
  93              	.L9:
 250:hc32_ll_driver/src/hc32_ll_efm.c ****     DDL_ASSERT(IS_EFM_CHIP(u32Flash));
  94              		.loc 1 250 5 discriminator 1 view .LVU18
  95 002e FA21     		movs	r1, #250
  96 0030 0848     		ldr	r0, .L12+4
  97 0032 FFF7FEFF 		bl	DDL_AssertHandler
  98              	.LVL6:
  99 0036 ECE7     		b	.L3
 100              	.L10:
 251:hc32_ll_driver/src/hc32_ll_efm.c **** 
 101              		.loc 1 251 5 discriminator 1 view .LVU19
 102 0038 FB21     		movs	r1, #251
 103 003a 0648     		ldr	r0, .L12+4
 104 003c FFF7FEFF 		bl	DDL_AssertHandler
 105              	.LVL7:
 106 0040 E9E7     		b	.L4
 107              	.L11:
 254:hc32_ll_driver/src/hc32_ll_efm.c ****     } else {
 108              		.loc 1 254 9 is_stmt 1 view .LVU20
 109 0042 034A     		ldr	r2, .L12
 110 0044 5368     		ldr	r3, [r2, #4]
 111 0046 23EA0403 		bic	r3, r3, r4
 112 004a 5360     		str	r3, [r2, #4]
 113 004c E9E7     		b	.L1
 114              	.L13:
 115 004e 00BF     		.align	2
 116              	.L12:
 117 0050 00040140 		.word	1073808384
 118 0054 00000000 		.word	.LC0
 119              		.cfi_endproc
 120              	.LFE138:
 122              		.section	.text.EFM_SetWaitCycle,"ax",%progbits
 123              		.align	1
 124              		.global	EFM_SetWaitCycle
 125              		.syntax unified
 126              		.thumb
 127              		.thumb_func
 129              	EFM_SetWaitCycle:
 130              	.LVL8:
 131              	.LFB139:
 259:hc32_ll_driver/src/hc32_ll_efm.c **** 
 260:hc32_ll_driver/src/hc32_ll_efm.c **** /**
 261:hc32_ll_driver/src/hc32_ll_efm.c ****  * @brief  Set the efm read wait cycles.
ARM GAS  C:\Users\mkand\AppData\Local\Temp\cc6Q7h6g.s 			page 8


 262:hc32_ll_driver/src/hc32_ll_efm.c ****  * @param  [in] u32WaitCycle            Specifies the efm read wait cycles.
 263:hc32_ll_driver/src/hc32_ll_efm.c ****  *    @arg  This parameter can be of a value of @ref EFM_Wait_Cycle
 264:hc32_ll_driver/src/hc32_ll_efm.c ****  * @retval int32_t:
 265:hc32_ll_driver/src/hc32_ll_efm.c ****  *         - LL_OK: Program successfully.
 266:hc32_ll_driver/src/hc32_ll_efm.c ****  *         - LL_ERR_TIMEOUT: EFM is not ready.
 267:hc32_ll_driver/src/hc32_ll_efm.c ****  * @note   Call EFM_REG_Unlock() unlock EFM register first.
 268:hc32_ll_driver/src/hc32_ll_efm.c ****  */
 269:hc32_ll_driver/src/hc32_ll_efm.c **** int32_t EFM_SetWaitCycle(uint32_t u32WaitCycle)
 270:hc32_ll_driver/src/hc32_ll_efm.c **** {
 132              		.loc 1 270 1 view -0
 133              		.cfi_startproc
 134              		@ args = 0, pretend = 0, frame = 0
 135              		@ frame_needed = 0, uses_anonymous_args = 0
 136              		.loc 1 270 1 is_stmt 0 view .LVU22
 137 0000 10B5     		push	{r4, lr}
 138              	.LCFI1:
 139              		.cfi_def_cfa_offset 8
 140              		.cfi_offset 4, -8
 141              		.cfi_offset 14, -4
 142 0002 0446     		mov	r4, r0
 271:hc32_ll_driver/src/hc32_ll_efm.c ****     uint32_t u32Timeout = 0UL;
 143              		.loc 1 271 5 is_stmt 1 view .LVU23
 144              	.LVL9:
 272:hc32_ll_driver/src/hc32_ll_efm.c **** 
 273:hc32_ll_driver/src/hc32_ll_efm.c ****     /* Param valid check */
 274:hc32_ll_driver/src/hc32_ll_efm.c ****     DDL_ASSERT(IS_EFM_REG_UNLOCK());
 145              		.loc 1 274 5 view .LVU24
 146              		.loc 1 274 5 view .LVU25
 147 0004 194B     		ldr	r3, .L25
 148 0006 1B68     		ldr	r3, [r3]
 149 0008 012B     		cmp	r3, #1
 150 000a 21D1     		bne	.L22
 151              	.LVL10:
 152              	.L15:
 153              		.loc 1 274 5 discriminator 3 view .LVU26
 275:hc32_ll_driver/src/hc32_ll_efm.c ****     DDL_ASSERT(IS_EFM_WAIT_CYCLE(u32WaitCycle));
 154              		.loc 1 275 5 discriminator 3 view .LVU27
 155              		.loc 1 275 5 discriminator 3 view .LVU28
 156 000c F02C     		cmp	r4, #240
 157 000e 25D8     		bhi	.L23
 158              	.L16:
 159              		.loc 1 275 5 discriminator 3 view .LVU29
 276:hc32_ll_driver/src/hc32_ll_efm.c **** 
 277:hc32_ll_driver/src/hc32_ll_efm.c ****     MODIFY_REG32(CM_EFM->FRMC, EFM_FRMC_FLWT, u32WaitCycle);
 160              		.loc 1 277 5 discriminator 3 view .LVU30
 161 0010 164A     		ldr	r2, .L25
 162 0012 9368     		ldr	r3, [r2, #8]
 163 0014 23F0F003 		bic	r3, r3, #240
 164 0018 04F0F001 		and	r1, r4, #240
 165 001c 0B43     		orrs	r3, r3, r1
 166 001e 9360     		str	r3, [r2, #8]
 278:hc32_ll_driver/src/hc32_ll_efm.c ****     while (u32WaitCycle != READ_REG32_BIT(CM_EFM->FRMC, EFM_FRMC_FLWT)) {
 167              		.loc 1 278 5 discriminator 3 view .LVU31
 271:hc32_ll_driver/src/hc32_ll_efm.c **** 
 168              		.loc 1 271 14 is_stmt 0 discriminator 3 view .LVU32
 169 0020 0021     		movs	r1, #0
 170              	.LVL11:
ARM GAS  C:\Users\mkand\AppData\Local\Temp\cc6Q7h6g.s 			page 9


 171              	.L17:
 172              		.loc 1 278 25 is_stmt 1 view .LVU33
 173              		.loc 1 278 28 is_stmt 0 view .LVU34
 174 0022 124B     		ldr	r3, .L25
 175 0024 9B68     		ldr	r3, [r3, #8]
 176 0026 03F0F003 		and	r3, r3, #240
 177              		.loc 1 278 25 view .LVU35
 178 002a A342     		cmp	r3, r4
 179 002c 1CD0     		beq	.L24
 279:hc32_ll_driver/src/hc32_ll_efm.c ****         u32Timeout++;
 180              		.loc 1 279 9 is_stmt 1 view .LVU36
 181              		.loc 1 279 19 is_stmt 0 view .LVU37
 182 002e 0131     		adds	r1, r1, #1
 183              	.LVL12:
 280:hc32_ll_driver/src/hc32_ll_efm.c ****         if (u32Timeout > EFM_TIMEOUT) {
 184              		.loc 1 280 9 is_stmt 1 view .LVU38
 185              		.loc 1 280 26 is_stmt 0 view .LVU39
 186 0030 0F4B     		ldr	r3, .L25+4
 187 0032 1A6A     		ldr	r2, [r3, #32]
 188 0034 C2F30262 		ubfx	r2, r2, #24, #3
 189 0038 0E4B     		ldr	r3, .L25+8
 190 003a 1B68     		ldr	r3, [r3]
 191 003c D340     		lsrs	r3, r3, r2
 192 003e 0E4A     		ldr	r2, .L25+12
 193 0040 A2FB0323 		umull	r2, r3, r2, r3
 194              		.loc 1 280 12 view .LVU40
 195 0044 B1EB933F 		cmp	r1, r3, lsr #14
 196 0048 EBD9     		bls	.L17
 281:hc32_ll_driver/src/hc32_ll_efm.c ****             return LL_ERR_TIMEOUT;
 197              		.loc 1 281 20 view .LVU41
 198 004a 6FF00700 		mvn	r0, #7
 199 004e 0CE0     		b	.L14
 200              	.LVL13:
 201              	.L22:
 274:hc32_ll_driver/src/hc32_ll_efm.c ****     DDL_ASSERT(IS_EFM_WAIT_CYCLE(u32WaitCycle));
 202              		.loc 1 274 5 discriminator 1 view .LVU42
 203 0050 4FF48971 		mov	r1, #274
 204 0054 0948     		ldr	r0, .L25+16
 205              	.LVL14:
 274:hc32_ll_driver/src/hc32_ll_efm.c ****     DDL_ASSERT(IS_EFM_WAIT_CYCLE(u32WaitCycle));
 206              		.loc 1 274 5 discriminator 1 view .LVU43
 207 0056 FFF7FEFF 		bl	DDL_AssertHandler
 208              	.LVL15:
 209 005a D7E7     		b	.L15
 210              	.L23:
 275:hc32_ll_driver/src/hc32_ll_efm.c **** 
 211              		.loc 1 275 5 discriminator 1 view .LVU44
 212 005c 40F21311 		movw	r1, #275
 213 0060 0648     		ldr	r0, .L25+16
 214 0062 FFF7FEFF 		bl	DDL_AssertHandler
 215              	.LVL16:
 216 0066 D3E7     		b	.L16
 217              	.LVL17:
 218              	.L24:
 282:hc32_ll_driver/src/hc32_ll_efm.c ****         }
 283:hc32_ll_driver/src/hc32_ll_efm.c ****     }
 284:hc32_ll_driver/src/hc32_ll_efm.c ****     return LL_OK;
ARM GAS  C:\Users\mkand\AppData\Local\Temp\cc6Q7h6g.s 			page 10


 219              		.loc 1 284 12 view .LVU45
 220 0068 0020     		movs	r0, #0
 221              	.L14:
 285:hc32_ll_driver/src/hc32_ll_efm.c **** }
 222              		.loc 1 285 1 view .LVU46
 223 006a 10BD     		pop	{r4, pc}
 224              	.LVL18:
 225              	.L26:
 226              		.loc 1 285 1 view .LVU47
 227              		.align	2
 228              	.L25:
 229 006c 00040140 		.word	1073808384
 230 0070 00400540 		.word	1074085888
 231 0074 00000000 		.word	SystemCoreClock
 232 0078 5917B7D1 		.word	-776530087
 233 007c 00000000 		.word	.LC0
 234              		.cfi_endproc
 235              	.LFE139:
 237              		.section	.text.EFM_DataCacheResetCmd,"ax",%progbits
 238              		.align	1
 239              		.global	EFM_DataCacheResetCmd
 240              		.syntax unified
 241              		.thumb
 242              		.thumb_func
 244              	EFM_DataCacheResetCmd:
 245              	.LVL19:
 246              	.LFB140:
 286:hc32_ll_driver/src/hc32_ll_efm.c **** 
 287:hc32_ll_driver/src/hc32_ll_efm.c **** /**
 288:hc32_ll_driver/src/hc32_ll_efm.c ****  * @brief  Enable or disable the flash data cache reset.
 289:hc32_ll_driver/src/hc32_ll_efm.c ****  * @param  [in] enNewState           An @ref en_functional_state_t enumeration value.
 290:hc32_ll_driver/src/hc32_ll_efm.c ****  * @retval None
 291:hc32_ll_driver/src/hc32_ll_efm.c ****  */
 292:hc32_ll_driver/src/hc32_ll_efm.c **** void EFM_DataCacheResetCmd(en_functional_state_t enNewState)
 293:hc32_ll_driver/src/hc32_ll_efm.c **** {
 247              		.loc 1 293 1 is_stmt 1 view -0
 248              		.cfi_startproc
 249              		@ args = 0, pretend = 0, frame = 0
 250              		@ frame_needed = 0, uses_anonymous_args = 0
 251              		.loc 1 293 1 is_stmt 0 view .LVU49
 252 0000 10B5     		push	{r4, lr}
 253              	.LCFI2:
 254              		.cfi_def_cfa_offset 8
 255              		.cfi_offset 4, -8
 256              		.cfi_offset 14, -4
 257 0002 0446     		mov	r4, r0
 294:hc32_ll_driver/src/hc32_ll_efm.c ****     DDL_ASSERT(IS_FUNCTIONAL_STATE(enNewState));
 258              		.loc 1 294 5 is_stmt 1 view .LVU50
 259              		.loc 1 294 5 view .LVU51
 260 0004 0128     		cmp	r0, #1
 261 0006 07D8     		bhi	.L31
 262              	.LVL20:
 263              	.L28:
 264              		.loc 1 294 5 discriminator 3 view .LVU52
 295:hc32_ll_driver/src/hc32_ll_efm.c ****     DDL_ASSERT(IS_EFM_REG_UNLOCK());
 265              		.loc 1 295 5 discriminator 3 view .LVU53
 266              		.loc 1 295 5 discriminator 3 view .LVU54
ARM GAS  C:\Users\mkand\AppData\Local\Temp\cc6Q7h6g.s 			page 11


 267 0008 094B     		ldr	r3, .L33
 268 000a 1B68     		ldr	r3, [r3]
 269 000c 012B     		cmp	r3, #1
 270 000e 09D1     		bne	.L32
 271              	.L29:
 272              		.loc 1 295 5 discriminator 3 view .LVU55
 296:hc32_ll_driver/src/hc32_ll_efm.c **** 
 297:hc32_ll_driver/src/hc32_ll_efm.c ****     WRITE_REG32(bCM_EFM->FRMC_b.CRST, enNewState);
 273              		.loc 1 297 5 discriminator 3 view .LVU56
 274 0010 084B     		ldr	r3, .L33+4
 275 0012 C3F86041 		str	r4, [r3, #352]
 298:hc32_ll_driver/src/hc32_ll_efm.c **** }
 276              		.loc 1 298 1 is_stmt 0 discriminator 3 view .LVU57
 277 0016 10BD     		pop	{r4, pc}
 278              	.LVL21:
 279              	.L31:
 294:hc32_ll_driver/src/hc32_ll_efm.c ****     DDL_ASSERT(IS_EFM_REG_UNLOCK());
 280              		.loc 1 294 5 discriminator 1 view .LVU58
 281 0018 4FF49371 		mov	r1, #294
 282 001c 0648     		ldr	r0, .L33+8
 283              	.LVL22:
 294:hc32_ll_driver/src/hc32_ll_efm.c ****     DDL_ASSERT(IS_EFM_REG_UNLOCK());
 284              		.loc 1 294 5 discriminator 1 view .LVU59
 285 001e FFF7FEFF 		bl	DDL_AssertHandler
 286              	.LVL23:
 287 0022 F1E7     		b	.L28
 288              	.L32:
 295:hc32_ll_driver/src/hc32_ll_efm.c **** 
 289              		.loc 1 295 5 discriminator 1 view .LVU60
 290 0024 40F22711 		movw	r1, #295
 291 0028 0348     		ldr	r0, .L33+8
 292 002a FFF7FEFF 		bl	DDL_AssertHandler
 293              	.LVL24:
 294 002e EFE7     		b	.L29
 295              	.L34:
 296              		.align	2
 297              	.L33:
 298 0030 00040140 		.word	1073808384
 299 0034 00802042 		.word	1109426176
 300 0038 00000000 		.word	.LC0
 301              		.cfi_endproc
 302              	.LFE140:
 304              		.section	.text.EFM_CacheCmd,"ax",%progbits
 305              		.align	1
 306              		.global	EFM_CacheCmd
 307              		.syntax unified
 308              		.thumb
 309              		.thumb_func
 311              	EFM_CacheCmd:
 312              	.LVL25:
 313              	.LFB141:
 299:hc32_ll_driver/src/hc32_ll_efm.c **** 
 300:hc32_ll_driver/src/hc32_ll_efm.c **** /**
 301:hc32_ll_driver/src/hc32_ll_efm.c ****  * @brief  Enable or disable the flash data cache and instruction cache.
 302:hc32_ll_driver/src/hc32_ll_efm.c ****  * @param  [in] enNewState                An @ref en_functional_state_t enumeration value.
 303:hc32_ll_driver/src/hc32_ll_efm.c ****  * @retval None
 304:hc32_ll_driver/src/hc32_ll_efm.c ****  * @note   Call EFM_REG_Unlock() unlock EFM register first.
ARM GAS  C:\Users\mkand\AppData\Local\Temp\cc6Q7h6g.s 			page 12


 305:hc32_ll_driver/src/hc32_ll_efm.c ****  */
 306:hc32_ll_driver/src/hc32_ll_efm.c **** void EFM_CacheCmd(en_functional_state_t enNewState)
 307:hc32_ll_driver/src/hc32_ll_efm.c **** {
 314              		.loc 1 307 1 is_stmt 1 view -0
 315              		.cfi_startproc
 316              		@ args = 0, pretend = 0, frame = 0
 317              		@ frame_needed = 0, uses_anonymous_args = 0
 318              		.loc 1 307 1 is_stmt 0 view .LVU62
 319 0000 10B5     		push	{r4, lr}
 320              	.LCFI3:
 321              		.cfi_def_cfa_offset 8
 322              		.cfi_offset 4, -8
 323              		.cfi_offset 14, -4
 324 0002 0446     		mov	r4, r0
 308:hc32_ll_driver/src/hc32_ll_efm.c ****     DDL_ASSERT(IS_FUNCTIONAL_STATE(enNewState));
 325              		.loc 1 308 5 is_stmt 1 view .LVU63
 326              		.loc 1 308 5 view .LVU64
 327 0004 0128     		cmp	r0, #1
 328 0006 07D8     		bhi	.L39
 329              	.LVL26:
 330              	.L36:
 331              		.loc 1 308 5 discriminator 3 view .LVU65
 309:hc32_ll_driver/src/hc32_ll_efm.c ****     DDL_ASSERT(IS_EFM_REG_UNLOCK());
 332              		.loc 1 309 5 discriminator 3 view .LVU66
 333              		.loc 1 309 5 discriminator 3 view .LVU67
 334 0008 094B     		ldr	r3, .L41
 335 000a 1B68     		ldr	r3, [r3]
 336 000c 012B     		cmp	r3, #1
 337 000e 09D1     		bne	.L40
 338              	.L37:
 339              		.loc 1 309 5 discriminator 3 view .LVU68
 310:hc32_ll_driver/src/hc32_ll_efm.c **** 
 311:hc32_ll_driver/src/hc32_ll_efm.c ****     WRITE_REG32(bCM_EFM->FRMC_b.CACHE, enNewState);
 340              		.loc 1 311 5 discriminator 3 view .LVU69
 341 0010 084B     		ldr	r3, .L41+4
 342 0012 C3F84041 		str	r4, [r3, #320]
 312:hc32_ll_driver/src/hc32_ll_efm.c **** }
 343              		.loc 1 312 1 is_stmt 0 discriminator 3 view .LVU70
 344 0016 10BD     		pop	{r4, pc}
 345              	.LVL27:
 346              	.L39:
 308:hc32_ll_driver/src/hc32_ll_efm.c ****     DDL_ASSERT(IS_EFM_REG_UNLOCK());
 347              		.loc 1 308 5 discriminator 1 view .LVU71
 348 0018 4FF49A71 		mov	r1, #308
 349 001c 0648     		ldr	r0, .L41+8
 350              	.LVL28:
 308:hc32_ll_driver/src/hc32_ll_efm.c ****     DDL_ASSERT(IS_EFM_REG_UNLOCK());
 351              		.loc 1 308 5 discriminator 1 view .LVU72
 352 001e FFF7FEFF 		bl	DDL_AssertHandler
 353              	.LVL29:
 354 0022 F1E7     		b	.L36
 355              	.L40:
 309:hc32_ll_driver/src/hc32_ll_efm.c **** 
 356              		.loc 1 309 5 discriminator 1 view .LVU73
 357 0024 40F23511 		movw	r1, #309
 358 0028 0348     		ldr	r0, .L41+8
 359 002a FFF7FEFF 		bl	DDL_AssertHandler
ARM GAS  C:\Users\mkand\AppData\Local\Temp\cc6Q7h6g.s 			page 13


 360              	.LVL30:
 361 002e EFE7     		b	.L37
 362              	.L42:
 363              		.align	2
 364              	.L41:
 365 0030 00040140 		.word	1073808384
 366 0034 00802042 		.word	1109426176
 367 0038 00000000 		.word	.LC0
 368              		.cfi_endproc
 369              	.LFE141:
 371              		.section	.text.EFM_LowVoltageReadCmd,"ax",%progbits
 372              		.align	1
 373              		.global	EFM_LowVoltageReadCmd
 374              		.syntax unified
 375              		.thumb
 376              		.thumb_func
 378              	EFM_LowVoltageReadCmd:
 379              	.LVL31:
 380              	.LFB142:
 313:hc32_ll_driver/src/hc32_ll_efm.c **** 
 314:hc32_ll_driver/src/hc32_ll_efm.c **** /**
 315:hc32_ll_driver/src/hc32_ll_efm.c ****  * @brief  Enable or disable the Read of low-voltage mode.
 316:hc32_ll_driver/src/hc32_ll_efm.c ****  * @param  [in] enNewState                An @ref en_functional_state_t enumeration value.
 317:hc32_ll_driver/src/hc32_ll_efm.c ****  * @retval None
 318:hc32_ll_driver/src/hc32_ll_efm.c ****  * @note   Call EFM_REG_Unlock() unlock EFM register first.
 319:hc32_ll_driver/src/hc32_ll_efm.c ****  */
 320:hc32_ll_driver/src/hc32_ll_efm.c **** void EFM_LowVoltageReadCmd(en_functional_state_t enNewState)
 321:hc32_ll_driver/src/hc32_ll_efm.c **** {
 381              		.loc 1 321 1 is_stmt 1 view -0
 382              		.cfi_startproc
 383              		@ args = 0, pretend = 0, frame = 0
 384              		@ frame_needed = 0, uses_anonymous_args = 0
 385              		.loc 1 321 1 is_stmt 0 view .LVU75
 386 0000 10B5     		push	{r4, lr}
 387              	.LCFI4:
 388              		.cfi_def_cfa_offset 8
 389              		.cfi_offset 4, -8
 390              		.cfi_offset 14, -4
 391 0002 0446     		mov	r4, r0
 322:hc32_ll_driver/src/hc32_ll_efm.c ****     DDL_ASSERT(IS_FUNCTIONAL_STATE(enNewState));
 392              		.loc 1 322 5 is_stmt 1 view .LVU76
 393              		.loc 1 322 5 view .LVU77
 394 0004 0128     		cmp	r0, #1
 395 0006 07D8     		bhi	.L47
 396              	.LVL32:
 397              	.L44:
 398              		.loc 1 322 5 discriminator 3 view .LVU78
 323:hc32_ll_driver/src/hc32_ll_efm.c ****     DDL_ASSERT(IS_EFM_REG_UNLOCK());
 399              		.loc 1 323 5 discriminator 3 view .LVU79
 400              		.loc 1 323 5 discriminator 3 view .LVU80
 401 0008 094B     		ldr	r3, .L49
 402 000a 1B68     		ldr	r3, [r3]
 403 000c 012B     		cmp	r3, #1
 404 000e 09D1     		bne	.L48
 405              	.L45:
 406              		.loc 1 323 5 discriminator 3 view .LVU81
 324:hc32_ll_driver/src/hc32_ll_efm.c **** 
ARM GAS  C:\Users\mkand\AppData\Local\Temp\cc6Q7h6g.s 			page 14


 325:hc32_ll_driver/src/hc32_ll_efm.c ****     WRITE_REG32(bCM_EFM->FRMC_b.SLPMD, enNewState);
 407              		.loc 1 325 5 discriminator 3 view .LVU82
 408 0010 084B     		ldr	r3, .L49+4
 409 0012 C3F80041 		str	r4, [r3, #256]
 326:hc32_ll_driver/src/hc32_ll_efm.c **** }
 410              		.loc 1 326 1 is_stmt 0 discriminator 3 view .LVU83
 411 0016 10BD     		pop	{r4, pc}
 412              	.LVL33:
 413              	.L47:
 322:hc32_ll_driver/src/hc32_ll_efm.c ****     DDL_ASSERT(IS_EFM_REG_UNLOCK());
 414              		.loc 1 322 5 discriminator 1 view .LVU84
 415 0018 4FF4A171 		mov	r1, #322
 416 001c 0648     		ldr	r0, .L49+8
 417              	.LVL34:
 322:hc32_ll_driver/src/hc32_ll_efm.c ****     DDL_ASSERT(IS_EFM_REG_UNLOCK());
 418              		.loc 1 322 5 discriminator 1 view .LVU85
 419 001e FFF7FEFF 		bl	DDL_AssertHandler
 420              	.LVL35:
 421 0022 F1E7     		b	.L44
 422              	.L48:
 323:hc32_ll_driver/src/hc32_ll_efm.c **** 
 423              		.loc 1 323 5 discriminator 1 view .LVU86
 424 0024 40F24311 		movw	r1, #323
 425 0028 0348     		ldr	r0, .L49+8
 426 002a FFF7FEFF 		bl	DDL_AssertHandler
 427              	.LVL36:
 428 002e EFE7     		b	.L45
 429              	.L50:
 430              		.align	2
 431              	.L49:
 432 0030 00040140 		.word	1073808384
 433 0034 00802042 		.word	1109426176
 434 0038 00000000 		.word	.LC0
 435              		.cfi_endproc
 436              	.LFE142:
 438              		.section	.text.EFM_GetSwapStatus,"ax",%progbits
 439              		.align	1
 440              		.global	EFM_GetSwapStatus
 441              		.syntax unified
 442              		.thumb
 443              		.thumb_func
 445              	EFM_GetSwapStatus:
 446              	.LFB144:
 327:hc32_ll_driver/src/hc32_ll_efm.c **** 
 328:hc32_ll_driver/src/hc32_ll_efm.c **** /**
 329:hc32_ll_driver/src/hc32_ll_efm.c ****  * @brief  Enable or disable the EFM swap function.
 330:hc32_ll_driver/src/hc32_ll_efm.c ****  * @param  [in] enNewState                An @ref en_functional_state_t enumeration value.
 331:hc32_ll_driver/src/hc32_ll_efm.c ****  * @retval int32_t:
 332:hc32_ll_driver/src/hc32_ll_efm.c ****  *         - LL_OK: Program successfully.
 333:hc32_ll_driver/src/hc32_ll_efm.c ****  *         - LL_ERR_NOT_RDY: EFM is not ready.
 334:hc32_ll_driver/src/hc32_ll_efm.c ****  * @note   Call EFM_REG_Unlock() unlock EFM register first.
 335:hc32_ll_driver/src/hc32_ll_efm.c ****  */
 336:hc32_ll_driver/src/hc32_ll_efm.c **** int32_t EFM_SwapCmd(en_functional_state_t enNewState)
 337:hc32_ll_driver/src/hc32_ll_efm.c **** {
 338:hc32_ll_driver/src/hc32_ll_efm.c ****     int32_t i32Ret = LL_OK;
 339:hc32_ll_driver/src/hc32_ll_efm.c ****     uint32_t u32Tmp;
 340:hc32_ll_driver/src/hc32_ll_efm.c **** 
ARM GAS  C:\Users\mkand\AppData\Local\Temp\cc6Q7h6g.s 			page 15


 341:hc32_ll_driver/src/hc32_ll_efm.c ****     DDL_ASSERT(IS_FUNCTIONAL_STATE(enNewState));
 342:hc32_ll_driver/src/hc32_ll_efm.c ****     DDL_ASSERT(IS_EFM_REG_UNLOCK());
 343:hc32_ll_driver/src/hc32_ll_efm.c ****     DDL_ASSERT(IS_EFM_FWMC_UNLOCK());
 344:hc32_ll_driver/src/hc32_ll_efm.c **** 
 345:hc32_ll_driver/src/hc32_ll_efm.c ****     /* Get CACHE status */
 346:hc32_ll_driver/src/hc32_ll_efm.c ****     u32Tmp = READ_REG32_BIT(CM_EFM->FRMC, EFM_CACHE_ALL);
 347:hc32_ll_driver/src/hc32_ll_efm.c ****     /* Disable CACHE */
 348:hc32_ll_driver/src/hc32_ll_efm.c ****     CLR_REG32_BIT(CM_EFM->FRMC, EFM_CACHE_ALL);
 349:hc32_ll_driver/src/hc32_ll_efm.c **** 
 350:hc32_ll_driver/src/hc32_ll_efm.c ****     if (enNewState == ENABLE) {
 351:hc32_ll_driver/src/hc32_ll_efm.c ****         /* Set Program single mode. */
 352:hc32_ll_driver/src/hc32_ll_efm.c ****         MODIFY_REG32(CM_EFM->FWMC, EFM_FWMC_PEMOD, EFM_MD_PGM_SINGLE);
 353:hc32_ll_driver/src/hc32_ll_efm.c ****         /* Enable flash swap function */
 354:hc32_ll_driver/src/hc32_ll_efm.c ****         RW_MEM32(EFM_SWAP_ADDR) = EFM_SWAP_DATA;
 355:hc32_ll_driver/src/hc32_ll_efm.c ****         /* Wait for ready flag. */
 356:hc32_ll_driver/src/hc32_ll_efm.c ****         if (LL_ERR_TIMEOUT == EFM_WaitFlag(EFM_FLAG_RDY, EFM_PGM_TIMEOUT)) {
 357:hc32_ll_driver/src/hc32_ll_efm.c ****             i32Ret = LL_ERR_NOT_RDY;
 358:hc32_ll_driver/src/hc32_ll_efm.c ****         }
 359:hc32_ll_driver/src/hc32_ll_efm.c ****         /* CLear the operation end flag. */
 360:hc32_ll_driver/src/hc32_ll_efm.c ****         EFM_ClearStatus(EFM_FLAG_OPTEND);
 361:hc32_ll_driver/src/hc32_ll_efm.c ****     } else {
 362:hc32_ll_driver/src/hc32_ll_efm.c ****         /* Set Sector erase mode. */
 363:hc32_ll_driver/src/hc32_ll_efm.c ****         MODIFY_REG32(CM_EFM->FWMC, EFM_FWMC_PEMOD, EFM_MD_ERASE_SECTOR);
 364:hc32_ll_driver/src/hc32_ll_efm.c ****         /* Disable flash switch function */
 365:hc32_ll_driver/src/hc32_ll_efm.c ****         RW_MEM32(EFM_SWAP_ADDR) = 0x0UL;
 366:hc32_ll_driver/src/hc32_ll_efm.c ****         /* Wait for ready flag. */
 367:hc32_ll_driver/src/hc32_ll_efm.c ****         if (LL_ERR_TIMEOUT == EFM_WaitFlag(EFM_FLAG_RDY, EFM_ERASE_TIMEOUT)) {
 368:hc32_ll_driver/src/hc32_ll_efm.c ****             i32Ret = LL_ERR_NOT_RDY;
 369:hc32_ll_driver/src/hc32_ll_efm.c ****         }
 370:hc32_ll_driver/src/hc32_ll_efm.c ****         /* CLear the operation end flag. */
 371:hc32_ll_driver/src/hc32_ll_efm.c ****         EFM_ClearStatus(EFM_FLAG_OPTEND);
 372:hc32_ll_driver/src/hc32_ll_efm.c ****     }
 373:hc32_ll_driver/src/hc32_ll_efm.c ****     /* Set read only mode. */
 374:hc32_ll_driver/src/hc32_ll_efm.c ****     MODIFY_REG32(CM_EFM->FWMC, EFM_FWMC_PEMOD, EFM_MD_READONLY);
 375:hc32_ll_driver/src/hc32_ll_efm.c **** 
 376:hc32_ll_driver/src/hc32_ll_efm.c ****     /* recover CACHE */
 377:hc32_ll_driver/src/hc32_ll_efm.c ****     MODIFY_REG32(CM_EFM->FRMC, EFM_CACHE_ALL, u32Tmp);
 378:hc32_ll_driver/src/hc32_ll_efm.c **** 
 379:hc32_ll_driver/src/hc32_ll_efm.c ****     return i32Ret;
 380:hc32_ll_driver/src/hc32_ll_efm.c **** }
 381:hc32_ll_driver/src/hc32_ll_efm.c **** 
 382:hc32_ll_driver/src/hc32_ll_efm.c **** /**
 383:hc32_ll_driver/src/hc32_ll_efm.c ****  * @brief  Checks whether the swap function enable or disable.
 384:hc32_ll_driver/src/hc32_ll_efm.c ****  * @param  None
 385:hc32_ll_driver/src/hc32_ll_efm.c ****  * @retval An @ref en_flag_status_t enumeration type value.
 386:hc32_ll_driver/src/hc32_ll_efm.c ****  */
 387:hc32_ll_driver/src/hc32_ll_efm.c **** en_flag_status_t EFM_GetSwapStatus(void)
 388:hc32_ll_driver/src/hc32_ll_efm.c **** {
 447              		.loc 1 388 1 is_stmt 1 view -0
 448              		.cfi_startproc
 449              		@ args = 0, pretend = 0, frame = 0
 450              		@ frame_needed = 0, uses_anonymous_args = 0
 451              		@ link register save eliminated.
 389:hc32_ll_driver/src/hc32_ll_efm.c ****     return ((0UL == READ_REG32(bCM_EFM->FSWP_b.FSWP)) ? SET : RESET);
 452              		.loc 1 389 5 view .LVU88
 453              		.loc 1 389 21 is_stmt 0 view .LVU89
 454 0000 034B     		ldr	r3, .L52
ARM GAS  C:\Users\mkand\AppData\Local\Temp\cc6Q7h6g.s 			page 16


 455 0002 D3F88003 		ldr	r0, [r3, #896]
 390:hc32_ll_driver/src/hc32_ll_efm.c **** }
 456              		.loc 1 390 1 view .LVU90
 457 0006 B0FA80F0 		clz	r0, r0
 458 000a 4009     		lsrs	r0, r0, #5
 459 000c 7047     		bx	lr
 460              	.L53:
 461 000e 00BF     		.align	2
 462              	.L52:
 463 0010 00802042 		.word	1109426176
 464              		.cfi_endproc
 465              	.LFE144:
 467              		.section	.text.EFM_LowVoltageCmd,"ax",%progbits
 468              		.align	1
 469              		.global	EFM_LowVoltageCmd
 470              		.syntax unified
 471              		.thumb
 472              		.thumb_func
 474              	EFM_LowVoltageCmd:
 475              	.LVL37:
 476              	.LFB145:
 391:hc32_ll_driver/src/hc32_ll_efm.c **** 
 392:hc32_ll_driver/src/hc32_ll_efm.c **** /**
 393:hc32_ll_driver/src/hc32_ll_efm.c ****  * @brief  Enable or disable the EFM low-voltage mode.
 394:hc32_ll_driver/src/hc32_ll_efm.c ****  * @param  [in] enNewState                An @ref en_functional_state_t enumeration value.
 395:hc32_ll_driver/src/hc32_ll_efm.c ****  * @retval None
 396:hc32_ll_driver/src/hc32_ll_efm.c ****  * @note   Call EFM_REG_Unlock() unlock EFM register first.
 397:hc32_ll_driver/src/hc32_ll_efm.c ****  */
 398:hc32_ll_driver/src/hc32_ll_efm.c **** void EFM_LowVoltageCmd(en_functional_state_t enNewState)
 399:hc32_ll_driver/src/hc32_ll_efm.c **** {
 477              		.loc 1 399 1 is_stmt 1 view -0
 478              		.cfi_startproc
 479              		@ args = 0, pretend = 0, frame = 0
 480              		@ frame_needed = 0, uses_anonymous_args = 0
 481              		.loc 1 399 1 is_stmt 0 view .LVU92
 482 0000 10B5     		push	{r4, lr}
 483              	.LCFI5:
 484              		.cfi_def_cfa_offset 8
 485              		.cfi_offset 4, -8
 486              		.cfi_offset 14, -4
 487 0002 0446     		mov	r4, r0
 400:hc32_ll_driver/src/hc32_ll_efm.c ****     DDL_ASSERT(IS_FUNCTIONAL_STATE(enNewState));
 488              		.loc 1 400 5 is_stmt 1 view .LVU93
 489              		.loc 1 400 5 view .LVU94
 490 0004 0128     		cmp	r0, #1
 491 0006 03D8     		bhi	.L57
 492              	.LVL38:
 493              	.L55:
 494              		.loc 1 400 5 discriminator 3 view .LVU95
 401:hc32_ll_driver/src/hc32_ll_efm.c ****     WRITE_REG32(bCM_EFM->FRMC_b.LVM, enNewState);
 495              		.loc 1 401 5 discriminator 3 view .LVU96
 496 0008 044B     		ldr	r3, .L58
 497 000a C3F82041 		str	r4, [r3, #288]
 402:hc32_ll_driver/src/hc32_ll_efm.c **** }
 498              		.loc 1 402 1 is_stmt 0 discriminator 3 view .LVU97
 499 000e 10BD     		pop	{r4, pc}
 500              	.LVL39:
ARM GAS  C:\Users\mkand\AppData\Local\Temp\cc6Q7h6g.s 			page 17


 501              	.L57:
 400:hc32_ll_driver/src/hc32_ll_efm.c ****     DDL_ASSERT(IS_FUNCTIONAL_STATE(enNewState));
 502              		.loc 1 400 5 discriminator 1 view .LVU98
 503 0010 4FF4C871 		mov	r1, #400
 504 0014 0248     		ldr	r0, .L58+4
 505              	.LVL40:
 400:hc32_ll_driver/src/hc32_ll_efm.c ****     DDL_ASSERT(IS_FUNCTIONAL_STATE(enNewState));
 506              		.loc 1 400 5 discriminator 1 view .LVU99
 507 0016 FFF7FEFF 		bl	DDL_AssertHandler
 508              	.LVL41:
 509 001a F5E7     		b	.L55
 510              	.L59:
 511              		.align	2
 512              	.L58:
 513 001c 00802042 		.word	1109426176
 514 0020 00000000 		.word	.LC0
 515              		.cfi_endproc
 516              	.LFE145:
 518              		.section	.text.EFM_IntCmd,"ax",%progbits
 519              		.align	1
 520              		.global	EFM_IntCmd
 521              		.syntax unified
 522              		.thumb
 523              		.thumb_func
 525              	EFM_IntCmd:
 526              	.LVL42:
 527              	.LFB147:
 403:hc32_ll_driver/src/hc32_ll_efm.c **** 
 404:hc32_ll_driver/src/hc32_ll_efm.c **** /**
 405:hc32_ll_driver/src/hc32_ll_efm.c ****  * @brief  Set the FLASH erase program mode .
 406:hc32_ll_driver/src/hc32_ll_efm.c ****  * @param  [in] u32Mode                   Specifies the FLASH erase program mode.
 407:hc32_ll_driver/src/hc32_ll_efm.c ****  *    @arg  This parameter can be of a value of @ref EFM_OperateMode_Sel
 408:hc32_ll_driver/src/hc32_ll_efm.c ****  * @retval int32_t:
 409:hc32_ll_driver/src/hc32_ll_efm.c ****  *         - LL_OK: Set mode successfully.
 410:hc32_ll_driver/src/hc32_ll_efm.c ****  *         - LL_ERR_NOT_RDY: EFM is not ready.
 411:hc32_ll_driver/src/hc32_ll_efm.c ****  */
 412:hc32_ll_driver/src/hc32_ll_efm.c **** int32_t EFM_SetOperateMode(uint32_t u32Mode)
 413:hc32_ll_driver/src/hc32_ll_efm.c **** {
 414:hc32_ll_driver/src/hc32_ll_efm.c ****     int32_t i32Ret = LL_OK;
 415:hc32_ll_driver/src/hc32_ll_efm.c ****     DDL_ASSERT(IS_EFM_OPERATE_MD(u32Mode));
 416:hc32_ll_driver/src/hc32_ll_efm.c ****     DDL_ASSERT(IS_EFM_REG_UNLOCK());
 417:hc32_ll_driver/src/hc32_ll_efm.c ****     DDL_ASSERT(IS_EFM_FWMC_UNLOCK());
 418:hc32_ll_driver/src/hc32_ll_efm.c **** 
 419:hc32_ll_driver/src/hc32_ll_efm.c ****     if (LL_ERR_TIMEOUT == EFM_WaitFlag(EFM_FLAG_RDY, EFM_SEQ_PGM_TIMEOUT)) {
 420:hc32_ll_driver/src/hc32_ll_efm.c ****         i32Ret = LL_ERR_NOT_RDY;
 421:hc32_ll_driver/src/hc32_ll_efm.c ****     }
 422:hc32_ll_driver/src/hc32_ll_efm.c **** 
 423:hc32_ll_driver/src/hc32_ll_efm.c ****     if (i32Ret == LL_OK) {
 424:hc32_ll_driver/src/hc32_ll_efm.c ****         /* Set the program or erase mode. */
 425:hc32_ll_driver/src/hc32_ll_efm.c ****         MODIFY_REG32(CM_EFM->FWMC, EFM_FWMC_PEMOD, u32Mode);
 426:hc32_ll_driver/src/hc32_ll_efm.c ****     }
 427:hc32_ll_driver/src/hc32_ll_efm.c ****     return i32Ret;
 428:hc32_ll_driver/src/hc32_ll_efm.c **** }
 429:hc32_ll_driver/src/hc32_ll_efm.c **** 
 430:hc32_ll_driver/src/hc32_ll_efm.c **** /**
 431:hc32_ll_driver/src/hc32_ll_efm.c ****  * @brief  Enable or Disable EFM interrupt.
 432:hc32_ll_driver/src/hc32_ll_efm.c ****  * @param  [in] u32EfmInt               Specifies the FLASH interrupt source and status. @ref EFM_I
ARM GAS  C:\Users\mkand\AppData\Local\Temp\cc6Q7h6g.s 			page 18


 433:hc32_ll_driver/src/hc32_ll_efm.c ****  *   @arg  EFM_INT_OPTEND:              End of EFM Operation Interrupt source
 434:hc32_ll_driver/src/hc32_ll_efm.c ****  *   @arg  EFM_INT_PEERR:               Program/erase error Interrupt source
 435:hc32_ll_driver/src/hc32_ll_efm.c ****  *   @arg  EFM_INT_COLERR:              Read collide error Interrupt source
 436:hc32_ll_driver/src/hc32_ll_efm.c ****  * @param  [in] enNewState              An @ref en_functional_state_t enumeration value.
 437:hc32_ll_driver/src/hc32_ll_efm.c ****  * @retval None
 438:hc32_ll_driver/src/hc32_ll_efm.c ****  * @note   Call EFM_REG_Unlock() unlock EFM register first.
 439:hc32_ll_driver/src/hc32_ll_efm.c ****  */
 440:hc32_ll_driver/src/hc32_ll_efm.c **** void EFM_IntCmd(uint32_t u32EfmInt, en_functional_state_t enNewState)
 441:hc32_ll_driver/src/hc32_ll_efm.c **** {
 528              		.loc 1 441 1 is_stmt 1 view -0
 529              		.cfi_startproc
 530              		@ args = 0, pretend = 0, frame = 0
 531              		@ frame_needed = 0, uses_anonymous_args = 0
 532              		.loc 1 441 1 is_stmt 0 view .LVU101
 533 0000 38B5     		push	{r3, r4, r5, lr}
 534              	.LCFI6:
 535              		.cfi_def_cfa_offset 16
 536              		.cfi_offset 3, -16
 537              		.cfi_offset 4, -12
 538              		.cfi_offset 5, -8
 539              		.cfi_offset 14, -4
 540 0002 0446     		mov	r4, r0
 541 0004 0D46     		mov	r5, r1
 442:hc32_ll_driver/src/hc32_ll_efm.c ****     DDL_ASSERT(IS_EFM_REG_UNLOCK());
 542              		.loc 1 442 5 is_stmt 1 view .LVU102
 543              		.loc 1 442 5 view .LVU103
 544 0006 134B     		ldr	r3, .L71
 545 0008 1B68     		ldr	r3, [r3]
 546 000a 012B     		cmp	r3, #1
 547 000c 0BD1     		bne	.L67
 548              	.LVL43:
 549              	.L61:
 550              		.loc 1 442 5 discriminator 3 view .LVU104
 443:hc32_ll_driver/src/hc32_ll_efm.c ****     DDL_ASSERT(IS_EFM_INT_SEL(u32EfmInt));
 551              		.loc 1 443 5 discriminator 3 view .LVU105
 552              		.loc 1 443 5 discriminator 3 view .LVU106
 553 000e 072C     		cmp	r4, #7
 554 0010 0FD8     		bhi	.L68
 555              	.L62:
 556              		.loc 1 443 5 discriminator 3 view .LVU107
 444:hc32_ll_driver/src/hc32_ll_efm.c ****     DDL_ASSERT(IS_FUNCTIONAL_STATE(enNewState));
 557              		.loc 1 444 5 discriminator 3 view .LVU108
 558              		.loc 1 444 5 discriminator 3 view .LVU109
 559 0012 012D     		cmp	r5, #1
 560 0014 13D8     		bhi	.L69
 561              	.L63:
 562              		.loc 1 444 5 discriminator 3 view .LVU110
 445:hc32_ll_driver/src/hc32_ll_efm.c **** 
 446:hc32_ll_driver/src/hc32_ll_efm.c ****     if (ENABLE == enNewState) {
 563              		.loc 1 446 5 discriminator 3 view .LVU111
 564              		.loc 1 446 8 is_stmt 0 discriminator 3 view .LVU112
 565 0016 012D     		cmp	r5, #1
 566 0018 17D0     		beq	.L70
 447:hc32_ll_driver/src/hc32_ll_efm.c ****         SET_REG32_BIT(CM_EFM->FITE, u32EfmInt);
 448:hc32_ll_driver/src/hc32_ll_efm.c ****     } else {
 449:hc32_ll_driver/src/hc32_ll_efm.c ****         CLR_REG32_BIT(CM_EFM->FITE, u32EfmInt);
 567              		.loc 1 449 9 is_stmt 1 view .LVU113
ARM GAS  C:\Users\mkand\AppData\Local\Temp\cc6Q7h6g.s 			page 19


 568 001a 0E4A     		ldr	r2, .L71
 569 001c 9369     		ldr	r3, [r2, #24]
 570 001e 23EA0403 		bic	r3, r3, r4
 571 0022 9361     		str	r3, [r2, #24]
 572              	.L60:
 450:hc32_ll_driver/src/hc32_ll_efm.c ****     }
 451:hc32_ll_driver/src/hc32_ll_efm.c **** }
 573              		.loc 1 451 1 is_stmt 0 view .LVU114
 574 0024 38BD     		pop	{r3, r4, r5, pc}
 575              	.LVL44:
 576              	.L67:
 442:hc32_ll_driver/src/hc32_ll_efm.c ****     DDL_ASSERT(IS_EFM_INT_SEL(u32EfmInt));
 577              		.loc 1 442 5 discriminator 1 view .LVU115
 578 0026 4FF4DD71 		mov	r1, #442
 579              	.LVL45:
 442:hc32_ll_driver/src/hc32_ll_efm.c ****     DDL_ASSERT(IS_EFM_INT_SEL(u32EfmInt));
 580              		.loc 1 442 5 discriminator 1 view .LVU116
 581 002a 0B48     		ldr	r0, .L71+4
 582              	.LVL46:
 442:hc32_ll_driver/src/hc32_ll_efm.c ****     DDL_ASSERT(IS_EFM_INT_SEL(u32EfmInt));
 583              		.loc 1 442 5 discriminator 1 view .LVU117
 584 002c FFF7FEFF 		bl	DDL_AssertHandler
 585              	.LVL47:
 586 0030 EDE7     		b	.L61
 587              	.L68:
 443:hc32_ll_driver/src/hc32_ll_efm.c ****     DDL_ASSERT(IS_FUNCTIONAL_STATE(enNewState));
 588              		.loc 1 443 5 discriminator 1 view .LVU118
 589 0032 40F2BB11 		movw	r1, #443
 590 0036 0848     		ldr	r0, .L71+4
 591 0038 FFF7FEFF 		bl	DDL_AssertHandler
 592              	.LVL48:
 593 003c E9E7     		b	.L62
 594              	.L69:
 444:hc32_ll_driver/src/hc32_ll_efm.c **** 
 595              		.loc 1 444 5 discriminator 1 view .LVU119
 596 003e 4FF4DE71 		mov	r1, #444
 597 0042 0548     		ldr	r0, .L71+4
 598 0044 FFF7FEFF 		bl	DDL_AssertHandler
 599              	.LVL49:
 600 0048 E5E7     		b	.L63
 601              	.L70:
 447:hc32_ll_driver/src/hc32_ll_efm.c ****     } else {
 602              		.loc 1 447 9 is_stmt 1 view .LVU120
 603 004a 024A     		ldr	r2, .L71
 604 004c 9369     		ldr	r3, [r2, #24]
 605 004e 2343     		orrs	r3, r3, r4
 606 0050 9361     		str	r3, [r2, #24]
 607 0052 E7E7     		b	.L60
 608              	.L72:
 609              		.align	2
 610              	.L71:
 611 0054 00040140 		.word	1073808384
 612 0058 00000000 		.word	.LC0
 613              		.cfi_endproc
 614              	.LFE147:
 616              		.section	.text.EFM_GetAnyStatus,"ax",%progbits
 617              		.align	1
ARM GAS  C:\Users\mkand\AppData\Local\Temp\cc6Q7h6g.s 			page 20


 618              		.global	EFM_GetAnyStatus
 619              		.syntax unified
 620              		.thumb
 621              		.thumb_func
 623              	EFM_GetAnyStatus:
 624              	.LVL50:
 625              	.LFB148:
 452:hc32_ll_driver/src/hc32_ll_efm.c **** 
 453:hc32_ll_driver/src/hc32_ll_efm.c **** /**
 454:hc32_ll_driver/src/hc32_ll_efm.c ****  * @brief  Check any of the specified flag is set or not.
 455:hc32_ll_driver/src/hc32_ll_efm.c ****  * @param  [in] u32Flag                    Specifies the FLASH flag to check.
 456:hc32_ll_driver/src/hc32_ll_efm.c ****  *   @arg  This parameter can be of a value of @ref EFM_Flag_Sel
 457:hc32_ll_driver/src/hc32_ll_efm.c ****  * @retval An @ref en_flag_status_t enumeration type value.
 458:hc32_ll_driver/src/hc32_ll_efm.c ****  */
 459:hc32_ll_driver/src/hc32_ll_efm.c **** en_flag_status_t EFM_GetAnyStatus(uint32_t u32Flag)
 460:hc32_ll_driver/src/hc32_ll_efm.c **** {
 626              		.loc 1 460 1 view -0
 627              		.cfi_startproc
 628              		@ args = 0, pretend = 0, frame = 0
 629              		@ frame_needed = 0, uses_anonymous_args = 0
 630              		.loc 1 460 1 is_stmt 0 view .LVU122
 631 0000 10B5     		push	{r4, lr}
 632              	.LCFI7:
 633              		.cfi_def_cfa_offset 8
 634              		.cfi_offset 4, -8
 635              		.cfi_offset 14, -4
 636 0002 0446     		mov	r4, r0
 461:hc32_ll_driver/src/hc32_ll_efm.c ****     DDL_ASSERT(IS_EFM_FLAG(u32Flag));
 637              		.loc 1 461 5 is_stmt 1 view .LVU123
 638              		.loc 1 461 5 view .LVU124
 639 0004 20F49F73 		bic	r3, r0, #318
 640 0008 23F00103 		bic	r3, r3, #1
 641 000c 33B9     		cbnz	r3, .L76
 642              	.LVL51:
 643              	.L74:
 644              		.loc 1 461 5 discriminator 3 view .LVU125
 462:hc32_ll_driver/src/hc32_ll_efm.c **** 
 463:hc32_ll_driver/src/hc32_ll_efm.c ****     return ((0UL == READ_REG32_BIT(CM_EFM->FSR, u32Flag)) ? RESET : SET);
 645              		.loc 1 463 5 discriminator 3 view .LVU126
 646              		.loc 1 463 21 is_stmt 0 discriminator 3 view .LVU127
 647 000e 064B     		ldr	r3, .L77
 648 0010 1B69     		ldr	r3, [r3, #16]
 649              		.loc 1 463 67 discriminator 3 view .LVU128
 650 0012 2342     		tst	r3, r4
 464:hc32_ll_driver/src/hc32_ll_efm.c **** }
 651              		.loc 1 464 1 discriminator 3 view .LVU129
 652 0014 14BF     		ite	ne
 653 0016 0120     		movne	r0, #1
 654 0018 0020     		moveq	r0, #0
 655 001a 10BD     		pop	{r4, pc}
 656              	.LVL52:
 657              	.L76:
 461:hc32_ll_driver/src/hc32_ll_efm.c ****     DDL_ASSERT(IS_EFM_FLAG(u32Flag));
 658              		.loc 1 461 5 discriminator 1 view .LVU130
 659 001c 40F2CD11 		movw	r1, #461
 660 0020 0248     		ldr	r0, .L77+4
 661              	.LVL53:
ARM GAS  C:\Users\mkand\AppData\Local\Temp\cc6Q7h6g.s 			page 21


 461:hc32_ll_driver/src/hc32_ll_efm.c ****     DDL_ASSERT(IS_EFM_FLAG(u32Flag));
 662              		.loc 1 461 5 discriminator 1 view .LVU131
 663 0022 FFF7FEFF 		bl	DDL_AssertHandler
 664              	.LVL54:
 665 0026 F2E7     		b	.L74
 666              	.L78:
 667              		.align	2
 668              	.L77:
 669 0028 00040140 		.word	1073808384
 670 002c 00000000 		.word	.LC0
 671              		.cfi_endproc
 672              	.LFE148:
 674              		.section	.text.EFM_GetStatus,"ax",%progbits
 675              		.align	1
 676              		.global	EFM_GetStatus
 677              		.syntax unified
 678              		.thumb
 679              		.thumb_func
 681              	EFM_GetStatus:
 682              	.LVL55:
 683              	.LFB149:
 465:hc32_ll_driver/src/hc32_ll_efm.c **** 
 466:hc32_ll_driver/src/hc32_ll_efm.c **** /**
 467:hc32_ll_driver/src/hc32_ll_efm.c ****  * @brief  Check all the specified flag is set or not.
 468:hc32_ll_driver/src/hc32_ll_efm.c ****  * @param  [in] u32Flag                    Specifies the FLASH flag to check.
 469:hc32_ll_driver/src/hc32_ll_efm.c ****  *   @arg  This parameter can be of a value of @ref EFM_Flag_Sel
 470:hc32_ll_driver/src/hc32_ll_efm.c ****  * @retval An @ref en_flag_status_t enumeration type value.
 471:hc32_ll_driver/src/hc32_ll_efm.c ****  */
 472:hc32_ll_driver/src/hc32_ll_efm.c **** en_flag_status_t EFM_GetStatus(uint32_t u32Flag)
 473:hc32_ll_driver/src/hc32_ll_efm.c **** {
 684              		.loc 1 473 1 is_stmt 1 view -0
 685              		.cfi_startproc
 686              		@ args = 0, pretend = 0, frame = 0
 687              		@ frame_needed = 0, uses_anonymous_args = 0
 688              		.loc 1 473 1 is_stmt 0 view .LVU133
 689 0000 10B5     		push	{r4, lr}
 690              	.LCFI8:
 691              		.cfi_def_cfa_offset 8
 692              		.cfi_offset 4, -8
 693              		.cfi_offset 14, -4
 694 0002 0446     		mov	r4, r0
 474:hc32_ll_driver/src/hc32_ll_efm.c ****     DDL_ASSERT(IS_EFM_FLAG(u32Flag));
 695              		.loc 1 474 5 is_stmt 1 view .LVU134
 696              		.loc 1 474 5 view .LVU135
 697 0004 20F49F73 		bic	r3, r0, #318
 698 0008 23F00103 		bic	r3, r3, #1
 699 000c 33B9     		cbnz	r3, .L82
 700              	.LVL56:
 701              	.L80:
 702              		.loc 1 474 5 discriminator 3 view .LVU136
 475:hc32_ll_driver/src/hc32_ll_efm.c **** 
 476:hc32_ll_driver/src/hc32_ll_efm.c ****     return ((u32Flag == READ_REG32_BIT(CM_EFM->FSR, u32Flag)) ? SET : RESET);
 703              		.loc 1 476 5 discriminator 3 view .LVU137
 704              		.loc 1 476 25 is_stmt 0 discriminator 3 view .LVU138
 705 000e 064B     		ldr	r3, .L83
 706 0010 1B69     		ldr	r3, [r3, #16]
 707              		.loc 1 476 69 discriminator 3 view .LVU139
ARM GAS  C:\Users\mkand\AppData\Local\Temp\cc6Q7h6g.s 			page 22


 708 0012 9C43     		bics	r4, r4, r3
 709              	.LVL57:
 477:hc32_ll_driver/src/hc32_ll_efm.c **** }
 710              		.loc 1 477 1 discriminator 3 view .LVU140
 711 0014 0CBF     		ite	eq
 712 0016 0120     		moveq	r0, #1
 713 0018 0020     		movne	r0, #0
 714 001a 10BD     		pop	{r4, pc}
 715              	.LVL58:
 716              	.L82:
 474:hc32_ll_driver/src/hc32_ll_efm.c ****     DDL_ASSERT(IS_EFM_FLAG(u32Flag));
 717              		.loc 1 474 5 discriminator 1 view .LVU141
 718 001c 4FF4ED71 		mov	r1, #474
 719 0020 0248     		ldr	r0, .L83+4
 720              	.LVL59:
 474:hc32_ll_driver/src/hc32_ll_efm.c ****     DDL_ASSERT(IS_EFM_FLAG(u32Flag));
 721              		.loc 1 474 5 discriminator 1 view .LVU142
 722 0022 FFF7FEFF 		bl	DDL_AssertHandler
 723              	.LVL60:
 724 0026 F2E7     		b	.L80
 725              	.L84:
 726              		.align	2
 727              	.L83:
 728 0028 00040140 		.word	1073808384
 729 002c 00000000 		.word	.LC0
 730              		.cfi_endproc
 731              	.LFE149:
 733              		.section	.text.EFM_WaitFlag,"ax",%progbits
 734              		.align	1
 735              		.syntax unified
 736              		.thumb
 737              		.thumb_func
 739              	EFM_WaitFlag:
 740              	.LVL61:
 741              	.LFB137:
 217:hc32_ll_driver/src/hc32_ll_efm.c ****     __IO uint32_t u32Timeout = 0UL;
 742              		.loc 1 217 1 is_stmt 1 view -0
 743              		.cfi_startproc
 744              		@ args = 0, pretend = 0, frame = 8
 745              		@ frame_needed = 0, uses_anonymous_args = 0
 217:hc32_ll_driver/src/hc32_ll_efm.c ****     __IO uint32_t u32Timeout = 0UL;
 746              		.loc 1 217 1 is_stmt 0 view .LVU144
 747 0000 30B5     		push	{r4, r5, lr}
 748              	.LCFI9:
 749              		.cfi_def_cfa_offset 12
 750              		.cfi_offset 4, -12
 751              		.cfi_offset 5, -8
 752              		.cfi_offset 14, -4
 753 0002 83B0     		sub	sp, sp, #12
 754              	.LCFI10:
 755              		.cfi_def_cfa_offset 24
 756 0004 0446     		mov	r4, r0
 757 0006 0D46     		mov	r5, r1
 218:hc32_ll_driver/src/hc32_ll_efm.c ****     int32_t i32Ret = LL_OK;
 758              		.loc 1 218 5 is_stmt 1 view .LVU145
 218:hc32_ll_driver/src/hc32_ll_efm.c ****     int32_t i32Ret = LL_OK;
 759              		.loc 1 218 19 is_stmt 0 view .LVU146
ARM GAS  C:\Users\mkand\AppData\Local\Temp\cc6Q7h6g.s 			page 23


 760 0008 0023     		movs	r3, #0
 761 000a 0193     		str	r3, [sp, #4]
 219:hc32_ll_driver/src/hc32_ll_efm.c **** 
 762              		.loc 1 219 5 is_stmt 1 view .LVU147
 763              	.LVL62:
 221:hc32_ll_driver/src/hc32_ll_efm.c ****         u32Timeout++;
 764              		.loc 1 221 5 view .LVU148
 765              	.L86:
 221:hc32_ll_driver/src/hc32_ll_efm.c ****         u32Timeout++;
 766              		.loc 1 221 16 view .LVU149
 221:hc32_ll_driver/src/hc32_ll_efm.c ****         u32Timeout++;
 767              		.loc 1 221 19 is_stmt 0 view .LVU150
 768 000c 2046     		mov	r0, r4
 769 000e FFF7FEFF 		bl	EFM_GetStatus
 770              	.LVL63:
 221:hc32_ll_driver/src/hc32_ll_efm.c ****         u32Timeout++;
 771              		.loc 1 221 16 view .LVU151
 772 0012 0128     		cmp	r0, #1
 773 0014 08D0     		beq	.L91
 222:hc32_ll_driver/src/hc32_ll_efm.c ****         if (u32Timeout > u32Time) {
 774              		.loc 1 222 9 is_stmt 1 view .LVU152
 222:hc32_ll_driver/src/hc32_ll_efm.c ****         if (u32Timeout > u32Time) {
 775              		.loc 1 222 19 is_stmt 0 view .LVU153
 776 0016 019B     		ldr	r3, [sp, #4]
 777 0018 0133     		adds	r3, r3, #1
 778 001a 0193     		str	r3, [sp, #4]
 223:hc32_ll_driver/src/hc32_ll_efm.c ****             i32Ret = LL_ERR_TIMEOUT;
 779              		.loc 1 223 9 is_stmt 1 view .LVU154
 223:hc32_ll_driver/src/hc32_ll_efm.c ****             i32Ret = LL_ERR_TIMEOUT;
 780              		.loc 1 223 24 is_stmt 0 view .LVU155
 781 001c 019B     		ldr	r3, [sp, #4]
 223:hc32_ll_driver/src/hc32_ll_efm.c ****             i32Ret = LL_ERR_TIMEOUT;
 782              		.loc 1 223 12 view .LVU156
 783 001e AB42     		cmp	r3, r5
 784 0020 F4D9     		bls	.L86
 224:hc32_ll_driver/src/hc32_ll_efm.c ****             break;
 785              		.loc 1 224 20 view .LVU157
 786 0022 6FF00700 		mvn	r0, #7
 787              	.LVL64:
 229:hc32_ll_driver/src/hc32_ll_efm.c **** }
 788              		.loc 1 229 5 is_stmt 1 view .LVU158
 229:hc32_ll_driver/src/hc32_ll_efm.c **** }
 789              		.loc 1 229 12 is_stmt 0 view .LVU159
 790 0026 00E0     		b	.L85
 791              	.LVL65:
 792              	.L91:
 219:hc32_ll_driver/src/hc32_ll_efm.c **** 
 793              		.loc 1 219 13 view .LVU160
 794 0028 0020     		movs	r0, #0
 795              	.LVL66:
 796              	.L85:
 230:hc32_ll_driver/src/hc32_ll_efm.c **** 
 797              		.loc 1 230 1 view .LVU161
 798 002a 03B0     		add	sp, sp, #12
 799              	.LCFI11:
 800              		.cfi_def_cfa_offset 12
 801              		@ sp needed
ARM GAS  C:\Users\mkand\AppData\Local\Temp\cc6Q7h6g.s 			page 24


 802 002c 30BD     		pop	{r4, r5, pc}
 230:hc32_ll_driver/src/hc32_ll_efm.c **** 
 803              		.loc 1 230 1 view .LVU162
 804              		.cfi_endproc
 805              	.LFE137:
 807              		.section	.text.EFM_SetOperateMode,"ax",%progbits
 808              		.align	1
 809              		.global	EFM_SetOperateMode
 810              		.syntax unified
 811              		.thumb
 812              		.thumb_func
 814              	EFM_SetOperateMode:
 815              	.LVL67:
 816              	.LFB146:
 413:hc32_ll_driver/src/hc32_ll_efm.c ****     int32_t i32Ret = LL_OK;
 817              		.loc 1 413 1 is_stmt 1 view -0
 818              		.cfi_startproc
 819              		@ args = 0, pretend = 0, frame = 0
 820              		@ frame_needed = 0, uses_anonymous_args = 0
 413:hc32_ll_driver/src/hc32_ll_efm.c ****     int32_t i32Ret = LL_OK;
 821              		.loc 1 413 1 is_stmt 0 view .LVU164
 822 0000 10B5     		push	{r4, lr}
 823              	.LCFI12:
 824              		.cfi_def_cfa_offset 8
 825              		.cfi_offset 4, -8
 826              		.cfi_offset 14, -4
 827 0002 0446     		mov	r4, r0
 414:hc32_ll_driver/src/hc32_ll_efm.c ****     DDL_ASSERT(IS_EFM_OPERATE_MD(u32Mode));
 828              		.loc 1 414 5 is_stmt 1 view .LVU165
 829              	.LVL68:
 415:hc32_ll_driver/src/hc32_ll_efm.c ****     DDL_ASSERT(IS_EFM_REG_UNLOCK());
 830              		.loc 1 415 5 view .LVU166
 415:hc32_ll_driver/src/hc32_ll_efm.c ****     DDL_ASSERT(IS_EFM_REG_UNLOCK());
 831              		.loc 1 415 5 view .LVU167
 832 0004 3028     		cmp	r0, #48
 833 0006 0FD0     		beq	.L93
 834 0008 0AD8     		bhi	.L94
 835 000a 1028     		cmp	r0, #16
 836 000c 0CD0     		beq	.L93
 837 000e 2028     		cmp	r0, #32
 838 0010 0AD0     		beq	.L93
 839 0012 48B1     		cbz	r0, .L93
 840              	.L95:
 415:hc32_ll_driver/src/hc32_ll_efm.c ****     DDL_ASSERT(IS_EFM_REG_UNLOCK());
 841              		.loc 1 415 5 is_stmt 0 discriminator 11 view .LVU168
 842 0014 40F29F11 		movw	r1, #415
 843 0018 1D48     		ldr	r0, .L103
 844              	.LVL69:
 415:hc32_ll_driver/src/hc32_ll_efm.c ****     DDL_ASSERT(IS_EFM_REG_UNLOCK());
 845              		.loc 1 415 5 discriminator 11 view .LVU169
 846 001a FFF7FEFF 		bl	DDL_AssertHandler
 847              	.LVL70:
 848 001e 03E0     		b	.L93
 849              	.LVL71:
 850              	.L94:
 415:hc32_ll_driver/src/hc32_ll_efm.c ****     DDL_ASSERT(IS_EFM_REG_UNLOCK());
 851              		.loc 1 415 5 discriminator 11 view .LVU170
ARM GAS  C:\Users\mkand\AppData\Local\Temp\cc6Q7h6g.s 			page 25


 852 0020 4028     		cmp	r0, #64
 853 0022 01D0     		beq	.L93
 854 0024 5028     		cmp	r0, #80
 855 0026 F5D1     		bne	.L95
 856              	.LVL72:
 857              	.L93:
 415:hc32_ll_driver/src/hc32_ll_efm.c ****     DDL_ASSERT(IS_EFM_REG_UNLOCK());
 858              		.loc 1 415 5 is_stmt 1 discriminator 13 view .LVU171
 416:hc32_ll_driver/src/hc32_ll_efm.c ****     DDL_ASSERT(IS_EFM_FWMC_UNLOCK());
 859              		.loc 1 416 5 discriminator 13 view .LVU172
 416:hc32_ll_driver/src/hc32_ll_efm.c ****     DDL_ASSERT(IS_EFM_FWMC_UNLOCK());
 860              		.loc 1 416 5 discriminator 13 view .LVU173
 861 0028 1A4B     		ldr	r3, .L103+4
 862 002a 1B68     		ldr	r3, [r3]
 863 002c 012B     		cmp	r3, #1
 864 002e 20D1     		bne	.L101
 865              	.L96:
 416:hc32_ll_driver/src/hc32_ll_efm.c ****     DDL_ASSERT(IS_EFM_FWMC_UNLOCK());
 866              		.loc 1 416 5 discriminator 3 view .LVU174
 417:hc32_ll_driver/src/hc32_ll_efm.c **** 
 867              		.loc 1 417 5 discriminator 3 view .LVU175
 417:hc32_ll_driver/src/hc32_ll_efm.c **** 
 868              		.loc 1 417 5 discriminator 3 view .LVU176
 869 0030 194B     		ldr	r3, .L103+8
 870 0032 D3F88031 		ldr	r3, [r3, #384]
 871 0036 012B     		cmp	r3, #1
 872 0038 21D1     		bne	.L102
 873              	.L97:
 417:hc32_ll_driver/src/hc32_ll_efm.c **** 
 874              		.loc 1 417 5 discriminator 3 view .LVU177
 419:hc32_ll_driver/src/hc32_ll_efm.c ****         i32Ret = LL_ERR_NOT_RDY;
 875              		.loc 1 419 5 discriminator 3 view .LVU178
 419:hc32_ll_driver/src/hc32_ll_efm.c ****         i32Ret = LL_ERR_NOT_RDY;
 876              		.loc 1 419 54 is_stmt 0 discriminator 3 view .LVU179
 877 003a 184B     		ldr	r3, .L103+12
 878 003c 1B6A     		ldr	r3, [r3, #32]
 879 003e C3F30263 		ubfx	r3, r3, #24, #3
 880 0042 174A     		ldr	r2, .L103+16
 881 0044 1168     		ldr	r1, [r2]
 882 0046 D940     		lsrs	r1, r1, r3
 419:hc32_ll_driver/src/hc32_ll_efm.c ****         i32Ret = LL_ERR_NOT_RDY;
 883              		.loc 1 419 27 discriminator 3 view .LVU180
 884 0048 164B     		ldr	r3, .L103+20
 885 004a A3FB0131 		umull	r3, r1, r3, r1
 886 004e 890B     		lsrs	r1, r1, #14
 887 0050 4FF48070 		mov	r0, #256
 888 0054 FFF7FEFF 		bl	EFM_WaitFlag
 889              	.LVL73:
 419:hc32_ll_driver/src/hc32_ll_efm.c ****         i32Ret = LL_ERR_NOT_RDY;
 890              		.loc 1 419 8 discriminator 3 view .LVU181
 891 0058 10F1080F 		cmn	r0, #8
 892 005c 15D0     		beq	.L99
 423:hc32_ll_driver/src/hc32_ll_efm.c ****         /* Set the program or erase mode. */
 893              		.loc 1 423 5 is_stmt 1 view .LVU182
 425:hc32_ll_driver/src/hc32_ll_efm.c ****     }
 894              		.loc 1 425 9 view .LVU183
 895 005e 0D4A     		ldr	r2, .L103+4
ARM GAS  C:\Users\mkand\AppData\Local\Temp\cc6Q7h6g.s 			page 26


 896 0060 D368     		ldr	r3, [r2, #12]
 897 0062 23F07003 		bic	r3, r3, #112
 898 0066 04F07004 		and	r4, r4, #112
 899              	.LVL74:
 425:hc32_ll_driver/src/hc32_ll_efm.c ****     }
 900              		.loc 1 425 9 is_stmt 0 view .LVU184
 901 006a 2343     		orrs	r3, r3, r4
 902 006c D360     		str	r3, [r2, #12]
 414:hc32_ll_driver/src/hc32_ll_efm.c ****     DDL_ASSERT(IS_EFM_OPERATE_MD(u32Mode));
 903              		.loc 1 414 13 view .LVU185
 904 006e 0020     		movs	r0, #0
 905              	.LVL75:
 906              	.L92:
 428:hc32_ll_driver/src/hc32_ll_efm.c **** 
 907              		.loc 1 428 1 view .LVU186
 908 0070 10BD     		pop	{r4, pc}
 909              	.LVL76:
 910              	.L101:
 416:hc32_ll_driver/src/hc32_ll_efm.c ****     DDL_ASSERT(IS_EFM_FWMC_UNLOCK());
 911              		.loc 1 416 5 discriminator 1 view .LVU187
 912 0072 4FF4D071 		mov	r1, #416
 913 0076 0648     		ldr	r0, .L103
 914 0078 FFF7FEFF 		bl	DDL_AssertHandler
 915              	.LVL77:
 916 007c D8E7     		b	.L96
 917              	.L102:
 417:hc32_ll_driver/src/hc32_ll_efm.c **** 
 918              		.loc 1 417 5 discriminator 1 view .LVU188
 919 007e 40F2A111 		movw	r1, #417
 920 0082 0348     		ldr	r0, .L103
 921 0084 FFF7FEFF 		bl	DDL_AssertHandler
 922              	.LVL78:
 923 0088 D7E7     		b	.L97
 924              	.L99:
 420:hc32_ll_driver/src/hc32_ll_efm.c ****     }
 925              		.loc 1 420 16 view .LVU189
 926 008a 6FF00400 		mvn	r0, #4
 927              	.LVL79:
 427:hc32_ll_driver/src/hc32_ll_efm.c **** }
 928              		.loc 1 427 5 is_stmt 1 view .LVU190
 427:hc32_ll_driver/src/hc32_ll_efm.c **** }
 929              		.loc 1 427 12 is_stmt 0 view .LVU191
 930 008e EFE7     		b	.L92
 931              	.L104:
 932              		.align	2
 933              	.L103:
 934 0090 00000000 		.word	.LC0
 935 0094 00040140 		.word	1073808384
 936 0098 00802042 		.word	1109426176
 937 009c 00400540 		.word	1074085888
 938 00a0 00000000 		.word	SystemCoreClock
 939 00a4 83DE1B43 		.word	1125899907
 940              		.cfi_endproc
 941              	.LFE146:
 943              		.section	.text.EFM_ClearStatus,"ax",%progbits
 944              		.align	1
 945              		.global	EFM_ClearStatus
ARM GAS  C:\Users\mkand\AppData\Local\Temp\cc6Q7h6g.s 			page 27


 946              		.syntax unified
 947              		.thumb
 948              		.thumb_func
 950              	EFM_ClearStatus:
 951              	.LVL80:
 952              	.LFB150:
 478:hc32_ll_driver/src/hc32_ll_efm.c **** 
 479:hc32_ll_driver/src/hc32_ll_efm.c **** /**
 480:hc32_ll_driver/src/hc32_ll_efm.c ****  * @brief  Clear the flash flag.
 481:hc32_ll_driver/src/hc32_ll_efm.c ****  * @param  [in] u32Flag                  Specifies the FLASH flag to clear.
 482:hc32_ll_driver/src/hc32_ll_efm.c ****  *   @arg  This parameter can be of a value of @ref EFM_Flag_Sel
 483:hc32_ll_driver/src/hc32_ll_efm.c ****  * @retval None
 484:hc32_ll_driver/src/hc32_ll_efm.c ****  * @note   Call EFM_REG_Unlock() unlock EFM register first.
 485:hc32_ll_driver/src/hc32_ll_efm.c ****  */
 486:hc32_ll_driver/src/hc32_ll_efm.c **** void EFM_ClearStatus(uint32_t u32Flag)
 487:hc32_ll_driver/src/hc32_ll_efm.c **** {
 953              		.loc 1 487 1 is_stmt 1 view -0
 954              		.cfi_startproc
 955              		@ args = 0, pretend = 0, frame = 0
 956              		@ frame_needed = 0, uses_anonymous_args = 0
 957              		.loc 1 487 1 is_stmt 0 view .LVU193
 958 0000 10B5     		push	{r4, lr}
 959              	.LCFI13:
 960              		.cfi_def_cfa_offset 8
 961              		.cfi_offset 4, -8
 962              		.cfi_offset 14, -4
 963 0002 0446     		mov	r4, r0
 488:hc32_ll_driver/src/hc32_ll_efm.c ****     DDL_ASSERT(IS_EFM_REG_UNLOCK());
 964              		.loc 1 488 5 is_stmt 1 view .LVU194
 965              		.loc 1 488 5 view .LVU195
 966 0004 0C4B     		ldr	r3, .L111
 967 0006 1B68     		ldr	r3, [r3]
 968 0008 012B     		cmp	r3, #1
 969 000a 09D1     		bne	.L109
 970              	.LVL81:
 971              	.L106:
 972              		.loc 1 488 5 discriminator 3 view .LVU196
 489:hc32_ll_driver/src/hc32_ll_efm.c ****     DDL_ASSERT(IS_EFM_CLRFLAG(u32Flag));
 973              		.loc 1 489 5 discriminator 3 view .LVU197
 974              		.loc 1 489 5 discriminator 3 view .LVU198
 975 000c 24F49F73 		bic	r3, r4, #318
 976 0010 23F00103 		bic	r3, r3, #1
 977 0014 53B9     		cbnz	r3, .L110
 978              	.L107:
 979              		.loc 1 489 5 discriminator 3 view .LVU199
 490:hc32_ll_driver/src/hc32_ll_efm.c **** 
 491:hc32_ll_driver/src/hc32_ll_efm.c ****     SET_REG32_BIT(CM_EFM->FSCLR, u32Flag);
 980              		.loc 1 491 5 discriminator 3 view .LVU200
 981 0016 084A     		ldr	r2, .L111
 982 0018 5369     		ldr	r3, [r2, #20]
 983 001a 2343     		orrs	r3, r3, r4
 984 001c 5361     		str	r3, [r2, #20]
 492:hc32_ll_driver/src/hc32_ll_efm.c **** }
 985              		.loc 1 492 1 is_stmt 0 discriminator 3 view .LVU201
 986 001e 10BD     		pop	{r4, pc}
 987              	.LVL82:
 988              	.L109:
ARM GAS  C:\Users\mkand\AppData\Local\Temp\cc6Q7h6g.s 			page 28


 488:hc32_ll_driver/src/hc32_ll_efm.c ****     DDL_ASSERT(IS_EFM_CLRFLAG(u32Flag));
 989              		.loc 1 488 5 discriminator 1 view .LVU202
 990 0020 4FF4F471 		mov	r1, #488
 991 0024 0548     		ldr	r0, .L111+4
 992              	.LVL83:
 488:hc32_ll_driver/src/hc32_ll_efm.c ****     DDL_ASSERT(IS_EFM_CLRFLAG(u32Flag));
 993              		.loc 1 488 5 discriminator 1 view .LVU203
 994 0026 FFF7FEFF 		bl	DDL_AssertHandler
 995              	.LVL84:
 996 002a EFE7     		b	.L106
 997              	.L110:
 489:hc32_ll_driver/src/hc32_ll_efm.c **** 
 998              		.loc 1 489 5 discriminator 1 view .LVU204
 999 002c 40F2E911 		movw	r1, #489
 1000 0030 0248     		ldr	r0, .L111+4
 1001 0032 FFF7FEFF 		bl	DDL_AssertHandler
 1002              	.LVL85:
 1003 0036 EEE7     		b	.L107
 1004              	.L112:
 1005              		.align	2
 1006              	.L111:
 1007 0038 00040140 		.word	1073808384
 1008 003c 00000000 		.word	.LC0
 1009              		.cfi_endproc
 1010              	.LFE150:
 1012              		.section	.text.EFM_SwapCmd,"ax",%progbits
 1013              		.align	1
 1014              		.global	EFM_SwapCmd
 1015              		.syntax unified
 1016              		.thumb
 1017              		.thumb_func
 1019              	EFM_SwapCmd:
 1020              	.LVL86:
 1021              	.LFB143:
 337:hc32_ll_driver/src/hc32_ll_efm.c ****     int32_t i32Ret = LL_OK;
 1022              		.loc 1 337 1 is_stmt 1 view -0
 1023              		.cfi_startproc
 1024              		@ args = 0, pretend = 0, frame = 0
 1025              		@ frame_needed = 0, uses_anonymous_args = 0
 337:hc32_ll_driver/src/hc32_ll_efm.c ****     int32_t i32Ret = LL_OK;
 1026              		.loc 1 337 1 is_stmt 0 view .LVU206
 1027 0000 38B5     		push	{r3, r4, r5, lr}
 1028              	.LCFI14:
 1029              		.cfi_def_cfa_offset 16
 1030              		.cfi_offset 3, -16
 1031              		.cfi_offset 4, -12
 1032              		.cfi_offset 5, -8
 1033              		.cfi_offset 14, -4
 1034 0002 0446     		mov	r4, r0
 338:hc32_ll_driver/src/hc32_ll_efm.c ****     uint32_t u32Tmp;
 1035              		.loc 1 338 5 is_stmt 1 view .LVU207
 1036              	.LVL87:
 339:hc32_ll_driver/src/hc32_ll_efm.c **** 
 1037              		.loc 1 339 5 view .LVU208
 341:hc32_ll_driver/src/hc32_ll_efm.c ****     DDL_ASSERT(IS_EFM_REG_UNLOCK());
 1038              		.loc 1 341 5 view .LVU209
 341:hc32_ll_driver/src/hc32_ll_efm.c ****     DDL_ASSERT(IS_EFM_REG_UNLOCK());
ARM GAS  C:\Users\mkand\AppData\Local\Temp\cc6Q7h6g.s 			page 29


 1039              		.loc 1 341 5 view .LVU210
 1040 0004 0128     		cmp	r0, #1
 1041 0006 48D8     		bhi	.L124
 1042              	.LVL88:
 1043              	.L114:
 341:hc32_ll_driver/src/hc32_ll_efm.c ****     DDL_ASSERT(IS_EFM_REG_UNLOCK());
 1044              		.loc 1 341 5 discriminator 3 view .LVU211
 342:hc32_ll_driver/src/hc32_ll_efm.c ****     DDL_ASSERT(IS_EFM_FWMC_UNLOCK());
 1045              		.loc 1 342 5 discriminator 3 view .LVU212
 342:hc32_ll_driver/src/hc32_ll_efm.c ****     DDL_ASSERT(IS_EFM_FWMC_UNLOCK());
 1046              		.loc 1 342 5 discriminator 3 view .LVU213
 1047 0008 414B     		ldr	r3, .L128
 1048 000a 1B68     		ldr	r3, [r3]
 1049 000c 012B     		cmp	r3, #1
 1050 000e 4AD1     		bne	.L125
 1051              	.L115:
 342:hc32_ll_driver/src/hc32_ll_efm.c ****     DDL_ASSERT(IS_EFM_FWMC_UNLOCK());
 1052              		.loc 1 342 5 discriminator 3 view .LVU214
 343:hc32_ll_driver/src/hc32_ll_efm.c **** 
 1053              		.loc 1 343 5 discriminator 3 view .LVU215
 343:hc32_ll_driver/src/hc32_ll_efm.c **** 
 1054              		.loc 1 343 5 discriminator 3 view .LVU216
 1055 0010 404B     		ldr	r3, .L128+4
 1056 0012 D3F88031 		ldr	r3, [r3, #384]
 1057 0016 012B     		cmp	r3, #1
 1058 0018 4BD1     		bne	.L126
 1059              	.L116:
 343:hc32_ll_driver/src/hc32_ll_efm.c **** 
 1060              		.loc 1 343 5 discriminator 3 view .LVU217
 346:hc32_ll_driver/src/hc32_ll_efm.c ****     /* Disable CACHE */
 1061              		.loc 1 346 5 discriminator 3 view .LVU218
 346:hc32_ll_driver/src/hc32_ll_efm.c ****     /* Disable CACHE */
 1062              		.loc 1 346 14 is_stmt 0 discriminator 3 view .LVU219
 1063 001a 3D4A     		ldr	r2, .L128
 1064 001c 9568     		ldr	r5, [r2, #8]
 346:hc32_ll_driver/src/hc32_ll_efm.c ****     /* Disable CACHE */
 1065              		.loc 1 346 12 discriminator 3 view .LVU220
 1066 001e 25F07E45 		bic	r5, r5, #-33554432
 1067 0022 25F47E05 		bic	r5, r5, #16646144
 1068 0026 2D0C     		lsrs	r5, r5, #16
 1069 0028 2D04     		lsls	r5, r5, #16
 1070              	.LVL89:
 348:hc32_ll_driver/src/hc32_ll_efm.c **** 
 1071              		.loc 1 348 5 is_stmt 1 discriminator 3 view .LVU221
 1072 002a 9368     		ldr	r3, [r2, #8]
 1073 002c 23F08073 		bic	r3, r3, #16777216
 1074 0030 23F48033 		bic	r3, r3, #65536
 1075 0034 9360     		str	r3, [r2, #8]
 350:hc32_ll_driver/src/hc32_ll_efm.c ****         /* Set Program single mode. */
 1076              		.loc 1 350 5 discriminator 3 view .LVU222
 350:hc32_ll_driver/src/hc32_ll_efm.c ****         /* Set Program single mode. */
 1077              		.loc 1 350 8 is_stmt 0 discriminator 3 view .LVU223
 1078 0036 012C     		cmp	r4, #1
 1079 0038 41D0     		beq	.L127
 363:hc32_ll_driver/src/hc32_ll_efm.c ****         /* Disable flash switch function */
 1080              		.loc 1 363 9 is_stmt 1 view .LVU224
 1081 003a 354A     		ldr	r2, .L128
ARM GAS  C:\Users\mkand\AppData\Local\Temp\cc6Q7h6g.s 			page 30


 1082 003c D368     		ldr	r3, [r2, #12]
 1083 003e 23F07003 		bic	r3, r3, #112
 1084 0042 43F04003 		orr	r3, r3, #64
 1085 0046 D360     		str	r3, [r2, #12]
 365:hc32_ll_driver/src/hc32_ll_efm.c ****         /* Wait for ready flag. */
 1086              		.loc 1 365 9 view .LVU225
 365:hc32_ll_driver/src/hc32_ll_efm.c ****         /* Wait for ready flag. */
 1087              		.loc 1 365 33 is_stmt 0 view .LVU226
 1088 0048 4FF4FE23 		mov	r3, #520192
 1089 004c 0022     		movs	r2, #0
 1090 004e C3F8DC2F 		str	r2, [r3, #4060]
 367:hc32_ll_driver/src/hc32_ll_efm.c ****             i32Ret = LL_ERR_NOT_RDY;
 1091              		.loc 1 367 9 is_stmt 1 view .LVU227
 367:hc32_ll_driver/src/hc32_ll_efm.c ****             i32Ret = LL_ERR_NOT_RDY;
 1092              		.loc 1 367 58 is_stmt 0 view .LVU228
 1093 0052 314B     		ldr	r3, .L128+8
 1094 0054 1B6A     		ldr	r3, [r3, #32]
 1095 0056 C3F30263 		ubfx	r3, r3, #24, #3
 1096 005a 304A     		ldr	r2, .L128+12
 1097 005c 1168     		ldr	r1, [r2]
 1098 005e D940     		lsrs	r1, r1, r3
 367:hc32_ll_driver/src/hc32_ll_efm.c ****             i32Ret = LL_ERR_NOT_RDY;
 1099              		.loc 1 367 31 view .LVU229
 1100 0060 2F4B     		ldr	r3, .L128+16
 1101 0062 A3FB0131 		umull	r3, r1, r3, r1
 1102 0066 0909     		lsrs	r1, r1, #4
 1103 0068 4FF48070 		mov	r0, #256
 1104 006c FFF7FEFF 		bl	EFM_WaitFlag
 1105              	.LVL90:
 367:hc32_ll_driver/src/hc32_ll_efm.c ****             i32Ret = LL_ERR_NOT_RDY;
 1106              		.loc 1 367 12 view .LVU230
 1107 0070 10F1080F 		cmn	r0, #8
 1108 0074 48D0     		beq	.L122
 338:hc32_ll_driver/src/hc32_ll_efm.c ****     uint32_t u32Tmp;
 1109              		.loc 1 338 13 view .LVU231
 1110 0076 0024     		movs	r4, #0
 1111              	.L120:
 1112              	.LVL91:
 371:hc32_ll_driver/src/hc32_ll_efm.c ****     }
 1113              		.loc 1 371 9 is_stmt 1 view .LVU232
 1114 0078 1020     		movs	r0, #16
 1115 007a FFF7FEFF 		bl	EFM_ClearStatus
 1116              	.LVL92:
 1117              	.L119:
 374:hc32_ll_driver/src/hc32_ll_efm.c **** 
 1118              		.loc 1 374 5 view .LVU233
 1119 007e 244A     		ldr	r2, .L128
 1120 0080 D368     		ldr	r3, [r2, #12]
 1121 0082 23F07003 		bic	r3, r3, #112
 1122 0086 D360     		str	r3, [r2, #12]
 377:hc32_ll_driver/src/hc32_ll_efm.c **** 
 1123              		.loc 1 377 5 view .LVU234
 1124 0088 9368     		ldr	r3, [r2, #8]
 1125 008a 23F08073 		bic	r3, r3, #16777216
 1126 008e 23F48033 		bic	r3, r3, #65536
 1127 0092 2B43     		orrs	r3, r3, r5
 1128 0094 9360     		str	r3, [r2, #8]
ARM GAS  C:\Users\mkand\AppData\Local\Temp\cc6Q7h6g.s 			page 31


 379:hc32_ll_driver/src/hc32_ll_efm.c **** }
 1129              		.loc 1 379 5 view .LVU235
 380:hc32_ll_driver/src/hc32_ll_efm.c **** 
 1130              		.loc 1 380 1 is_stmt 0 view .LVU236
 1131 0096 2046     		mov	r0, r4
 1132 0098 38BD     		pop	{r3, r4, r5, pc}
 1133              	.LVL93:
 1134              	.L124:
 341:hc32_ll_driver/src/hc32_ll_efm.c ****     DDL_ASSERT(IS_EFM_REG_UNLOCK());
 1135              		.loc 1 341 5 discriminator 1 view .LVU237
 1136 009a 40F25511 		movw	r1, #341
 1137 009e 2148     		ldr	r0, .L128+20
 1138              	.LVL94:
 341:hc32_ll_driver/src/hc32_ll_efm.c ****     DDL_ASSERT(IS_EFM_REG_UNLOCK());
 1139              		.loc 1 341 5 discriminator 1 view .LVU238
 1140 00a0 FFF7FEFF 		bl	DDL_AssertHandler
 1141              	.LVL95:
 1142 00a4 B0E7     		b	.L114
 1143              	.L125:
 342:hc32_ll_driver/src/hc32_ll_efm.c ****     DDL_ASSERT(IS_EFM_FWMC_UNLOCK());
 1144              		.loc 1 342 5 discriminator 1 view .LVU239
 1145 00a6 4FF4AB71 		mov	r1, #342
 1146 00aa 1E48     		ldr	r0, .L128+20
 1147 00ac FFF7FEFF 		bl	DDL_AssertHandler
 1148              	.LVL96:
 1149 00b0 AEE7     		b	.L115
 1150              	.L126:
 343:hc32_ll_driver/src/hc32_ll_efm.c **** 
 1151              		.loc 1 343 5 discriminator 1 view .LVU240
 1152 00b2 40F25711 		movw	r1, #343
 1153 00b6 1B48     		ldr	r0, .L128+20
 1154 00b8 FFF7FEFF 		bl	DDL_AssertHandler
 1155              	.LVL97:
 1156 00bc ADE7     		b	.L116
 1157              	.LVL98:
 1158              	.L127:
 352:hc32_ll_driver/src/hc32_ll_efm.c ****         /* Enable flash swap function */
 1159              		.loc 1 352 9 is_stmt 1 view .LVU241
 1160 00be D368     		ldr	r3, [r2, #12]
 1161 00c0 23F07003 		bic	r3, r3, #112
 1162 00c4 43F01003 		orr	r3, r3, #16
 1163 00c8 D360     		str	r3, [r2, #12]
 354:hc32_ll_driver/src/hc32_ll_efm.c ****         /* Wait for ready flag. */
 1164              		.loc 1 354 9 view .LVU242
 354:hc32_ll_driver/src/hc32_ll_efm.c ****         /* Wait for ready flag. */
 1165              		.loc 1 354 33 is_stmt 0 view .LVU243
 1166 00ca 4FF4FE23 		mov	r3, #520192
 1167 00ce 164A     		ldr	r2, .L128+24
 1168 00d0 C3F8DC2F 		str	r2, [r3, #4060]
 356:hc32_ll_driver/src/hc32_ll_efm.c ****             i32Ret = LL_ERR_NOT_RDY;
 1169              		.loc 1 356 9 is_stmt 1 view .LVU244
 356:hc32_ll_driver/src/hc32_ll_efm.c ****             i32Ret = LL_ERR_NOT_RDY;
 1170              		.loc 1 356 58 is_stmt 0 view .LVU245
 1171 00d4 104B     		ldr	r3, .L128+8
 1172 00d6 1B6A     		ldr	r3, [r3, #32]
 1173 00d8 C3F30263 		ubfx	r3, r3, #24, #3
 1174 00dc 0F4A     		ldr	r2, .L128+12
ARM GAS  C:\Users\mkand\AppData\Local\Temp\cc6Q7h6g.s 			page 32


 1175 00de 1168     		ldr	r1, [r2]
 1176 00e0 D940     		lsrs	r1, r1, r3
 356:hc32_ll_driver/src/hc32_ll_efm.c ****             i32Ret = LL_ERR_NOT_RDY;
 1177              		.loc 1 356 31 view .LVU246
 1178 00e2 124B     		ldr	r3, .L128+28
 1179 00e4 A3FB0131 		umull	r3, r1, r3, r1
 1180 00e8 890B     		lsrs	r1, r1, #14
 1181 00ea 4FF48070 		mov	r0, #256
 1182 00ee FFF7FEFF 		bl	EFM_WaitFlag
 1183              	.LVL99:
 356:hc32_ll_driver/src/hc32_ll_efm.c ****             i32Ret = LL_ERR_NOT_RDY;
 1184              		.loc 1 356 12 view .LVU247
 1185 00f2 10F1080F 		cmn	r0, #8
 1186 00f6 04D0     		beq	.L121
 338:hc32_ll_driver/src/hc32_ll_efm.c ****     uint32_t u32Tmp;
 1187              		.loc 1 338 13 view .LVU248
 1188 00f8 0024     		movs	r4, #0
 1189              	.L118:
 1190              	.LVL100:
 360:hc32_ll_driver/src/hc32_ll_efm.c ****     } else {
 1191              		.loc 1 360 9 is_stmt 1 view .LVU249
 1192 00fa 1020     		movs	r0, #16
 1193 00fc FFF7FEFF 		bl	EFM_ClearStatus
 1194              	.LVL101:
 1195 0100 BDE7     		b	.L119
 1196              	.LVL102:
 1197              	.L121:
 357:hc32_ll_driver/src/hc32_ll_efm.c ****         }
 1198              		.loc 1 357 20 is_stmt 0 view .LVU250
 1199 0102 6FF00404 		mvn	r4, #4
 1200 0106 F8E7     		b	.L118
 1201              	.L122:
 368:hc32_ll_driver/src/hc32_ll_efm.c ****         }
 1202              		.loc 1 368 20 view .LVU251
 1203 0108 6FF00404 		mvn	r4, #4
 1204 010c B4E7     		b	.L120
 1205              	.L129:
 1206 010e 00BF     		.align	2
 1207              	.L128:
 1208 0110 00040140 		.word	1073808384
 1209 0114 00802042 		.word	1109426176
 1210 0118 00400540 		.word	1074085888
 1211 011c 00000000 		.word	SystemCoreClock
 1212 0120 1F85EB51 		.word	1374389535
 1213 0124 00000000 		.word	.LC0
 1214 0128 2143FFFF 		.word	-48351
 1215 012c 5917B7D1 		.word	-776530087
 1216              		.cfi_endproc
 1217              	.LFE143:
 1219              		.section	.text.EFM_SetBusStatus,"ax",%progbits
 1220              		.align	1
 1221              		.global	EFM_SetBusStatus
 1222              		.syntax unified
 1223              		.thumb
 1224              		.thumb_func
 1226              	EFM_SetBusStatus:
 1227              	.LVL103:
ARM GAS  C:\Users\mkand\AppData\Local\Temp\cc6Q7h6g.s 			page 33


 1228              	.LFB151:
 493:hc32_ll_driver/src/hc32_ll_efm.c **** 
 494:hc32_ll_driver/src/hc32_ll_efm.c **** /**
 495:hc32_ll_driver/src/hc32_ll_efm.c ****  * @brief  Set bus status while flash program or erase.
 496:hc32_ll_driver/src/hc32_ll_efm.c ****  * @param  [in] u32Status                  Specifies the new bus status while flash program or eras
 497:hc32_ll_driver/src/hc32_ll_efm.c ****  *  This parameter can be one of the following values:
 498:hc32_ll_driver/src/hc32_ll_efm.c ****  *   @arg  EFM_BUS_HOLD:                   Bus busy while flash program or erase.
 499:hc32_ll_driver/src/hc32_ll_efm.c ****  *   @arg  EFM_BUS_RELEASE:                Bus release while flash program or erase.
 500:hc32_ll_driver/src/hc32_ll_efm.c ****  * @retval None
 501:hc32_ll_driver/src/hc32_ll_efm.c ****  */
 502:hc32_ll_driver/src/hc32_ll_efm.c **** void EFM_SetBusStatus(uint32_t u32Status)
 503:hc32_ll_driver/src/hc32_ll_efm.c **** {
 1229              		.loc 1 503 1 is_stmt 1 view -0
 1230              		.cfi_startproc
 1231              		@ args = 0, pretend = 0, frame = 0
 1232              		@ frame_needed = 0, uses_anonymous_args = 0
 1233              		.loc 1 503 1 is_stmt 0 view .LVU253
 1234 0000 10B5     		push	{r4, lr}
 1235              	.LCFI15:
 1236              		.cfi_def_cfa_offset 8
 1237              		.cfi_offset 4, -8
 1238              		.cfi_offset 14, -4
 1239 0002 0446     		mov	r4, r0
 504:hc32_ll_driver/src/hc32_ll_efm.c ****     DDL_ASSERT(IS_EFM_REG_UNLOCK());
 1240              		.loc 1 504 5 is_stmt 1 view .LVU254
 1241              		.loc 1 504 5 view .LVU255
 1242 0004 104B     		ldr	r3, .L138
 1243 0006 1B68     		ldr	r3, [r3]
 1244 0008 012B     		cmp	r3, #1
 1245 000a 0AD1     		bne	.L135
 1246              	.LVL104:
 1247              	.L131:
 1248              		.loc 1 504 5 discriminator 3 view .LVU256
 505:hc32_ll_driver/src/hc32_ll_efm.c ****     DDL_ASSERT(IS_EFM_BUS_STATUS(u32Status));
 1249              		.loc 1 505 5 discriminator 3 view .LVU257
 1250              		.loc 1 505 5 discriminator 3 view .LVU258
 1251 000c 012C     		cmp	r4, #1
 1252 000e 0ED8     		bhi	.L136
 1253              	.L132:
 1254              		.loc 1 505 5 discriminator 3 view .LVU259
 506:hc32_ll_driver/src/hc32_ll_efm.c ****     DDL_ASSERT(IS_EFM_FWMC_UNLOCK());
 1255              		.loc 1 506 5 discriminator 3 view .LVU260
 1256              		.loc 1 506 5 discriminator 3 view .LVU261
 1257 0010 0E4B     		ldr	r3, .L138+4
 1258 0012 D3F88031 		ldr	r3, [r3, #384]
 1259 0016 012B     		cmp	r3, #1
 1260 0018 0FD1     		bne	.L137
 1261              	.L133:
 1262              		.loc 1 506 5 discriminator 3 view .LVU262
 507:hc32_ll_driver/src/hc32_ll_efm.c **** 
 508:hc32_ll_driver/src/hc32_ll_efm.c ****     WRITE_REG32(bCM_EFM->FWMC_b.BUSHLDCTL, u32Status);
 1263              		.loc 1 508 5 discriminator 3 view .LVU263
 1264 001a 0C4B     		ldr	r3, .L138+4
 1265 001c C3F8A041 		str	r4, [r3, #416]
 509:hc32_ll_driver/src/hc32_ll_efm.c **** }
 1266              		.loc 1 509 1 is_stmt 0 discriminator 3 view .LVU264
 1267 0020 10BD     		pop	{r4, pc}
ARM GAS  C:\Users\mkand\AppData\Local\Temp\cc6Q7h6g.s 			page 34


 1268              	.LVL105:
 1269              	.L135:
 504:hc32_ll_driver/src/hc32_ll_efm.c ****     DDL_ASSERT(IS_EFM_BUS_STATUS(u32Status));
 1270              		.loc 1 504 5 discriminator 1 view .LVU265
 1271 0022 4FF4FC71 		mov	r1, #504
 1272 0026 0A48     		ldr	r0, .L138+8
 1273              	.LVL106:
 504:hc32_ll_driver/src/hc32_ll_efm.c ****     DDL_ASSERT(IS_EFM_BUS_STATUS(u32Status));
 1274              		.loc 1 504 5 discriminator 1 view .LVU266
 1275 0028 FFF7FEFF 		bl	DDL_AssertHandler
 1276              	.LVL107:
 1277 002c EEE7     		b	.L131
 1278              	.L136:
 505:hc32_ll_driver/src/hc32_ll_efm.c ****     DDL_ASSERT(IS_EFM_FWMC_UNLOCK());
 1279              		.loc 1 505 5 discriminator 1 view .LVU267
 1280 002e 40F2F911 		movw	r1, #505
 1281 0032 0748     		ldr	r0, .L138+8
 1282 0034 FFF7FEFF 		bl	DDL_AssertHandler
 1283              	.LVL108:
 1284 0038 EAE7     		b	.L132
 1285              	.L137:
 506:hc32_ll_driver/src/hc32_ll_efm.c **** 
 1286              		.loc 1 506 5 discriminator 1 view .LVU268
 1287 003a 4FF4FD71 		mov	r1, #506
 1288 003e 0448     		ldr	r0, .L138+8
 1289 0040 FFF7FEFF 		bl	DDL_AssertHandler
 1290              	.LVL109:
 1291 0044 E9E7     		b	.L133
 1292              	.L139:
 1293 0046 00BF     		.align	2
 1294              	.L138:
 1295 0048 00040140 		.word	1073808384
 1296 004c 00802042 		.word	1109426176
 1297 0050 00000000 		.word	.LC0
 1298              		.cfi_endproc
 1299              	.LFE151:
 1301              		.section	.text.EFM_ReadByte,"ax",%progbits
 1302              		.align	1
 1303              		.global	EFM_ReadByte
 1304              		.syntax unified
 1305              		.thumb
 1306              		.thumb_func
 1308              	EFM_ReadByte:
 1309              	.LVL110:
 1310              	.LFB152:
 510:hc32_ll_driver/src/hc32_ll_efm.c **** 
 511:hc32_ll_driver/src/hc32_ll_efm.c **** /**
 512:hc32_ll_driver/src/hc32_ll_efm.c ****  * @brief  EFM read byte.
 513:hc32_ll_driver/src/hc32_ll_efm.c ****  * @param  [in] u32Addr               The specified address to read.
 514:hc32_ll_driver/src/hc32_ll_efm.c ****  * @param  [in] pu8ReadBuf            The specified read buffer.
 515:hc32_ll_driver/src/hc32_ll_efm.c ****  * @param  [in] u32ByteLen            The specified length to read.
 516:hc32_ll_driver/src/hc32_ll_efm.c ****  * @retval int32_t:
 517:hc32_ll_driver/src/hc32_ll_efm.c ****  *         - LL_OK: Read successfully
 518:hc32_ll_driver/src/hc32_ll_efm.c ****  *         - LL_ERR_INVD_PARAM: Invalid parameter
 519:hc32_ll_driver/src/hc32_ll_efm.c ****  *         - LL_ERR_NOT_RDY: EFM is not ready.
 520:hc32_ll_driver/src/hc32_ll_efm.c ****  */
 521:hc32_ll_driver/src/hc32_ll_efm.c **** int32_t EFM_ReadByte(uint32_t u32Addr, uint8_t *pu8ReadBuf, uint32_t u32ByteLen)
ARM GAS  C:\Users\mkand\AppData\Local\Temp\cc6Q7h6g.s 			page 35


 522:hc32_ll_driver/src/hc32_ll_efm.c **** {
 1311              		.loc 1 522 1 is_stmt 1 view -0
 1312              		.cfi_startproc
 1313              		@ args = 0, pretend = 0, frame = 0
 1314              		@ frame_needed = 0, uses_anonymous_args = 0
 1315              		.loc 1 522 1 is_stmt 0 view .LVU270
 1316 0000 F8B5     		push	{r3, r4, r5, r6, r7, lr}
 1317              	.LCFI16:
 1318              		.cfi_def_cfa_offset 24
 1319              		.cfi_offset 3, -24
 1320              		.cfi_offset 4, -20
 1321              		.cfi_offset 5, -16
 1322              		.cfi_offset 6, -12
 1323              		.cfi_offset 7, -8
 1324              		.cfi_offset 14, -4
 1325 0002 0746     		mov	r7, r0
 1326 0004 0C46     		mov	r4, r1
 1327 0006 1646     		mov	r6, r2
 523:hc32_ll_driver/src/hc32_ll_efm.c ****     int32_t i32Ret = LL_ERR_INVD_PARAM;
 1328              		.loc 1 523 5 is_stmt 1 view .LVU271
 1329              	.LVL111:
 524:hc32_ll_driver/src/hc32_ll_efm.c ****     __IO uint8_t *pu8Buf = (uint8_t *)u32Addr;
 1330              		.loc 1 524 5 view .LVU272
 1331              		.loc 1 524 19 is_stmt 0 view .LVU273
 1332 0008 0546     		mov	r5, r0
 1333              	.LVL112:
 525:hc32_ll_driver/src/hc32_ll_efm.c ****     uint32_t u32Len = u32ByteLen;
 1334              		.loc 1 525 5 is_stmt 1 view .LVU274
 526:hc32_ll_driver/src/hc32_ll_efm.c ****     uint32_t u32ReadyFlag = EFM_FLAG_RDY;
 1335              		.loc 1 526 5 view .LVU275
 527:hc32_ll_driver/src/hc32_ll_efm.c **** 
 528:hc32_ll_driver/src/hc32_ll_efm.c ****     DDL_ASSERT(IS_EFM_ADDR(u32Addr));
 1336              		.loc 1 528 5 view .LVU276
 1337              		.loc 1 528 5 view .LVU277
 1338 000a B0F5002F 		cmp	r0, #524288
 1339 000e 0AD3     		bcc	.L141
 1340              		.loc 1 528 5 is_stmt 0 discriminator 1 view .LVU278
 1341 0010 00F17D43 		add	r3, r0, #-50331648
 1342 0014 A3F54063 		sub	r3, r3, #3072
 1343 0018 B3F57F7F 		cmp	r3, #1020
 1344 001c 03D3     		bcc	.L141
 1345              		.loc 1 528 5 discriminator 3 view .LVU279
 1346 001e 214B     		ldr	r3, .L150
 1347 0020 0344     		add	r3, r3, r0
 1348 0022 1F2B     		cmp	r3, #31
 1349 0024 23D8     		bhi	.L148
 1350              	.LVL113:
 1351              	.L141:
 1352              		.loc 1 528 5 is_stmt 1 discriminator 7 view .LVU280
 529:hc32_ll_driver/src/hc32_ll_efm.c ****     DDL_ASSERT(IS_EFM_ADDR(u32Addr + u32ByteLen - 1UL));
 1353              		.loc 1 529 5 discriminator 7 view .LVU281
 1354              		.loc 1 529 5 discriminator 7 view .LVU282
 1355 0026 3744     		add	r7, r7, r6
 1356 0028 7B1E     		subs	r3, r7, #1
 1357 002a B3F5002F 		cmp	r3, #524288
 1358 002e 0AD3     		bcc	.L142
 1359              		.loc 1 529 5 is_stmt 0 discriminator 1 view .LVU283
ARM GAS  C:\Users\mkand\AppData\Local\Temp\cc6Q7h6g.s 			page 36


 1360 0030 07F17D43 		add	r3, r7, #-50331648
 1361 0034 A3F60143 		subw	r3, r3, #3073
 1362 0038 B3F57F7F 		cmp	r3, #1020
 1363 003c 03D3     		bcc	.L142
 1364              		.loc 1 529 5 discriminator 3 view .LVU284
 1365 003e 1A4B     		ldr	r3, .L150+4
 1366 0040 3B44     		add	r3, r3, r7
 1367 0042 1F2B     		cmp	r3, #31
 1368 0044 19D8     		bhi	.L149
 1369              	.L142:
 1370              		.loc 1 529 5 is_stmt 1 discriminator 7 view .LVU285
 530:hc32_ll_driver/src/hc32_ll_efm.c **** 
 531:hc32_ll_driver/src/hc32_ll_efm.c ****     if (NULL != pu8ReadBuf) {
 1371              		.loc 1 531 5 discriminator 7 view .LVU286
 1372              		.loc 1 531 8 is_stmt 0 discriminator 7 view .LVU287
 1373 0046 54B3     		cbz	r4, .L146
 532:hc32_ll_driver/src/hc32_ll_efm.c **** 
 533:hc32_ll_driver/src/hc32_ll_efm.c ****         if (LL_OK == EFM_WaitFlag(u32ReadyFlag, EFM_TIMEOUT)) {
 1374              		.loc 1 533 9 is_stmt 1 view .LVU288
 1375              		.loc 1 533 49 is_stmt 0 view .LVU289
 1376 0048 184B     		ldr	r3, .L150+8
 1377 004a 1B6A     		ldr	r3, [r3, #32]
 1378 004c C3F30263 		ubfx	r3, r3, #24, #3
 1379 0050 174A     		ldr	r2, .L150+12
 1380 0052 1168     		ldr	r1, [r2]
 1381 0054 D940     		lsrs	r1, r1, r3
 1382              		.loc 1 533 22 view .LVU290
 1383 0056 174B     		ldr	r3, .L150+16
 1384 0058 A3FB0131 		umull	r3, r1, r3, r1
 1385 005c 890B     		lsrs	r1, r1, #14
 1386 005e 4FF48070 		mov	r0, #256
 1387 0062 FFF7FEFF 		bl	EFM_WaitFlag
 1388              	.LVL114:
 1389              		.loc 1 533 12 view .LVU291
 1390 0066 B8B1     		cbz	r0, .L144
 534:hc32_ll_driver/src/hc32_ll_efm.c ****             while (0UL != u32Len) {
 535:hc32_ll_driver/src/hc32_ll_efm.c ****                 *(pu8ReadBuf++) = *(pu8Buf++);
 536:hc32_ll_driver/src/hc32_ll_efm.c ****                 u32Len--;
 537:hc32_ll_driver/src/hc32_ll_efm.c ****             }
 538:hc32_ll_driver/src/hc32_ll_efm.c ****             i32Ret = LL_OK;
 539:hc32_ll_driver/src/hc32_ll_efm.c ****         } else {
 540:hc32_ll_driver/src/hc32_ll_efm.c ****             i32Ret = LL_ERR_NOT_RDY;
 1391              		.loc 1 540 20 view .LVU292
 1392 0068 6FF00400 		mvn	r0, #4
 1393 006c 16E0     		b	.L140
 1394              	.LVL115:
 1395              	.L148:
 528:hc32_ll_driver/src/hc32_ll_efm.c ****     DDL_ASSERT(IS_EFM_ADDR(u32Addr + u32ByteLen - 1UL));
 1396              		.loc 1 528 5 discriminator 5 view .LVU293
 1397 006e 4FF40471 		mov	r1, #528
 1398              	.LVL116:
 528:hc32_ll_driver/src/hc32_ll_efm.c ****     DDL_ASSERT(IS_EFM_ADDR(u32Addr + u32ByteLen - 1UL));
 1399              		.loc 1 528 5 discriminator 5 view .LVU294
 1400 0072 1148     		ldr	r0, .L150+20
 1401              	.LVL117:
 528:hc32_ll_driver/src/hc32_ll_efm.c ****     DDL_ASSERT(IS_EFM_ADDR(u32Addr + u32ByteLen - 1UL));
 1402              		.loc 1 528 5 discriminator 5 view .LVU295
ARM GAS  C:\Users\mkand\AppData\Local\Temp\cc6Q7h6g.s 			page 37


 1403 0074 FFF7FEFF 		bl	DDL_AssertHandler
 1404              	.LVL118:
 528:hc32_ll_driver/src/hc32_ll_efm.c ****     DDL_ASSERT(IS_EFM_ADDR(u32Addr + u32ByteLen - 1UL));
 1405              		.loc 1 528 5 discriminator 5 view .LVU296
 1406 0078 D5E7     		b	.L141
 1407              	.L149:
 529:hc32_ll_driver/src/hc32_ll_efm.c **** 
 1408              		.loc 1 529 5 discriminator 5 view .LVU297
 1409 007a 40F21121 		movw	r1, #529
 1410 007e 0E48     		ldr	r0, .L150+20
 1411 0080 FFF7FEFF 		bl	DDL_AssertHandler
 1412              	.LVL119:
 1413 0084 DFE7     		b	.L142
 1414              	.LVL120:
 1415              	.L145:
 535:hc32_ll_driver/src/hc32_ll_efm.c ****                 u32Len--;
 1416              		.loc 1 535 17 is_stmt 1 view .LVU298
 535:hc32_ll_driver/src/hc32_ll_efm.c ****                 u32Len--;
 1417              		.loc 1 535 43 is_stmt 0 view .LVU299
 1418 0086 2B46     		mov	r3, r5
 1419              	.LVL121:
 535:hc32_ll_driver/src/hc32_ll_efm.c ****                 u32Len--;
 1420              		.loc 1 535 29 view .LVU300
 1421 0088 2146     		mov	r1, r4
 1422              	.LVL122:
 535:hc32_ll_driver/src/hc32_ll_efm.c ****                 u32Len--;
 1423              		.loc 1 535 35 view .LVU301
 1424 008a 13F8012B 		ldrb	r2, [r3], #1	@ zero_extendqisi2
 1425              	.LVL123:
 535:hc32_ll_driver/src/hc32_ll_efm.c ****                 u32Len--;
 1426              		.loc 1 535 33 view .LVU302
 1427 008e 01F8012B 		strb	r2, [r1], #1
 1428              	.LVL124:
 536:hc32_ll_driver/src/hc32_ll_efm.c ****             }
 1429              		.loc 1 536 17 is_stmt 1 view .LVU303
 536:hc32_ll_driver/src/hc32_ll_efm.c ****             }
 1430              		.loc 1 536 23 is_stmt 0 view .LVU304
 1431 0092 013E     		subs	r6, r6, #1
 1432              	.LVL125:
 535:hc32_ll_driver/src/hc32_ll_efm.c ****                 u32Len--;
 1433              		.loc 1 535 43 view .LVU305
 1434 0094 1D46     		mov	r5, r3
 535:hc32_ll_driver/src/hc32_ll_efm.c ****                 u32Len--;
 1435              		.loc 1 535 29 view .LVU306
 1436 0096 0C46     		mov	r4, r1
 1437              	.LVL126:
 1438              	.L144:
 534:hc32_ll_driver/src/hc32_ll_efm.c ****                 *(pu8ReadBuf++) = *(pu8Buf++);
 1439              		.loc 1 534 24 is_stmt 1 view .LVU307
 1440 0098 002E     		cmp	r6, #0
 1441 009a F4D1     		bne	.L145
 1442              	.L140:
 541:hc32_ll_driver/src/hc32_ll_efm.c ****         }
 542:hc32_ll_driver/src/hc32_ll_efm.c ****     }
 543:hc32_ll_driver/src/hc32_ll_efm.c **** 
 544:hc32_ll_driver/src/hc32_ll_efm.c ****     return i32Ret;
 545:hc32_ll_driver/src/hc32_ll_efm.c **** }
ARM GAS  C:\Users\mkand\AppData\Local\Temp\cc6Q7h6g.s 			page 38


 1443              		.loc 1 545 1 is_stmt 0 view .LVU308
 1444 009c F8BD     		pop	{r3, r4, r5, r6, r7, pc}
 1445              	.LVL127:
 1446              	.L146:
 523:hc32_ll_driver/src/hc32_ll_efm.c ****     __IO uint8_t *pu8Buf = (uint8_t *)u32Addr;
 1447              		.loc 1 523 13 view .LVU309
 1448 009e 6FF00200 		mvn	r0, #2
 544:hc32_ll_driver/src/hc32_ll_efm.c **** }
 1449              		.loc 1 544 5 is_stmt 1 view .LVU310
 544:hc32_ll_driver/src/hc32_ll_efm.c **** }
 1450              		.loc 1 544 12 is_stmt 0 view .LVU311
 1451 00a2 FBE7     		b	.L140
 1452              	.L151:
 1453              		.align	2
 1454              	.L150:
 1455 00a4 2000E8FC 		.word	-51904480
 1456 00a8 1F00E8FC 		.word	-51904481
 1457 00ac 00400540 		.word	1074085888
 1458 00b0 00000000 		.word	SystemCoreClock
 1459 00b4 5917B7D1 		.word	-776530087
 1460 00b8 00000000 		.word	.LC0
 1461              		.cfi_endproc
 1462              	.LFE152:
 1464              		.section	.text.EFM_Program,"ax",%progbits
 1465              		.align	1
 1466              		.global	EFM_Program
 1467              		.syntax unified
 1468              		.thumb
 1469              		.thumb_func
 1471              	EFM_Program:
 1472              	.LVL128:
 1473              	.LFB153:
 546:hc32_ll_driver/src/hc32_ll_efm.c **** 
 547:hc32_ll_driver/src/hc32_ll_efm.c **** /**
 548:hc32_ll_driver/src/hc32_ll_efm.c ****  * @brief  EFM program (single program mode).
 549:hc32_ll_driver/src/hc32_ll_efm.c ****  * @param  [in] u32Addr                   The specified program address.
 550:hc32_ll_driver/src/hc32_ll_efm.c ****  * @param  [in] pu8Buf                    The pointer of specified program data.
 551:hc32_ll_driver/src/hc32_ll_efm.c ****  * @param  [in] u32Len                    The length of specified program data.
 552:hc32_ll_driver/src/hc32_ll_efm.c ****  * @retval int32_t:
 553:hc32_ll_driver/src/hc32_ll_efm.c ****  *         - LL_OK: Program successful.
 554:hc32_ll_driver/src/hc32_ll_efm.c ****  *         - LL_ERR_NOT_RDY: EFM if not ready.
 555:hc32_ll_driver/src/hc32_ll_efm.c ****  * @note  Call EFM_REG_Unlock() unlock EFM register first.
 556:hc32_ll_driver/src/hc32_ll_efm.c ****  */
 557:hc32_ll_driver/src/hc32_ll_efm.c **** int32_t EFM_Program(uint32_t u32Addr, uint8_t *pu8Buf, uint32_t u32Len)
 558:hc32_ll_driver/src/hc32_ll_efm.c **** {
 1474              		.loc 1 558 1 is_stmt 1 view -0
 1475              		.cfi_startproc
 1476              		@ args = 0, pretend = 0, frame = 0
 1477              		@ frame_needed = 0, uses_anonymous_args = 0
 1478              		.loc 1 558 1 is_stmt 0 view .LVU313
 1479 0000 2DE9F047 		push	{r4, r5, r6, r7, r8, r9, r10, lr}
 1480              	.LCFI17:
 1481              		.cfi_def_cfa_offset 32
 1482              		.cfi_offset 4, -32
 1483              		.cfi_offset 5, -28
 1484              		.cfi_offset 6, -24
 1485              		.cfi_offset 7, -20
ARM GAS  C:\Users\mkand\AppData\Local\Temp\cc6Q7h6g.s 			page 39


 1486              		.cfi_offset 8, -16
 1487              		.cfi_offset 9, -12
 1488              		.cfi_offset 10, -8
 1489              		.cfi_offset 14, -4
 1490 0004 0746     		mov	r7, r0
 1491 0006 0C46     		mov	r4, r1
 1492 0008 1646     		mov	r6, r2
 559:hc32_ll_driver/src/hc32_ll_efm.c ****     int32_t i32Ret = LL_OK;
 1493              		.loc 1 559 5 is_stmt 1 view .LVU314
 1494              	.LVL129:
 560:hc32_ll_driver/src/hc32_ll_efm.c ****     uint32_t u32Tmp;
 1495              		.loc 1 560 5 view .LVU315
 561:hc32_ll_driver/src/hc32_ll_efm.c ****     uint8_t u8Shift;
 1496              		.loc 1 561 5 view .LVU316
 562:hc32_ll_driver/src/hc32_ll_efm.c ****     uint32_t u32LoopWords = u32Len >> 2UL;
 1497              		.loc 1 562 5 view .LVU317
 1498              		.loc 1 562 14 is_stmt 0 view .LVU318
 1499 000a 4FEA920A 		lsr	r10, r2, #2
 1500              	.LVL130:
 563:hc32_ll_driver/src/hc32_ll_efm.c ****     uint32_t u32RemainBytes = u32Len % 4UL;
 1501              		.loc 1 563 5 is_stmt 1 view .LVU319
 1502              		.loc 1 563 14 is_stmt 0 view .LVU320
 1503 000e 02F00309 		and	r9, r2, #3
 1504              	.LVL131:
 564:hc32_ll_driver/src/hc32_ll_efm.c ****     uint32_t *u32pSource = (uint32_t *)(uint32_t)pu8Buf;
 1505              		.loc 1 564 5 is_stmt 1 view .LVU321
 565:hc32_ll_driver/src/hc32_ll_efm.c ****     uint32_t *u32pDest = (uint32_t *)u32Addr;
 1506              		.loc 1 565 5 view .LVU322
 1507              		.loc 1 565 15 is_stmt 0 view .LVU323
 1508 0012 0546     		mov	r5, r0
 1509              	.LVL132:
 566:hc32_ll_driver/src/hc32_ll_efm.c ****     uint32_t u32LastWord;
 1510              		.loc 1 566 5 is_stmt 1 view .LVU324
 567:hc32_ll_driver/src/hc32_ll_efm.c **** 
 568:hc32_ll_driver/src/hc32_ll_efm.c ****     DDL_ASSERT(IS_EFM_REG_UNLOCK());
 1511              		.loc 1 568 5 view .LVU325
 1512              		.loc 1 568 5 view .LVU326
 1513 0014 5B4B     		ldr	r3, .L174
 1514 0016 1B68     		ldr	r3, [r3]
 1515 0018 012B     		cmp	r3, #1
 1516 001a 3DD1     		bne	.L166
 1517              	.LVL133:
 1518              	.L153:
 1519              		.loc 1 568 5 discriminator 3 view .LVU327
 569:hc32_ll_driver/src/hc32_ll_efm.c ****     DDL_ASSERT(IS_EFM_FWMC_UNLOCK());
 1520              		.loc 1 569 5 discriminator 3 view .LVU328
 1521              		.loc 1 569 5 discriminator 3 view .LVU329
 1522 001c 5A4B     		ldr	r3, .L174+4
 1523 001e D3F88031 		ldr	r3, [r3, #384]
 1524 0022 012B     		cmp	r3, #1
 1525 0024 3ED1     		bne	.L167
 1526              	.L154:
 1527              		.loc 1 569 5 discriminator 3 view .LVU330
 570:hc32_ll_driver/src/hc32_ll_efm.c ****     DDL_ASSERT(IS_EFM_ADDR(u32Addr));
 1528              		.loc 1 570 5 discriminator 3 view .LVU331
 1529              		.loc 1 570 5 discriminator 3 view .LVU332
 1530 0026 B7F5002F 		cmp	r7, #524288
ARM GAS  C:\Users\mkand\AppData\Local\Temp\cc6Q7h6g.s 			page 40


 1531 002a 0AD3     		bcc	.L155
 1532              		.loc 1 570 5 is_stmt 0 discriminator 1 view .LVU333
 1533 002c 07F17D43 		add	r3, r7, #-50331648
 1534 0030 A3F54063 		sub	r3, r3, #3072
 1535 0034 B3F57F7F 		cmp	r3, #1020
 1536 0038 03D3     		bcc	.L155
 1537              		.loc 1 570 5 discriminator 3 view .LVU334
 1538 003a 544B     		ldr	r3, .L174+8
 1539 003c 3B44     		add	r3, r3, r7
 1540 003e 1F2B     		cmp	r3, #31
 1541 0040 36D8     		bhi	.L168
 1542              	.L155:
 1543              		.loc 1 570 5 is_stmt 1 discriminator 7 view .LVU335
 571:hc32_ll_driver/src/hc32_ll_efm.c ****     DDL_ASSERT(IS_EFM_ADDR(u32Addr + u32Len - 1UL));
 1544              		.loc 1 571 5 discriminator 7 view .LVU336
 1545              		.loc 1 571 5 discriminator 7 view .LVU337
 1546 0042 3E44     		add	r6, r6, r7
 1547              	.LVL134:
 1548              		.loc 1 571 5 is_stmt 0 discriminator 7 view .LVU338
 1549 0044 731E     		subs	r3, r6, #1
 1550 0046 B3F5002F 		cmp	r3, #524288
 1551 004a 0AD3     		bcc	.L156
 1552              		.loc 1 571 5 discriminator 1 view .LVU339
 1553 004c 06F17D43 		add	r3, r6, #-50331648
 1554 0050 A3F60143 		subw	r3, r3, #3073
 1555 0054 B3F57F7F 		cmp	r3, #1020
 1556 0058 03D3     		bcc	.L156
 1557              		.loc 1 571 5 discriminator 3 view .LVU340
 1558 005a 4D4B     		ldr	r3, .L174+12
 1559 005c 3344     		add	r3, r3, r6
 1560 005e 1F2B     		cmp	r3, #31
 1561 0060 2CD8     		bhi	.L169
 1562              	.L156:
 1563              		.loc 1 571 5 is_stmt 1 discriminator 7 view .LVU341
 572:hc32_ll_driver/src/hc32_ll_efm.c ****     DDL_ASSERT(IS_ADDR_ALIGN_WORD(u32Addr));
 1564              		.loc 1 572 5 discriminator 7 view .LVU342
 1565              		.loc 1 572 5 discriminator 7 view .LVU343
 1566 0062 17F0030F 		tst	r7, #3
 1567 0066 2FD1     		bne	.L170
 1568              	.L157:
 1569              		.loc 1 572 5 discriminator 3 view .LVU344
 573:hc32_ll_driver/src/hc32_ll_efm.c **** 
 574:hc32_ll_driver/src/hc32_ll_efm.c ****     u8Shift = 0U;
 1570              		.loc 1 574 5 discriminator 3 view .LVU345
 1571              	.LVL135:
 575:hc32_ll_driver/src/hc32_ll_efm.c **** 
 576:hc32_ll_driver/src/hc32_ll_efm.c ****     /* CLear the error flag. */
 577:hc32_ll_driver/src/hc32_ll_efm.c ****     EFM_ClearStatus(EFM_FLAG_ALL);
 1572              		.loc 1 577 5 discriminator 3 view .LVU346
 1573 0068 40F23F10 		movw	r0, #319
 1574 006c FFF7FEFF 		bl	EFM_ClearStatus
 1575              	.LVL136:
 578:hc32_ll_driver/src/hc32_ll_efm.c ****     /* Get CACHE status */
 579:hc32_ll_driver/src/hc32_ll_efm.c ****     u32Tmp = READ_REG32_BIT(CM_EFM->FRMC, EFM_CACHE_ALL);
 1576              		.loc 1 579 5 discriminator 3 view .LVU347
 1577              		.loc 1 579 14 is_stmt 0 discriminator 3 view .LVU348
 1578 0070 444B     		ldr	r3, .L174
ARM GAS  C:\Users\mkand\AppData\Local\Temp\cc6Q7h6g.s 			page 41


 1579 0072 9A68     		ldr	r2, [r3, #8]
 1580              		.loc 1 579 12 discriminator 3 view .LVU349
 1581 0074 DFF82C81 		ldr	r8, .L174+32
 1582 0078 02EA0808 		and	r8, r2, r8
 1583              	.LVL137:
 580:hc32_ll_driver/src/hc32_ll_efm.c ****     /* Disable CACHE */
 581:hc32_ll_driver/src/hc32_ll_efm.c ****     CLR_REG32_BIT(CM_EFM->FRMC, EFM_CACHE_ALL);
 1584              		.loc 1 581 5 is_stmt 1 discriminator 3 view .LVU350
 1585 007c 9A68     		ldr	r2, [r3, #8]
 1586 007e 22F08072 		bic	r2, r2, #16777216
 1587 0082 22F48032 		bic	r2, r2, #65536
 1588 0086 9A60     		str	r2, [r3, #8]
 582:hc32_ll_driver/src/hc32_ll_efm.c **** 
 583:hc32_ll_driver/src/hc32_ll_efm.c ****     /* Set single program mode. */
 584:hc32_ll_driver/src/hc32_ll_efm.c ****     MODIFY_REG32(CM_EFM->FWMC, EFM_FWMC_PEMOD, EFM_MD_PGM_SINGLE);
 1589              		.loc 1 584 5 discriminator 3 view .LVU351
 1590 0088 DA68     		ldr	r2, [r3, #12]
 1591 008a 22F07002 		bic	r2, r2, #112
 1592 008e 42F01002 		orr	r2, r2, #16
 1593 0092 DA60     		str	r2, [r3, #12]
 585:hc32_ll_driver/src/hc32_ll_efm.c **** 
 586:hc32_ll_driver/src/hc32_ll_efm.c ****     while (u32LoopWords-- > 0UL) {
 1594              		.loc 1 586 5 discriminator 3 view .LVU352
 559:hc32_ll_driver/src/hc32_ll_efm.c ****     uint32_t u32Tmp;
 1595              		.loc 1 559 13 is_stmt 0 discriminator 3 view .LVU353
 1596 0094 0027     		movs	r7, #0
 1597              		.loc 1 586 11 discriminator 3 view .LVU354
 1598 0096 21E0     		b	.L158
 1599              	.LVL138:
 1600              	.L166:
 568:hc32_ll_driver/src/hc32_ll_efm.c ****     DDL_ASSERT(IS_EFM_FWMC_UNLOCK());
 1601              		.loc 1 568 5 discriminator 1 view .LVU355
 1602 0098 4FF40E71 		mov	r1, #568
 1603              	.LVL139:
 568:hc32_ll_driver/src/hc32_ll_efm.c ****     DDL_ASSERT(IS_EFM_FWMC_UNLOCK());
 1604              		.loc 1 568 5 discriminator 1 view .LVU356
 1605 009c 3D48     		ldr	r0, .L174+16
 1606              	.LVL140:
 568:hc32_ll_driver/src/hc32_ll_efm.c ****     DDL_ASSERT(IS_EFM_FWMC_UNLOCK());
 1607              		.loc 1 568 5 discriminator 1 view .LVU357
 1608 009e FFF7FEFF 		bl	DDL_AssertHandler
 1609              	.LVL141:
 568:hc32_ll_driver/src/hc32_ll_efm.c ****     DDL_ASSERT(IS_EFM_FWMC_UNLOCK());
 1610              		.loc 1 568 5 discriminator 1 view .LVU358
 1611 00a2 BBE7     		b	.L153
 1612              	.L167:
 569:hc32_ll_driver/src/hc32_ll_efm.c ****     DDL_ASSERT(IS_EFM_ADDR(u32Addr));
 1613              		.loc 1 569 5 discriminator 1 view .LVU359
 1614 00a4 40F23921 		movw	r1, #569
 1615 00a8 3A48     		ldr	r0, .L174+16
 1616 00aa FFF7FEFF 		bl	DDL_AssertHandler
 1617              	.LVL142:
 1618 00ae BAE7     		b	.L154
 1619              	.L168:
 570:hc32_ll_driver/src/hc32_ll_efm.c ****     DDL_ASSERT(IS_EFM_ADDR(u32Addr + u32Len - 1UL));
 1620              		.loc 1 570 5 discriminator 5 view .LVU360
 1621 00b0 40F23A21 		movw	r1, #570
ARM GAS  C:\Users\mkand\AppData\Local\Temp\cc6Q7h6g.s 			page 42


 1622 00b4 3748     		ldr	r0, .L174+16
 1623 00b6 FFF7FEFF 		bl	DDL_AssertHandler
 1624              	.LVL143:
 1625 00ba C2E7     		b	.L155
 1626              	.LVL144:
 1627              	.L169:
 571:hc32_ll_driver/src/hc32_ll_efm.c ****     DDL_ASSERT(IS_ADDR_ALIGN_WORD(u32Addr));
 1628              		.loc 1 571 5 discriminator 5 view .LVU361
 1629 00bc 40F23B21 		movw	r1, #571
 1630 00c0 3448     		ldr	r0, .L174+16
 1631 00c2 FFF7FEFF 		bl	DDL_AssertHandler
 1632              	.LVL145:
 1633 00c6 CCE7     		b	.L156
 1634              	.L170:
 572:hc32_ll_driver/src/hc32_ll_efm.c **** 
 1635              		.loc 1 572 5 discriminator 1 view .LVU362
 1636 00c8 4FF40F71 		mov	r1, #572
 1637 00cc 3148     		ldr	r0, .L174+16
 1638 00ce FFF7FEFF 		bl	DDL_AssertHandler
 1639              	.LVL146:
 1640 00d2 C9E7     		b	.L157
 1641              	.LVL147:
 1642              	.L159:
 587:hc32_ll_driver/src/hc32_ll_efm.c ****         /* program data. */
 588:hc32_ll_driver/src/hc32_ll_efm.c ****         *u32pDest++ = *u32pSource++;
 589:hc32_ll_driver/src/hc32_ll_efm.c ****         /* Wait for ready flag. */
 590:hc32_ll_driver/src/hc32_ll_efm.c ****         if (LL_ERR_TIMEOUT == EFM_WaitFlag(EFM_FLAG_RDY << u8Shift, EFM_PGM_TIMEOUT)) {
 591:hc32_ll_driver/src/hc32_ll_efm.c ****             i32Ret = LL_ERR_NOT_RDY;
 592:hc32_ll_driver/src/hc32_ll_efm.c ****         }
 593:hc32_ll_driver/src/hc32_ll_efm.c ****         /* CLear the operation end flag. */
 594:hc32_ll_driver/src/hc32_ll_efm.c ****         EFM_ClearStatus(EFM_FLAG_OPTEND << u8Shift);
 1643              		.loc 1 594 9 is_stmt 1 view .LVU363
 1644 00d4 1020     		movs	r0, #16
 1645 00d6 FFF7FEFF 		bl	EFM_ClearStatus
 1646              	.LVL148:
 586:hc32_ll_driver/src/hc32_ll_efm.c ****         /* program data. */
 1647              		.loc 1 586 24 is_stmt 0 view .LVU364
 1648 00da B246     		mov	r10, r6
 1649              	.LVL149:
 1650              	.L158:
 586:hc32_ll_driver/src/hc32_ll_efm.c ****         /* program data. */
 1651              		.loc 1 586 27 is_stmt 1 view .LVU365
 586:hc32_ll_driver/src/hc32_ll_efm.c ****         /* program data. */
 1652              		.loc 1 586 24 is_stmt 0 view .LVU366
 1653 00dc 0AF1FF36 		add	r6, r10, #-1
 1654              	.LVL150:
 586:hc32_ll_driver/src/hc32_ll_efm.c ****         /* program data. */
 1655              		.loc 1 586 27 view .LVU367
 1656 00e0 BAF1000F 		cmp	r10, #0
 1657 00e4 18D0     		beq	.L171
 588:hc32_ll_driver/src/hc32_ll_efm.c ****         /* Wait for ready flag. */
 1658              		.loc 1 588 9 is_stmt 1 view .LVU368
 1659              	.LVL151:
 588:hc32_ll_driver/src/hc32_ll_efm.c ****         /* Wait for ready flag. */
 1660              		.loc 1 588 23 is_stmt 0 view .LVU369
 1661 00e6 54F8043B 		ldr	r3, [r4], #4
 1662              	.LVL152:
ARM GAS  C:\Users\mkand\AppData\Local\Temp\cc6Q7h6g.s 			page 43


 588:hc32_ll_driver/src/hc32_ll_efm.c ****         /* Wait for ready flag. */
 1663              		.loc 1 588 21 view .LVU370
 1664 00ea 45F8043B 		str	r3, [r5], #4
 1665              	.LVL153:
 590:hc32_ll_driver/src/hc32_ll_efm.c ****             i32Ret = LL_ERR_NOT_RDY;
 1666              		.loc 1 590 9 is_stmt 1 view .LVU371
 590:hc32_ll_driver/src/hc32_ll_efm.c ****             i32Ret = LL_ERR_NOT_RDY;
 1667              		.loc 1 590 69 is_stmt 0 view .LVU372
 1668 00ee 2A4B     		ldr	r3, .L174+20
 1669 00f0 1B6A     		ldr	r3, [r3, #32]
 1670 00f2 C3F30263 		ubfx	r3, r3, #24, #3
 1671 00f6 294A     		ldr	r2, .L174+24
 1672 00f8 1168     		ldr	r1, [r2]
 1673 00fa D940     		lsrs	r1, r1, r3
 590:hc32_ll_driver/src/hc32_ll_efm.c ****             i32Ret = LL_ERR_NOT_RDY;
 1674              		.loc 1 590 31 view .LVU373
 1675 00fc 284B     		ldr	r3, .L174+28
 1676 00fe A3FB0131 		umull	r3, r1, r3, r1
 1677 0102 890B     		lsrs	r1, r1, #14
 1678 0104 4FF48070 		mov	r0, #256
 1679 0108 FFF7FEFF 		bl	EFM_WaitFlag
 1680              	.LVL154:
 590:hc32_ll_driver/src/hc32_ll_efm.c ****             i32Ret = LL_ERR_NOT_RDY;
 1681              		.loc 1 590 12 view .LVU374
 1682 010c 10F1080F 		cmn	r0, #8
 1683 0110 E0D1     		bne	.L159
 591:hc32_ll_driver/src/hc32_ll_efm.c ****         }
 1684              		.loc 1 591 20 view .LVU375
 1685 0112 6FF00407 		mvn	r7, #4
 1686              	.LVL155:
 591:hc32_ll_driver/src/hc32_ll_efm.c ****         }
 1687              		.loc 1 591 20 view .LVU376
 1688 0116 DDE7     		b	.L159
 1689              	.LVL156:
 1690              	.L171:
 595:hc32_ll_driver/src/hc32_ll_efm.c ****     }
 596:hc32_ll_driver/src/hc32_ll_efm.c **** 
 597:hc32_ll_driver/src/hc32_ll_efm.c ****     if (0U != u32RemainBytes) {
 1691              		.loc 1 597 5 is_stmt 1 view .LVU377
 1692              		.loc 1 597 8 is_stmt 0 view .LVU378
 1693 0118 B9F1000F 		cmp	r9, #0
 1694 011c 0FD1     		bne	.L172
 1695              	.LVL157:
 1696              	.L161:
 598:hc32_ll_driver/src/hc32_ll_efm.c ****         u32LastWord = *u32pSource;
 599:hc32_ll_driver/src/hc32_ll_efm.c ****         u32LastWord |= 0xFFFFFFFFUL << (u32RemainBytes * 8UL);
 600:hc32_ll_driver/src/hc32_ll_efm.c ****         *u32pDest++ = u32LastWord;
 601:hc32_ll_driver/src/hc32_ll_efm.c ****         /* Wait for ready flag. */
 602:hc32_ll_driver/src/hc32_ll_efm.c ****         if (LL_ERR_TIMEOUT == EFM_WaitFlag(EFM_FLAG_RDY << u8Shift, EFM_PGM_TIMEOUT)) {
 603:hc32_ll_driver/src/hc32_ll_efm.c ****             i32Ret = LL_ERR_NOT_RDY;
 604:hc32_ll_driver/src/hc32_ll_efm.c ****         }
 605:hc32_ll_driver/src/hc32_ll_efm.c ****         /* CLear the operation end flag. */
 606:hc32_ll_driver/src/hc32_ll_efm.c ****         EFM_ClearStatus(EFM_FLAG_OPTEND << u8Shift);
 607:hc32_ll_driver/src/hc32_ll_efm.c **** 
 608:hc32_ll_driver/src/hc32_ll_efm.c ****     }
 609:hc32_ll_driver/src/hc32_ll_efm.c ****     /* Set read only mode. */
 610:hc32_ll_driver/src/hc32_ll_efm.c ****     MODIFY_REG32(CM_EFM->FWMC, EFM_FWMC_PEMOD, EFM_MD_READONLY);
ARM GAS  C:\Users\mkand\AppData\Local\Temp\cc6Q7h6g.s 			page 44


 1697              		.loc 1 610 5 is_stmt 1 view .LVU379
 1698 011e 194A     		ldr	r2, .L174
 1699 0120 D368     		ldr	r3, [r2, #12]
 1700 0122 23F07003 		bic	r3, r3, #112
 1701 0126 D360     		str	r3, [r2, #12]
 611:hc32_ll_driver/src/hc32_ll_efm.c ****     /* Reset cache data */
 612:hc32_ll_driver/src/hc32_ll_efm.c ****     /* Recover CACHE function */
 613:hc32_ll_driver/src/hc32_ll_efm.c ****     MODIFY_REG32(CM_EFM->FRMC, EFM_CACHE_ALL, u32Tmp);
 1702              		.loc 1 613 5 view .LVU380
 1703 0128 9368     		ldr	r3, [r2, #8]
 1704 012a 23F08073 		bic	r3, r3, #16777216
 1705 012e 23F48033 		bic	r3, r3, #65536
 1706 0132 43EA0803 		orr	r3, r3, r8
 1707 0136 9360     		str	r3, [r2, #8]
 614:hc32_ll_driver/src/hc32_ll_efm.c ****     return i32Ret;
 1708              		.loc 1 614 5 view .LVU381
 615:hc32_ll_driver/src/hc32_ll_efm.c **** }
 1709              		.loc 1 615 1 is_stmt 0 view .LVU382
 1710 0138 3846     		mov	r0, r7
 1711 013a BDE8F087 		pop	{r4, r5, r6, r7, r8, r9, r10, pc}
 1712              	.LVL158:
 1713              	.L172:
 598:hc32_ll_driver/src/hc32_ll_efm.c ****         u32LastWord |= 0xFFFFFFFFUL << (u32RemainBytes * 8UL);
 1714              		.loc 1 598 9 is_stmt 1 view .LVU383
 598:hc32_ll_driver/src/hc32_ll_efm.c ****         u32LastWord |= 0xFFFFFFFFUL << (u32RemainBytes * 8UL);
 1715              		.loc 1 598 21 is_stmt 0 view .LVU384
 1716 013e 2268     		ldr	r2, [r4]
 1717              	.LVL159:
 599:hc32_ll_driver/src/hc32_ll_efm.c ****         *u32pDest++ = u32LastWord;
 1718              		.loc 1 599 9 is_stmt 1 view .LVU385
 599:hc32_ll_driver/src/hc32_ll_efm.c ****         *u32pDest++ = u32LastWord;
 1719              		.loc 1 599 56 is_stmt 0 view .LVU386
 1720 0140 4FEAC909 		lsl	r9, r9, #3
 1721              	.LVL160:
 599:hc32_ll_driver/src/hc32_ll_efm.c ****         *u32pDest++ = u32LastWord;
 1722              		.loc 1 599 37 view .LVU387
 1723 0144 4FF0FF33 		mov	r3, #-1
 1724 0148 03FA09F3 		lsl	r3, r3, r9
 599:hc32_ll_driver/src/hc32_ll_efm.c ****         *u32pDest++ = u32LastWord;
 1725              		.loc 1 599 21 view .LVU388
 1726 014c 1343     		orrs	r3, r3, r2
 1727              	.LVL161:
 600:hc32_ll_driver/src/hc32_ll_efm.c ****         /* Wait for ready flag. */
 1728              		.loc 1 600 9 is_stmt 1 view .LVU389
 600:hc32_ll_driver/src/hc32_ll_efm.c ****         /* Wait for ready flag. */
 1729              		.loc 1 600 21 is_stmt 0 view .LVU390
 1730 014e 2B60     		str	r3, [r5]
 602:hc32_ll_driver/src/hc32_ll_efm.c ****             i32Ret = LL_ERR_NOT_RDY;
 1731              		.loc 1 602 9 is_stmt 1 view .LVU391
 602:hc32_ll_driver/src/hc32_ll_efm.c ****             i32Ret = LL_ERR_NOT_RDY;
 1732              		.loc 1 602 69 is_stmt 0 view .LVU392
 1733 0150 114B     		ldr	r3, .L174+20
 1734              	.LVL162:
 602:hc32_ll_driver/src/hc32_ll_efm.c ****             i32Ret = LL_ERR_NOT_RDY;
 1735              		.loc 1 602 69 view .LVU393
 1736 0152 1B6A     		ldr	r3, [r3, #32]
 1737 0154 C3F30263 		ubfx	r3, r3, #24, #3
ARM GAS  C:\Users\mkand\AppData\Local\Temp\cc6Q7h6g.s 			page 45


 1738 0158 104A     		ldr	r2, .L174+24
 1739 015a 1168     		ldr	r1, [r2]
 1740 015c D940     		lsrs	r1, r1, r3
 602:hc32_ll_driver/src/hc32_ll_efm.c ****             i32Ret = LL_ERR_NOT_RDY;
 1741              		.loc 1 602 31 view .LVU394
 1742 015e 104B     		ldr	r3, .L174+28
 1743 0160 A3FB0131 		umull	r3, r1, r3, r1
 1744 0164 890B     		lsrs	r1, r1, #14
 1745 0166 4FF48070 		mov	r0, #256
 1746 016a FFF7FEFF 		bl	EFM_WaitFlag
 1747              	.LVL163:
 602:hc32_ll_driver/src/hc32_ll_efm.c ****             i32Ret = LL_ERR_NOT_RDY;
 1748              		.loc 1 602 12 view .LVU395
 1749 016e 10F1080F 		cmn	r0, #8
 1750 0172 03D0     		beq	.L173
 1751              	.LVL164:
 1752              	.L162:
 606:hc32_ll_driver/src/hc32_ll_efm.c **** 
 1753              		.loc 1 606 9 is_stmt 1 view .LVU396
 1754 0174 1020     		movs	r0, #16
 1755 0176 FFF7FEFF 		bl	EFM_ClearStatus
 1756              	.LVL165:
 1757 017a D0E7     		b	.L161
 1758              	.L173:
 603:hc32_ll_driver/src/hc32_ll_efm.c ****         }
 1759              		.loc 1 603 20 is_stmt 0 view .LVU397
 1760 017c 6FF00407 		mvn	r7, #4
 1761              	.LVL166:
 603:hc32_ll_driver/src/hc32_ll_efm.c ****         }
 1762              		.loc 1 603 20 view .LVU398
 1763 0180 F8E7     		b	.L162
 1764              	.L175:
 1765 0182 00BF     		.align	2
 1766              	.L174:
 1767 0184 00040140 		.word	1073808384
 1768 0188 00802042 		.word	1109426176
 1769 018c 2000E8FC 		.word	-51904480
 1770 0190 1F00E8FC 		.word	-51904481
 1771 0194 00000000 		.word	.LC0
 1772 0198 00400540 		.word	1074085888
 1773 019c 00000000 		.word	SystemCoreClock
 1774 01a0 5917B7D1 		.word	-776530087
 1775 01a4 00000101 		.word	16842752
 1776              		.cfi_endproc
 1777              	.LFE153:
 1779              		.section	.text.EFM_ProgramWord,"ax",%progbits
 1780              		.align	1
 1781              		.global	EFM_ProgramWord
 1782              		.syntax unified
 1783              		.thumb
 1784              		.thumb_func
 1786              	EFM_ProgramWord:
 1787              	.LVL167:
 1788              	.LFB154:
 616:hc32_ll_driver/src/hc32_ll_efm.c **** 
 617:hc32_ll_driver/src/hc32_ll_efm.c **** /**
 618:hc32_ll_driver/src/hc32_ll_efm.c ****  * @brief  EFM single program mode(Word).
ARM GAS  C:\Users\mkand\AppData\Local\Temp\cc6Q7h6g.s 			page 46


 619:hc32_ll_driver/src/hc32_ll_efm.c ****  * @param  [in] u32Addr                   The specified program address.
 620:hc32_ll_driver/src/hc32_ll_efm.c ****  * @param  [in] u32Data                   The specified program data.
 621:hc32_ll_driver/src/hc32_ll_efm.c ****  * @retval int32_t:
 622:hc32_ll_driver/src/hc32_ll_efm.c ****  *         - LL_OK: Program successfully
 623:hc32_ll_driver/src/hc32_ll_efm.c ****  *         - LL_ERR_NOT_RDY: EFM is not ready.
 624:hc32_ll_driver/src/hc32_ll_efm.c ****  * @note  Call EFM_REG_Unlock() unlock EFM register first.
 625:hc32_ll_driver/src/hc32_ll_efm.c ****  */
 626:hc32_ll_driver/src/hc32_ll_efm.c **** int32_t EFM_ProgramWord(uint32_t u32Addr, uint32_t u32Data)
 627:hc32_ll_driver/src/hc32_ll_efm.c **** {
 1789              		.loc 1 627 1 is_stmt 1 view -0
 1790              		.cfi_startproc
 1791              		@ args = 0, pretend = 0, frame = 0
 1792              		@ frame_needed = 0, uses_anonymous_args = 0
 1793              		.loc 1 627 1 is_stmt 0 view .LVU400
 1794 0000 70B5     		push	{r4, r5, r6, lr}
 1795              	.LCFI18:
 1796              		.cfi_def_cfa_offset 16
 1797              		.cfi_offset 4, -16
 1798              		.cfi_offset 5, -12
 1799              		.cfi_offset 6, -8
 1800              		.cfi_offset 14, -4
 1801 0002 0446     		mov	r4, r0
 1802 0004 0E46     		mov	r6, r1
 628:hc32_ll_driver/src/hc32_ll_efm.c ****     int32_t i32Ret = LL_OK;
 1803              		.loc 1 628 5 is_stmt 1 view .LVU401
 1804              	.LVL168:
 629:hc32_ll_driver/src/hc32_ll_efm.c ****     uint32_t u32Tmp;
 1805              		.loc 1 629 5 view .LVU402
 630:hc32_ll_driver/src/hc32_ll_efm.c ****     uint8_t u8Shift;
 1806              		.loc 1 630 5 view .LVU403
 631:hc32_ll_driver/src/hc32_ll_efm.c **** 
 632:hc32_ll_driver/src/hc32_ll_efm.c ****     DDL_ASSERT(IS_EFM_REG_UNLOCK());
 1807              		.loc 1 632 5 view .LVU404
 1808              		.loc 1 632 5 view .LVU405
 1809 0006 394B     		ldr	r3, .L188
 1810 0008 1B68     		ldr	r3, [r3]
 1811 000a 012B     		cmp	r3, #1
 1812 000c 52D1     		bne	.L184
 1813              	.LVL169:
 1814              	.L177:
 1815              		.loc 1 632 5 discriminator 3 view .LVU406
 633:hc32_ll_driver/src/hc32_ll_efm.c ****     DDL_ASSERT(IS_EFM_FWMC_UNLOCK());
 1816              		.loc 1 633 5 discriminator 3 view .LVU407
 1817              		.loc 1 633 5 discriminator 3 view .LVU408
 1818 000e 384B     		ldr	r3, .L188+4
 1819 0010 D3F88031 		ldr	r3, [r3, #384]
 1820 0014 012B     		cmp	r3, #1
 1821 0016 53D1     		bne	.L185
 1822              	.L178:
 1823              		.loc 1 633 5 discriminator 3 view .LVU409
 634:hc32_ll_driver/src/hc32_ll_efm.c ****     DDL_ASSERT(IS_EFM_ADDR(u32Addr));
 1824              		.loc 1 634 5 discriminator 3 view .LVU410
 1825              		.loc 1 634 5 discriminator 3 view .LVU411
 1826 0018 B4F5002F 		cmp	r4, #524288
 1827 001c 0AD3     		bcc	.L179
 1828              		.loc 1 634 5 is_stmt 0 discriminator 1 view .LVU412
 1829 001e 04F17D43 		add	r3, r4, #-50331648
ARM GAS  C:\Users\mkand\AppData\Local\Temp\cc6Q7h6g.s 			page 47


 1830 0022 A3F54063 		sub	r3, r3, #3072
 1831 0026 B3F57F7F 		cmp	r3, #1020
 1832 002a 03D3     		bcc	.L179
 1833              		.loc 1 634 5 discriminator 3 view .LVU413
 1834 002c 314B     		ldr	r3, .L188+8
 1835 002e 2344     		add	r3, r3, r4
 1836 0030 1F2B     		cmp	r3, #31
 1837 0032 4BD8     		bhi	.L186
 1838              	.L179:
 1839              		.loc 1 634 5 is_stmt 1 discriminator 7 view .LVU414
 635:hc32_ll_driver/src/hc32_ll_efm.c ****     DDL_ASSERT(IS_ADDR_ALIGN_WORD(u32Addr));
 1840              		.loc 1 635 5 discriminator 7 view .LVU415
 1841              		.loc 1 635 5 discriminator 7 view .LVU416
 1842 0034 14F0030F 		tst	r4, #3
 1843 0038 4ED1     		bne	.L187
 1844              	.L180:
 1845              		.loc 1 635 5 discriminator 3 view .LVU417
 636:hc32_ll_driver/src/hc32_ll_efm.c **** 
 637:hc32_ll_driver/src/hc32_ll_efm.c ****     /* Clear the error flag. */
 638:hc32_ll_driver/src/hc32_ll_efm.c ****     EFM_ClearStatus(EFM_FLAG_ALL);
 1846              		.loc 1 638 5 discriminator 3 view .LVU418
 1847 003a 40F23F10 		movw	r0, #319
 1848 003e FFF7FEFF 		bl	EFM_ClearStatus
 1849              	.LVL170:
 639:hc32_ll_driver/src/hc32_ll_efm.c ****     /* Get CACHE status */
 640:hc32_ll_driver/src/hc32_ll_efm.c ****     u32Tmp = READ_REG32_BIT(CM_EFM->FRMC, EFM_CACHE_ALL);
 1850              		.loc 1 640 5 discriminator 3 view .LVU419
 1851              		.loc 1 640 14 is_stmt 0 discriminator 3 view .LVU420
 1852 0042 2A4B     		ldr	r3, .L188
 1853 0044 9D68     		ldr	r5, [r3, #8]
 1854              		.loc 1 640 12 discriminator 3 view .LVU421
 1855 0046 25F07E45 		bic	r5, r5, #-33554432
 1856 004a 25F47E05 		bic	r5, r5, #16646144
 1857 004e 2D0C     		lsrs	r5, r5, #16
 1858 0050 2D04     		lsls	r5, r5, #16
 1859              	.LVL171:
 641:hc32_ll_driver/src/hc32_ll_efm.c ****     /* Disable CACHE function */
 642:hc32_ll_driver/src/hc32_ll_efm.c ****     CLR_REG32_BIT(CM_EFM->FRMC, EFM_CACHE_ALL);
 1860              		.loc 1 642 5 is_stmt 1 discriminator 3 view .LVU422
 1861 0052 9A68     		ldr	r2, [r3, #8]
 1862 0054 22F08072 		bic	r2, r2, #16777216
 1863 0058 22F48032 		bic	r2, r2, #65536
 1864 005c 9A60     		str	r2, [r3, #8]
 643:hc32_ll_driver/src/hc32_ll_efm.c ****     u8Shift = 0U;
 1865              		.loc 1 643 5 discriminator 3 view .LVU423
 1866              	.LVL172:
 644:hc32_ll_driver/src/hc32_ll_efm.c ****     /* Set single program mode. */
 645:hc32_ll_driver/src/hc32_ll_efm.c ****     MODIFY_REG32(CM_EFM->FWMC, EFM_FWMC_PEMOD, EFM_MD_PGM_SINGLE);
 1867              		.loc 1 645 5 discriminator 3 view .LVU424
 1868 005e DA68     		ldr	r2, [r3, #12]
 1869 0060 22F07002 		bic	r2, r2, #112
 1870 0064 42F01002 		orr	r2, r2, #16
 1871 0068 DA60     		str	r2, [r3, #12]
 646:hc32_ll_driver/src/hc32_ll_efm.c ****     /* Program data. */
 647:hc32_ll_driver/src/hc32_ll_efm.c ****     RW_MEM32(u32Addr) = u32Data;
 1872              		.loc 1 647 5 discriminator 3 view .LVU425
 1873              		.loc 1 647 23 is_stmt 0 discriminator 3 view .LVU426
ARM GAS  C:\Users\mkand\AppData\Local\Temp\cc6Q7h6g.s 			page 48


 1874 006a 2660     		str	r6, [r4]
 648:hc32_ll_driver/src/hc32_ll_efm.c **** 
 649:hc32_ll_driver/src/hc32_ll_efm.c ****     /* Wait for ready flag. */
 650:hc32_ll_driver/src/hc32_ll_efm.c ****     if (LL_ERR_TIMEOUT == EFM_WaitFlag(EFM_FLAG_RDY << u8Shift, EFM_PGM_TIMEOUT)) {
 1875              		.loc 1 650 5 is_stmt 1 discriminator 3 view .LVU427
 1876              		.loc 1 650 65 is_stmt 0 discriminator 3 view .LVU428
 1877 006c 224B     		ldr	r3, .L188+12
 1878 006e 1B6A     		ldr	r3, [r3, #32]
 1879 0070 C3F30263 		ubfx	r3, r3, #24, #3
 1880 0074 214A     		ldr	r2, .L188+16
 1881 0076 1168     		ldr	r1, [r2]
 1882 0078 D940     		lsrs	r1, r1, r3
 1883              		.loc 1 650 27 discriminator 3 view .LVU429
 1884 007a 214B     		ldr	r3, .L188+20
 1885 007c A3FB0131 		umull	r3, r1, r3, r1
 1886 0080 890B     		lsrs	r1, r1, #14
 1887 0082 4FF48070 		mov	r0, #256
 1888 0086 FFF7FEFF 		bl	EFM_WaitFlag
 1889              	.LVL173:
 1890              		.loc 1 650 8 discriminator 3 view .LVU430
 1891 008a 10F1080F 		cmn	r0, #8
 1892 008e 29D0     		beq	.L182
 628:hc32_ll_driver/src/hc32_ll_efm.c ****     uint32_t u32Tmp;
 1893              		.loc 1 628 13 view .LVU431
 1894 0090 0024     		movs	r4, #0
 1895              	.LVL174:
 1896              	.L181:
 651:hc32_ll_driver/src/hc32_ll_efm.c ****         i32Ret = LL_ERR_NOT_RDY;
 652:hc32_ll_driver/src/hc32_ll_efm.c ****     }
 653:hc32_ll_driver/src/hc32_ll_efm.c ****     /* CLear the operation end flag. */
 654:hc32_ll_driver/src/hc32_ll_efm.c ****     EFM_ClearStatus(EFM_FLAG_OPTEND << u8Shift);
 1897              		.loc 1 654 5 is_stmt 1 view .LVU432
 1898 0092 1020     		movs	r0, #16
 1899 0094 FFF7FEFF 		bl	EFM_ClearStatus
 1900              	.LVL175:
 655:hc32_ll_driver/src/hc32_ll_efm.c **** 
 656:hc32_ll_driver/src/hc32_ll_efm.c ****     /* Set read only mode. */
 657:hc32_ll_driver/src/hc32_ll_efm.c ****     MODIFY_REG32(CM_EFM->FWMC, EFM_FWMC_PEMOD, EFM_MD_READONLY);
 1901              		.loc 1 657 5 view .LVU433
 1902 0098 144A     		ldr	r2, .L188
 1903 009a D368     		ldr	r3, [r2, #12]
 1904 009c 23F07003 		bic	r3, r3, #112
 1905 00a0 D360     		str	r3, [r2, #12]
 658:hc32_ll_driver/src/hc32_ll_efm.c **** 
 659:hc32_ll_driver/src/hc32_ll_efm.c ****     /* Recover CACHE function */
 660:hc32_ll_driver/src/hc32_ll_efm.c ****     MODIFY_REG32(CM_EFM->FRMC, EFM_CACHE_ALL, u32Tmp);
 1906              		.loc 1 660 5 view .LVU434
 1907 00a2 9368     		ldr	r3, [r2, #8]
 1908 00a4 23F08073 		bic	r3, r3, #16777216
 1909 00a8 23F48033 		bic	r3, r3, #65536
 1910 00ac 2B43     		orrs	r3, r3, r5
 1911 00ae 9360     		str	r3, [r2, #8]
 661:hc32_ll_driver/src/hc32_ll_efm.c **** 
 662:hc32_ll_driver/src/hc32_ll_efm.c ****     return i32Ret;
 1912              		.loc 1 662 5 view .LVU435
 663:hc32_ll_driver/src/hc32_ll_efm.c **** }
 1913              		.loc 1 663 1 is_stmt 0 view .LVU436
ARM GAS  C:\Users\mkand\AppData\Local\Temp\cc6Q7h6g.s 			page 49


 1914 00b0 2046     		mov	r0, r4
 1915 00b2 70BD     		pop	{r4, r5, r6, pc}
 1916              	.LVL176:
 1917              	.L184:
 632:hc32_ll_driver/src/hc32_ll_efm.c ****     DDL_ASSERT(IS_EFM_FWMC_UNLOCK());
 1918              		.loc 1 632 5 discriminator 1 view .LVU437
 1919 00b4 4FF41E71 		mov	r1, #632
 1920              	.LVL177:
 632:hc32_ll_driver/src/hc32_ll_efm.c ****     DDL_ASSERT(IS_EFM_FWMC_UNLOCK());
 1921              		.loc 1 632 5 discriminator 1 view .LVU438
 1922 00b8 1248     		ldr	r0, .L188+24
 1923              	.LVL178:
 632:hc32_ll_driver/src/hc32_ll_efm.c ****     DDL_ASSERT(IS_EFM_FWMC_UNLOCK());
 1924              		.loc 1 632 5 discriminator 1 view .LVU439
 1925 00ba FFF7FEFF 		bl	DDL_AssertHandler
 1926              	.LVL179:
 1927 00be A6E7     		b	.L177
 1928              	.L185:
 633:hc32_ll_driver/src/hc32_ll_efm.c ****     DDL_ASSERT(IS_EFM_ADDR(u32Addr));
 1929              		.loc 1 633 5 discriminator 1 view .LVU440
 1930 00c0 40F27921 		movw	r1, #633
 1931 00c4 0F48     		ldr	r0, .L188+24
 1932 00c6 FFF7FEFF 		bl	DDL_AssertHandler
 1933              	.LVL180:
 1934 00ca A5E7     		b	.L178
 1935              	.L186:
 634:hc32_ll_driver/src/hc32_ll_efm.c ****     DDL_ASSERT(IS_ADDR_ALIGN_WORD(u32Addr));
 1936              		.loc 1 634 5 discriminator 5 view .LVU441
 1937 00cc 40F27A21 		movw	r1, #634
 1938 00d0 0C48     		ldr	r0, .L188+24
 1939 00d2 FFF7FEFF 		bl	DDL_AssertHandler
 1940              	.LVL181:
 1941 00d6 ADE7     		b	.L179
 1942              	.L187:
 635:hc32_ll_driver/src/hc32_ll_efm.c **** 
 1943              		.loc 1 635 5 discriminator 1 view .LVU442
 1944 00d8 40F27B21 		movw	r1, #635
 1945 00dc 0948     		ldr	r0, .L188+24
 1946 00de FFF7FEFF 		bl	DDL_AssertHandler
 1947              	.LVL182:
 1948 00e2 AAE7     		b	.L180
 1949              	.LVL183:
 1950              	.L182:
 651:hc32_ll_driver/src/hc32_ll_efm.c ****     }
 1951              		.loc 1 651 16 view .LVU443
 1952 00e4 6FF00404 		mvn	r4, #4
 1953              	.LVL184:
 651:hc32_ll_driver/src/hc32_ll_efm.c ****     }
 1954              		.loc 1 651 16 view .LVU444
 1955 00e8 D3E7     		b	.L181
 1956              	.L189:
 1957 00ea 00BF     		.align	2
 1958              	.L188:
 1959 00ec 00040140 		.word	1073808384
 1960 00f0 00802042 		.word	1109426176
 1961 00f4 2000E8FC 		.word	-51904480
 1962 00f8 00400540 		.word	1074085888
ARM GAS  C:\Users\mkand\AppData\Local\Temp\cc6Q7h6g.s 			page 50


 1963 00fc 00000000 		.word	SystemCoreClock
 1964 0100 5917B7D1 		.word	-776530087
 1965 0104 00000000 		.word	.LC0
 1966              		.cfi_endproc
 1967              	.LFE154:
 1969              		.section	.text.EFM_ProgramWordReadBack,"ax",%progbits
 1970              		.align	1
 1971              		.global	EFM_ProgramWordReadBack
 1972              		.syntax unified
 1973              		.thumb
 1974              		.thumb_func
 1976              	EFM_ProgramWordReadBack:
 1977              	.LVL185:
 1978              	.LFB155:
 664:hc32_ll_driver/src/hc32_ll_efm.c **** 
 665:hc32_ll_driver/src/hc32_ll_efm.c **** /**
 666:hc32_ll_driver/src/hc32_ll_efm.c ****  * @brief  EFM single program with read back(Word).
 667:hc32_ll_driver/src/hc32_ll_efm.c ****  * @param  [in] u32Addr                   The specified program address.
 668:hc32_ll_driver/src/hc32_ll_efm.c ****  * @param  [in] u32Data                   The specified program data.
 669:hc32_ll_driver/src/hc32_ll_efm.c ****  * @retval int32_t:
 670:hc32_ll_driver/src/hc32_ll_efm.c ****  *         - LL_OK: Program successfully
 671:hc32_ll_driver/src/hc32_ll_efm.c ****  *         - LL_ERR: program error
 672:hc32_ll_driver/src/hc32_ll_efm.c ****  *         - LL_ERR_NOT_RDY: EFM is not ready.
 673:hc32_ll_driver/src/hc32_ll_efm.c ****  * @note  Call EFM_REG_Unlock() unlock EFM register first.
 674:hc32_ll_driver/src/hc32_ll_efm.c ****  */
 675:hc32_ll_driver/src/hc32_ll_efm.c **** int32_t EFM_ProgramWordReadBack(uint32_t u32Addr, uint32_t u32Data)
 676:hc32_ll_driver/src/hc32_ll_efm.c **** {
 1979              		.loc 1 676 1 is_stmt 1 view -0
 1980              		.cfi_startproc
 1981              		@ args = 0, pretend = 0, frame = 0
 1982              		@ frame_needed = 0, uses_anonymous_args = 0
 1983              		.loc 1 676 1 is_stmt 0 view .LVU446
 1984 0000 70B5     		push	{r4, r5, r6, lr}
 1985              	.LCFI19:
 1986              		.cfi_def_cfa_offset 16
 1987              		.cfi_offset 4, -16
 1988              		.cfi_offset 5, -12
 1989              		.cfi_offset 6, -8
 1990              		.cfi_offset 14, -4
 1991 0002 0446     		mov	r4, r0
 1992 0004 0E46     		mov	r6, r1
 677:hc32_ll_driver/src/hc32_ll_efm.c ****     int32_t i32Ret = LL_OK;
 1993              		.loc 1 677 5 is_stmt 1 view .LVU447
 1994              	.LVL186:
 678:hc32_ll_driver/src/hc32_ll_efm.c ****     uint32_t u32Tmp;
 1995              		.loc 1 678 5 view .LVU448
 679:hc32_ll_driver/src/hc32_ll_efm.c ****     uint8_t u8Shift;
 1996              		.loc 1 679 5 view .LVU449
 680:hc32_ll_driver/src/hc32_ll_efm.c **** 
 681:hc32_ll_driver/src/hc32_ll_efm.c ****     DDL_ASSERT(IS_EFM_REG_UNLOCK());
 1997              		.loc 1 681 5 view .LVU450
 1998              		.loc 1 681 5 view .LVU451
 1999 0006 3E4B     		ldr	r3, .L204
 2000 0008 1B68     		ldr	r3, [r3]
 2001 000a 012B     		cmp	r3, #1
 2002 000c 57D1     		bne	.L199
 2003              	.LVL187:
ARM GAS  C:\Users\mkand\AppData\Local\Temp\cc6Q7h6g.s 			page 51


 2004              	.L191:
 2005              		.loc 1 681 5 discriminator 3 view .LVU452
 682:hc32_ll_driver/src/hc32_ll_efm.c ****     DDL_ASSERT(IS_EFM_FWMC_UNLOCK());
 2006              		.loc 1 682 5 discriminator 3 view .LVU453
 2007              		.loc 1 682 5 discriminator 3 view .LVU454
 2008 000e 3D4B     		ldr	r3, .L204+4
 2009 0010 D3F88031 		ldr	r3, [r3, #384]
 2010 0014 012B     		cmp	r3, #1
 2011 0016 58D1     		bne	.L200
 2012              	.L192:
 2013              		.loc 1 682 5 discriminator 3 view .LVU455
 683:hc32_ll_driver/src/hc32_ll_efm.c ****     DDL_ASSERT(IS_EFM_ADDR(u32Addr));
 2014              		.loc 1 683 5 discriminator 3 view .LVU456
 2015              		.loc 1 683 5 discriminator 3 view .LVU457
 2016 0018 B4F5002F 		cmp	r4, #524288
 2017 001c 0AD3     		bcc	.L193
 2018              		.loc 1 683 5 is_stmt 0 discriminator 1 view .LVU458
 2019 001e 04F17D43 		add	r3, r4, #-50331648
 2020 0022 A3F54063 		sub	r3, r3, #3072
 2021 0026 B3F57F7F 		cmp	r3, #1020
 2022 002a 03D3     		bcc	.L193
 2023              		.loc 1 683 5 discriminator 3 view .LVU459
 2024 002c 364B     		ldr	r3, .L204+8
 2025 002e 2344     		add	r3, r3, r4
 2026 0030 1F2B     		cmp	r3, #31
 2027 0032 50D8     		bhi	.L201
 2028              	.L193:
 2029              		.loc 1 683 5 is_stmt 1 discriminator 7 view .LVU460
 684:hc32_ll_driver/src/hc32_ll_efm.c ****     DDL_ASSERT(IS_ADDR_ALIGN_WORD(u32Addr));
 2030              		.loc 1 684 5 discriminator 7 view .LVU461
 2031              		.loc 1 684 5 discriminator 7 view .LVU462
 2032 0034 14F0030F 		tst	r4, #3
 2033 0038 53D1     		bne	.L202
 2034              	.L194:
 2035              		.loc 1 684 5 discriminator 3 view .LVU463
 685:hc32_ll_driver/src/hc32_ll_efm.c **** 
 686:hc32_ll_driver/src/hc32_ll_efm.c ****     /* Clear the error flag. */
 687:hc32_ll_driver/src/hc32_ll_efm.c ****     EFM_ClearStatus(EFM_FLAG_ALL);
 2036              		.loc 1 687 5 discriminator 3 view .LVU464
 2037 003a 40F23F10 		movw	r0, #319
 2038 003e FFF7FEFF 		bl	EFM_ClearStatus
 2039              	.LVL188:
 688:hc32_ll_driver/src/hc32_ll_efm.c ****     /* Get CACHE status */
 689:hc32_ll_driver/src/hc32_ll_efm.c ****     u32Tmp = READ_REG32_BIT(CM_EFM->FRMC, EFM_CACHE_ALL);
 2040              		.loc 1 689 5 discriminator 3 view .LVU465
 2041              		.loc 1 689 14 is_stmt 0 discriminator 3 view .LVU466
 2042 0042 2F4B     		ldr	r3, .L204
 2043 0044 9D68     		ldr	r5, [r3, #8]
 2044              		.loc 1 689 12 discriminator 3 view .LVU467
 2045 0046 25F07E45 		bic	r5, r5, #-33554432
 2046 004a 25F47E05 		bic	r5, r5, #16646144
 2047 004e 2D0C     		lsrs	r5, r5, #16
 2048 0050 2D04     		lsls	r5, r5, #16
 2049              	.LVL189:
 690:hc32_ll_driver/src/hc32_ll_efm.c ****     /* Disable CACHE */
 691:hc32_ll_driver/src/hc32_ll_efm.c ****     CLR_REG32_BIT(CM_EFM->FRMC, EFM_CACHE_ALL);
 2050              		.loc 1 691 5 is_stmt 1 discriminator 3 view .LVU468
ARM GAS  C:\Users\mkand\AppData\Local\Temp\cc6Q7h6g.s 			page 52


 2051 0052 9A68     		ldr	r2, [r3, #8]
 2052 0054 22F08072 		bic	r2, r2, #16777216
 2053 0058 22F48032 		bic	r2, r2, #65536
 2054 005c 9A60     		str	r2, [r3, #8]
 692:hc32_ll_driver/src/hc32_ll_efm.c ****     u8Shift = 0U;
 2055              		.loc 1 692 5 discriminator 3 view .LVU469
 2056              	.LVL190:
 693:hc32_ll_driver/src/hc32_ll_efm.c ****     /* Set Program and read back mode. */
 694:hc32_ll_driver/src/hc32_ll_efm.c ****     MODIFY_REG32(CM_EFM->FWMC, EFM_FWMC_PEMOD, EFM_MD_PGM_READBACK);
 2057              		.loc 1 694 5 discriminator 3 view .LVU470
 2058 005e DA68     		ldr	r2, [r3, #12]
 2059 0060 22F07002 		bic	r2, r2, #112
 2060 0064 42F02002 		orr	r2, r2, #32
 2061 0068 DA60     		str	r2, [r3, #12]
 695:hc32_ll_driver/src/hc32_ll_efm.c ****     /* Program data. */
 696:hc32_ll_driver/src/hc32_ll_efm.c ****     RW_MEM32(u32Addr) = (uint32_t)u32Data;
 2062              		.loc 1 696 5 discriminator 3 view .LVU471
 2063              		.loc 1 696 23 is_stmt 0 discriminator 3 view .LVU472
 2064 006a 2660     		str	r6, [r4]
 697:hc32_ll_driver/src/hc32_ll_efm.c **** 
 698:hc32_ll_driver/src/hc32_ll_efm.c ****     /* Wait for ready flag. */
 699:hc32_ll_driver/src/hc32_ll_efm.c ****     if (LL_ERR_TIMEOUT == EFM_WaitFlag(EFM_FLAG_RDY << u8Shift, EFM_PGM_TIMEOUT)) {
 2065              		.loc 1 699 5 is_stmt 1 discriminator 3 view .LVU473
 2066              		.loc 1 699 65 is_stmt 0 discriminator 3 view .LVU474
 2067 006c 274B     		ldr	r3, .L204+12
 2068 006e 1B6A     		ldr	r3, [r3, #32]
 2069 0070 C3F30263 		ubfx	r3, r3, #24, #3
 2070 0074 264A     		ldr	r2, .L204+16
 2071 0076 1168     		ldr	r1, [r2]
 2072 0078 D940     		lsrs	r1, r1, r3
 2073              		.loc 1 699 27 discriminator 3 view .LVU475
 2074 007a 264B     		ldr	r3, .L204+20
 2075 007c A3FB0131 		umull	r3, r1, r3, r1
 2076 0080 890B     		lsrs	r1, r1, #14
 2077 0082 4FF48070 		mov	r0, #256
 2078 0086 FFF7FEFF 		bl	EFM_WaitFlag
 2079              	.LVL191:
 2080              		.loc 1 699 8 discriminator 3 view .LVU476
 2081 008a 10F1080F 		cmn	r0, #8
 2082 008e 2ED0     		beq	.L197
 677:hc32_ll_driver/src/hc32_ll_efm.c ****     uint32_t u32Tmp;
 2083              		.loc 1 677 13 view .LVU477
 2084 0090 0024     		movs	r4, #0
 2085              	.LVL192:
 2086              	.L195:
 700:hc32_ll_driver/src/hc32_ll_efm.c ****         i32Ret = LL_ERR_NOT_RDY;
 701:hc32_ll_driver/src/hc32_ll_efm.c ****     }
 702:hc32_ll_driver/src/hc32_ll_efm.c **** 
 703:hc32_ll_driver/src/hc32_ll_efm.c ****     /* Get the flag PGMISMTCH */
 704:hc32_ll_driver/src/hc32_ll_efm.c ****     if (SET == EFM_GetStatus(EFM_FLAG_PGMISMTCH << u8Shift)) {
 2087              		.loc 1 704 5 is_stmt 1 view .LVU478
 2088              		.loc 1 704 16 is_stmt 0 view .LVU479
 2089 0092 0820     		movs	r0, #8
 2090 0094 FFF7FEFF 		bl	EFM_GetStatus
 2091              	.LVL193:
 2092              		.loc 1 704 8 view .LVU480
 2093 0098 0128     		cmp	r0, #1
ARM GAS  C:\Users\mkand\AppData\Local\Temp\cc6Q7h6g.s 			page 53


 2094 009a 2BD0     		beq	.L203
 2095              	.LVL194:
 2096              	.L196:
 705:hc32_ll_driver/src/hc32_ll_efm.c ****         /* Clear flag PGMISMTCH */
 706:hc32_ll_driver/src/hc32_ll_efm.c ****         EFM_ClearStatus(EFM_FLAG_PGMISMTCH << u8Shift);
 707:hc32_ll_driver/src/hc32_ll_efm.c ****         i32Ret = LL_ERR;
 708:hc32_ll_driver/src/hc32_ll_efm.c ****     }
 709:hc32_ll_driver/src/hc32_ll_efm.c ****     /* CLear the operation end flag. */
 710:hc32_ll_driver/src/hc32_ll_efm.c ****     EFM_ClearStatus(EFM_FLAG_OPTEND << u8Shift);
 2097              		.loc 1 710 5 is_stmt 1 view .LVU481
 2098 009c 1020     		movs	r0, #16
 2099 009e FFF7FEFF 		bl	EFM_ClearStatus
 2100              	.LVL195:
 711:hc32_ll_driver/src/hc32_ll_efm.c ****     /* Set read only mode. */
 712:hc32_ll_driver/src/hc32_ll_efm.c ****     MODIFY_REG32(CM_EFM->FWMC, EFM_FWMC_PEMOD, EFM_MD_READONLY);
 2101              		.loc 1 712 5 view .LVU482
 2102 00a2 174A     		ldr	r2, .L204
 2103 00a4 D368     		ldr	r3, [r2, #12]
 2104 00a6 23F07003 		bic	r3, r3, #112
 2105 00aa D360     		str	r3, [r2, #12]
 713:hc32_ll_driver/src/hc32_ll_efm.c **** 
 714:hc32_ll_driver/src/hc32_ll_efm.c ****     /* recover CACHE function */
 715:hc32_ll_driver/src/hc32_ll_efm.c ****     MODIFY_REG32(CM_EFM->FRMC, EFM_CACHE_ALL, u32Tmp);
 2106              		.loc 1 715 5 view .LVU483
 2107 00ac 9368     		ldr	r3, [r2, #8]
 2108 00ae 23F08073 		bic	r3, r3, #16777216
 2109 00b2 23F48033 		bic	r3, r3, #65536
 2110 00b6 2B43     		orrs	r3, r3, r5
 2111 00b8 9360     		str	r3, [r2, #8]
 716:hc32_ll_driver/src/hc32_ll_efm.c **** 
 717:hc32_ll_driver/src/hc32_ll_efm.c ****     return i32Ret;
 2112              		.loc 1 717 5 view .LVU484
 718:hc32_ll_driver/src/hc32_ll_efm.c **** }
 2113              		.loc 1 718 1 is_stmt 0 view .LVU485
 2114 00ba 2046     		mov	r0, r4
 2115 00bc 70BD     		pop	{r4, r5, r6, pc}
 2116              	.LVL196:
 2117              	.L199:
 681:hc32_ll_driver/src/hc32_ll_efm.c ****     DDL_ASSERT(IS_EFM_FWMC_UNLOCK());
 2118              		.loc 1 681 5 discriminator 1 view .LVU486
 2119 00be 40F2A921 		movw	r1, #681
 2120              	.LVL197:
 681:hc32_ll_driver/src/hc32_ll_efm.c ****     DDL_ASSERT(IS_EFM_FWMC_UNLOCK());
 2121              		.loc 1 681 5 discriminator 1 view .LVU487
 2122 00c2 1548     		ldr	r0, .L204+24
 2123              	.LVL198:
 681:hc32_ll_driver/src/hc32_ll_efm.c ****     DDL_ASSERT(IS_EFM_FWMC_UNLOCK());
 2124              		.loc 1 681 5 discriminator 1 view .LVU488
 2125 00c4 FFF7FEFF 		bl	DDL_AssertHandler
 2126              	.LVL199:
 2127 00c8 A1E7     		b	.L191
 2128              	.L200:
 682:hc32_ll_driver/src/hc32_ll_efm.c ****     DDL_ASSERT(IS_EFM_ADDR(u32Addr));
 2129              		.loc 1 682 5 discriminator 1 view .LVU489
 2130 00ca 40F2AA21 		movw	r1, #682
 2131 00ce 1248     		ldr	r0, .L204+24
 2132 00d0 FFF7FEFF 		bl	DDL_AssertHandler
ARM GAS  C:\Users\mkand\AppData\Local\Temp\cc6Q7h6g.s 			page 54


 2133              	.LVL200:
 2134 00d4 A0E7     		b	.L192
 2135              	.L201:
 683:hc32_ll_driver/src/hc32_ll_efm.c ****     DDL_ASSERT(IS_ADDR_ALIGN_WORD(u32Addr));
 2136              		.loc 1 683 5 discriminator 5 view .LVU490
 2137 00d6 40F2AB21 		movw	r1, #683
 2138 00da 0F48     		ldr	r0, .L204+24
 2139 00dc FFF7FEFF 		bl	DDL_AssertHandler
 2140              	.LVL201:
 2141 00e0 A8E7     		b	.L193
 2142              	.L202:
 684:hc32_ll_driver/src/hc32_ll_efm.c **** 
 2143              		.loc 1 684 5 discriminator 1 view .LVU491
 2144 00e2 4FF42B71 		mov	r1, #684
 2145 00e6 0C48     		ldr	r0, .L204+24
 2146 00e8 FFF7FEFF 		bl	DDL_AssertHandler
 2147              	.LVL202:
 2148 00ec A5E7     		b	.L194
 2149              	.LVL203:
 2150              	.L197:
 700:hc32_ll_driver/src/hc32_ll_efm.c ****     }
 2151              		.loc 1 700 16 view .LVU492
 2152 00ee 6FF00404 		mvn	r4, #4
 2153              	.LVL204:
 700:hc32_ll_driver/src/hc32_ll_efm.c ****     }
 2154              		.loc 1 700 16 view .LVU493
 2155 00f2 CEE7     		b	.L195
 2156              	.LVL205:
 2157              	.L203:
 706:hc32_ll_driver/src/hc32_ll_efm.c ****         i32Ret = LL_ERR;
 2158              		.loc 1 706 9 is_stmt 1 view .LVU494
 2159 00f4 0820     		movs	r0, #8
 2160 00f6 FFF7FEFF 		bl	EFM_ClearStatus
 2161              	.LVL206:
 707:hc32_ll_driver/src/hc32_ll_efm.c ****     }
 2162              		.loc 1 707 9 view .LVU495
 707:hc32_ll_driver/src/hc32_ll_efm.c ****     }
 2163              		.loc 1 707 16 is_stmt 0 view .LVU496
 2164 00fa 4FF0FF34 		mov	r4, #-1
 2165 00fe CDE7     		b	.L196
 2166              	.L205:
 2167              		.align	2
 2168              	.L204:
 2169 0100 00040140 		.word	1073808384
 2170 0104 00802042 		.word	1109426176
 2171 0108 2000E8FC 		.word	-51904480
 2172 010c 00400540 		.word	1074085888
 2173 0110 00000000 		.word	SystemCoreClock
 2174 0114 5917B7D1 		.word	-776530087
 2175 0118 00000000 		.word	.LC0
 2176              		.cfi_endproc
 2177              	.LFE155:
 2179              		.section	.ramfunc,"ax",%progbits
 2180              		.align	1
 2181              		.global	EFM_SequenceProgram
 2182              		.syntax unified
 2183              		.thumb
ARM GAS  C:\Users\mkand\AppData\Local\Temp\cc6Q7h6g.s 			page 55


 2184              		.thumb_func
 2186              	EFM_SequenceProgram:
 2187              	.LVL207:
 2188              	.LFB156:
 719:hc32_ll_driver/src/hc32_ll_efm.c **** 
 720:hc32_ll_driver/src/hc32_ll_efm.c **** /**
 721:hc32_ll_driver/src/hc32_ll_efm.c ****  * @brief  EFM program (sequence program mode).
 722:hc32_ll_driver/src/hc32_ll_efm.c ****  * @param  [in] u32Addr                   The specified program address.
 723:hc32_ll_driver/src/hc32_ll_efm.c ****  * @param  [in] pu8Buf                    The pointer of specified program data.
 724:hc32_ll_driver/src/hc32_ll_efm.c ****  * @param  [in] u32Len                    The length of specified program data.
 725:hc32_ll_driver/src/hc32_ll_efm.c ****  * @retval int32_t:
 726:hc32_ll_driver/src/hc32_ll_efm.c ****  *         - LL_OK: Program successfully
 727:hc32_ll_driver/src/hc32_ll_efm.c ****  *         - LL_ERR_TIMEOUT: program error timeout
 728:hc32_ll_driver/src/hc32_ll_efm.c ****  * @note  Call EFM_REG_Unlock() unlock EFM register first.
 729:hc32_ll_driver/src/hc32_ll_efm.c ****  *        __EFM_FUNC default value is __RAM_FUNC.
 730:hc32_ll_driver/src/hc32_ll_efm.c ****  */
 731:hc32_ll_driver/src/hc32_ll_efm.c **** __EFM_FUNC int32_t EFM_SequenceProgram(uint32_t u32Addr, uint8_t *pu8Buf, uint32_t u32Len)
 732:hc32_ll_driver/src/hc32_ll_efm.c **** {
 2189              		.loc 1 732 1 is_stmt 1 view -0
 2190              		.cfi_startproc
 2191              		@ args = 0, pretend = 0, frame = 0
 2192              		@ frame_needed = 0, uses_anonymous_args = 0
 2193              		.loc 1 732 1 is_stmt 0 view .LVU498
 2194 0000 2DE9F041 		push	{r4, r5, r6, r7, r8, lr}
 2195              	.LCFI20:
 2196              		.cfi_def_cfa_offset 24
 2197              		.cfi_offset 4, -24
 2198              		.cfi_offset 5, -20
 2199              		.cfi_offset 6, -16
 2200              		.cfi_offset 7, -12
 2201              		.cfi_offset 8, -8
 2202              		.cfi_offset 14, -4
 733:hc32_ll_driver/src/hc32_ll_efm.c ****     int32_t i32Ret = LL_OK;
 2203              		.loc 1 733 5 is_stmt 1 view .LVU499
 2204              	.LVL208:
 734:hc32_ll_driver/src/hc32_ll_efm.c ****     uint32_t u32Tmp;
 2205              		.loc 1 734 5 view .LVU500
 735:hc32_ll_driver/src/hc32_ll_efm.c ****     uint32_t u32LoopWords = u32Len >> 2UL;
 2206              		.loc 1 735 5 view .LVU501
 736:hc32_ll_driver/src/hc32_ll_efm.c ****     uint32_t u32RemainBytes = u32Len % 4UL;
 2207              		.loc 1 736 5 view .LVU502
 737:hc32_ll_driver/src/hc32_ll_efm.c ****     uint32_t *u32pSource = (uint32_t *)(uint32_t)pu8Buf;
 2208              		.loc 1 737 5 view .LVU503
 738:hc32_ll_driver/src/hc32_ll_efm.c ****     uint32_t *u32pDest = (uint32_t *)u32Addr;
 2209              		.loc 1 738 5 view .LVU504
 739:hc32_ll_driver/src/hc32_ll_efm.c ****     uint32_t u32Timeout;
 2210              		.loc 1 739 5 view .LVU505
 740:hc32_ll_driver/src/hc32_ll_efm.c ****     uint32_t u32LastWord;
 2211              		.loc 1 740 5 view .LVU506
 741:hc32_ll_driver/src/hc32_ll_efm.c **** 
 742:hc32_ll_driver/src/hc32_ll_efm.c ****     /* Assert */
 743:hc32_ll_driver/src/hc32_ll_efm.c ****     if (!IS_EFM_REG_UNLOCK()) {
 2212              		.loc 1 743 5 view .LVU507
 2213              		.loc 1 743 10 is_stmt 0 view .LVU508
 2214 0004 804C     		ldr	r4, .L239
 2215 0006 2468     		ldr	r4, [r4]
 2216              		.loc 1 743 8 view .LVU509
ARM GAS  C:\Users\mkand\AppData\Local\Temp\cc6Q7h6g.s 			page 56


 2217 0008 012C     		cmp	r4, #1
 2218 000a 40F0ED80 		bne	.L227
 2219 000e 9308     		lsrs	r3, r2, #2
 2220              	.LVL209:
 2221              		.loc 1 743 8 view .LVU510
 2222 0010 02F00306 		and	r6, r2, #3
 2223              	.LVL210:
 2224              		.loc 1 743 8 view .LVU511
 2225 0014 8446     		mov	ip, r0
 744:hc32_ll_driver/src/hc32_ll_efm.c ****         return LL_ERR_NOT_RDY;
 745:hc32_ll_driver/src/hc32_ll_efm.c ****     }
 746:hc32_ll_driver/src/hc32_ll_efm.c ****     if ((!IS_EFM_FWMC_UNLOCK()) || (!IS_EFM_ADDR(u32Addr)) || (!IS_EFM_ADDR(u32Addr + u32Len - 1UL)
 2226              		.loc 1 746 5 is_stmt 1 view .LVU512
 2227              		.loc 1 746 11 is_stmt 0 view .LVU513
 2228 0016 7D4C     		ldr	r4, .L239+4
 2229 0018 D4F88041 		ldr	r4, [r4, #384]
 2230              		.loc 1 746 8 view .LVU514
 2231 001c 012C     		cmp	r4, #1
 2232 001e 40F0E680 		bne	.L228
 2233              		.loc 1 746 33 discriminator 1 view .LVU515
 2234 0022 B0F5002F 		cmp	r0, #524288
 2235 0026 0BD3     		bcc	.L208
 2236              		.loc 1 746 38 discriminator 2 view .LVU516
 2237 0028 00F17D44 		add	r4, r0, #-50331648
 2238 002c A4F54064 		sub	r4, r4, #3072
 2239 0030 B4F57F7F 		cmp	r4, #1020
 2240 0034 04D3     		bcc	.L208
 2241              		.loc 1 746 38 discriminator 4 view .LVU517
 2242 0036 764C     		ldr	r4, .L239+8
 2243 0038 0444     		add	r4, r4, r0
 2244              		.loc 1 746 37 discriminator 4 view .LVU518
 2245 003a 1F2C     		cmp	r4, #31
 2246 003c 00F2DA80 		bhi	.L229
 2247              	.L208:
 2248              		.loc 1 746 65 discriminator 6 view .LVU519
 2249 0040 0244     		add	r2, r2, r0
 2250              	.LVL211:
 2251              		.loc 1 746 65 discriminator 6 view .LVU520
 2252 0042 541E     		subs	r4, r2, #1
 2253              		.loc 1 746 60 discriminator 6 view .LVU521
 2254 0044 B4F5002F 		cmp	r4, #524288
 2255 0048 0BD3     		bcc	.L209
 2256              		.loc 1 746 65 discriminator 7 view .LVU522
 2257 004a 02F17D44 		add	r4, r2, #-50331648
 2258 004e A4F60144 		subw	r4, r4, #3073
 2259 0052 B4F57F7F 		cmp	r4, #1020
 2260 0056 04D3     		bcc	.L209
 2261              		.loc 1 746 65 discriminator 8 view .LVU523
 2262 0058 6E4C     		ldr	r4, .L239+12
 2263 005a 1444     		add	r4, r4, r2
 2264              		.loc 1 746 64 discriminator 8 view .LVU524
 2265 005c 1F2C     		cmp	r4, #31
 2266 005e 00F2CC80 		bhi	.L230
 2267              	.L209:
 747:hc32_ll_driver/src/hc32_ll_efm.c ****         return LL_ERR_INVD_PARAM;
 748:hc32_ll_driver/src/hc32_ll_efm.c ****     }
 749:hc32_ll_driver/src/hc32_ll_efm.c ****     if (!IS_ADDR_ALIGN_WORD(u32Addr)) {
ARM GAS  C:\Users\mkand\AppData\Local\Temp\cc6Q7h6g.s 			page 57


 2268              		.loc 1 749 5 is_stmt 1 view .LVU525
 2269              		.loc 1 749 8 is_stmt 0 view .LVU526
 2270 0062 10F0030E 		ands	lr, r0, #3
 2271 0066 40F0CB80 		bne	.L231
 750:hc32_ll_driver/src/hc32_ll_efm.c ****         return LL_ERR_INVD_PARAM;
 751:hc32_ll_driver/src/hc32_ll_efm.c ****     }
 752:hc32_ll_driver/src/hc32_ll_efm.c **** 
 753:hc32_ll_driver/src/hc32_ll_efm.c ****     /* CLear the error flag. */
 754:hc32_ll_driver/src/hc32_ll_efm.c ****     SET_REG32_BIT(CM_EFM->FSCLR, EFM_FLAG_ALL);
 2272              		.loc 1 754 5 is_stmt 1 view .LVU527
 2273 006a 6748     		ldr	r0, .L239
 2274              	.LVL212:
 2275              		.loc 1 754 5 is_stmt 0 view .LVU528
 2276 006c 4269     		ldr	r2, [r0, #20]
 2277 006e 42F49F72 		orr	r2, r2, #318
 2278 0072 42F00102 		orr	r2, r2, #1
 2279 0076 4261     		str	r2, [r0, #20]
 755:hc32_ll_driver/src/hc32_ll_efm.c ****     /* Get CACHE status */
 756:hc32_ll_driver/src/hc32_ll_efm.c ****     u32Tmp = READ_REG32_BIT(CM_EFM->FRMC, EFM_CACHE_ALL);
 2280              		.loc 1 756 5 is_stmt 1 view .LVU529
 2281              		.loc 1 756 14 is_stmt 0 view .LVU530
 2282 0078 8568     		ldr	r5, [r0, #8]
 2283              		.loc 1 756 12 view .LVU531
 2284 007a 25F07E45 		bic	r5, r5, #-33554432
 2285 007e 25F47E05 		bic	r5, r5, #16646144
 2286 0082 2D0C     		lsrs	r5, r5, #16
 2287 0084 2D04     		lsls	r5, r5, #16
 2288              	.LVL213:
 757:hc32_ll_driver/src/hc32_ll_efm.c ****     /* Disable CACHE */
 758:hc32_ll_driver/src/hc32_ll_efm.c ****     CLR_REG32_BIT(CM_EFM->FRMC, EFM_CACHE_ALL);
 2289              		.loc 1 758 5 is_stmt 1 view .LVU532
 2290 0086 8268     		ldr	r2, [r0, #8]
 2291 0088 22F08072 		bic	r2, r2, #16777216
 2292 008c 22F48032 		bic	r2, r2, #65536
 2293 0090 8260     		str	r2, [r0, #8]
 759:hc32_ll_driver/src/hc32_ll_efm.c ****     /* Set sequence program mode. */
 760:hc32_ll_driver/src/hc32_ll_efm.c ****     MODIFY_REG32(CM_EFM->FWMC, EFM_FWMC_PEMOD, EFM_MD_PGM_SEQ);
 2294              		.loc 1 760 5 view .LVU533
 2295 0092 C268     		ldr	r2, [r0, #12]
 2296 0094 22F07002 		bic	r2, r2, #112
 2297 0098 42F03002 		orr	r2, r2, #48
 2298 009c C260     		str	r2, [r0, #12]
 761:hc32_ll_driver/src/hc32_ll_efm.c **** 
 762:hc32_ll_driver/src/hc32_ll_efm.c ****     while (u32LoopWords-- > 0UL) {
 2299              		.loc 1 762 5 view .LVU534
 733:hc32_ll_driver/src/hc32_ll_efm.c ****     uint32_t u32Tmp;
 2300              		.loc 1 733 13 is_stmt 0 view .LVU535
 2301 009e 0020     		movs	r0, #0
 2302              		.loc 1 762 11 view .LVU536
 2303 00a0 20E0     		b	.L210
 2304              	.LVL214:
 2305              	.L232:
 763:hc32_ll_driver/src/hc32_ll_efm.c ****         /* program data. */
 764:hc32_ll_driver/src/hc32_ll_efm.c ****         *u32pDest++ = *u32pSource++;
 765:hc32_ll_driver/src/hc32_ll_efm.c ****         /* wait for operation end flag. */
 766:hc32_ll_driver/src/hc32_ll_efm.c ****         u32Timeout = 0UL;
 767:hc32_ll_driver/src/hc32_ll_efm.c ****         while (EFM_FLAG_OPTEND != READ_REG32_BIT(CM_EFM->FSR, EFM_FLAG_OPTEND)) {
ARM GAS  C:\Users\mkand\AppData\Local\Temp\cc6Q7h6g.s 			page 58


 768:hc32_ll_driver/src/hc32_ll_efm.c ****             if (u32Timeout++ >= EFM_PGM_TIMEOUT) {
 769:hc32_ll_driver/src/hc32_ll_efm.c ****                 i32Ret = LL_ERR_TIMEOUT;
 2306              		.loc 1 769 24 view .LVU537
 2307 00a2 6FF00700 		mvn	r0, #7
 2308              	.LVL215:
 2309              	.L212:
 770:hc32_ll_driver/src/hc32_ll_efm.c ****                 break;
 771:hc32_ll_driver/src/hc32_ll_efm.c ****             }
 772:hc32_ll_driver/src/hc32_ll_efm.c ****         }
 773:hc32_ll_driver/src/hc32_ll_efm.c ****         /* Clear operation end flag */
 774:hc32_ll_driver/src/hc32_ll_efm.c ****         u32Timeout = 0UL;
 2310              		.loc 1 774 9 is_stmt 1 view .LVU538
 775:hc32_ll_driver/src/hc32_ll_efm.c ****         while (EFM_FLAG_OPTEND == READ_REG32_BIT(CM_EFM->FSR, EFM_FLAG_OPTEND)) {
 2311              		.loc 1 775 9 view .LVU539
 774:hc32_ll_driver/src/hc32_ll_efm.c ****         while (EFM_FLAG_OPTEND == READ_REG32_BIT(CM_EFM->FSR, EFM_FLAG_OPTEND)) {
 2312              		.loc 1 774 20 is_stmt 0 view .LVU540
 2313 00a6 7746     		mov	r7, lr
 2314              	.LVL216:
 2315              	.L214:
 2316              		.loc 1 775 32 is_stmt 1 view .LVU541
 2317              		.loc 1 775 35 is_stmt 0 view .LVU542
 2318 00a8 574B     		ldr	r3, .L239
 2319 00aa 1B69     		ldr	r3, [r3, #16]
 2320              		.loc 1 775 32 view .LVU543
 2321 00ac 13F0100F 		tst	r3, #16
 2322 00b0 17D0     		beq	.L215
 776:hc32_ll_driver/src/hc32_ll_efm.c ****             SET_REG32_BIT(CM_EFM->FSCLR, EFM_FLAG_OPTEND);
 2323              		.loc 1 776 13 is_stmt 1 view .LVU544
 2324 00b2 554A     		ldr	r2, .L239
 2325 00b4 5369     		ldr	r3, [r2, #20]
 2326 00b6 43F01003 		orr	r3, r3, #16
 2327 00ba 5361     		str	r3, [r2, #20]
 777:hc32_ll_driver/src/hc32_ll_efm.c ****             if (u32Timeout++ >= EFM_TIMEOUT) {
 2328              		.loc 1 777 13 view .LVU545
 2329              		.loc 1 777 27 is_stmt 0 view .LVU546
 2330 00bc 07F10108 		add	r8, r7, #1
 2331              	.LVL217:
 2332              		.loc 1 777 33 view .LVU547
 2333 00c0 554B     		ldr	r3, .L239+16
 2334 00c2 1A6A     		ldr	r2, [r3, #32]
 2335 00c4 C2F30262 		ubfx	r2, r2, #24, #3
 2336 00c8 544B     		ldr	r3, .L239+20
 2337 00ca 1B68     		ldr	r3, [r3]
 2338 00cc D340     		lsrs	r3, r3, r2
 2339 00ce 544A     		ldr	r2, .L239+24
 2340 00d0 A2FB0323 		umull	r2, r3, r2, r3
 2341              		.loc 1 777 16 view .LVU548
 2342 00d4 B7EB933F 		cmp	r7, r3, lsr #14
 2343 00d8 01D2     		bcs	.L233
 2344              		.loc 1 777 27 view .LVU549
 2345 00da 4746     		mov	r7, r8
 2346 00dc E4E7     		b	.L214
 2347              	.L233:
 778:hc32_ll_driver/src/hc32_ll_efm.c ****                 i32Ret = LL_ERR_TIMEOUT;
 2348              		.loc 1 778 24 view .LVU550
 2349 00de 6FF00700 		mvn	r0, #7
 2350              	.LVL218:
ARM GAS  C:\Users\mkand\AppData\Local\Temp\cc6Q7h6g.s 			page 59


 2351              	.L215:
 2352              		.loc 1 778 24 view .LVU551
 2353 00e2 2346     		mov	r3, r4
 2354              	.LVL219:
 2355              	.L210:
 762:hc32_ll_driver/src/hc32_ll_efm.c ****         /* program data. */
 2356              		.loc 1 762 27 is_stmt 1 view .LVU552
 762:hc32_ll_driver/src/hc32_ll_efm.c ****         /* program data. */
 2357              		.loc 1 762 24 is_stmt 0 view .LVU553
 2358 00e4 5C1E     		subs	r4, r3, #1
 2359              	.LVL220:
 762:hc32_ll_driver/src/hc32_ll_efm.c ****         /* program data. */
 2360              		.loc 1 762 27 view .LVU554
 2361 00e6 D3B1     		cbz	r3, .L238
 764:hc32_ll_driver/src/hc32_ll_efm.c ****         /* wait for operation end flag. */
 2362              		.loc 1 764 9 is_stmt 1 view .LVU555
 2363              	.LVL221:
 764:hc32_ll_driver/src/hc32_ll_efm.c ****         /* wait for operation end flag. */
 2364              		.loc 1 764 23 is_stmt 0 view .LVU556
 2365 00e8 51F8043B 		ldr	r3, [r1], #4
 2366              	.LVL222:
 764:hc32_ll_driver/src/hc32_ll_efm.c ****         /* wait for operation end flag. */
 2367              		.loc 1 764 21 view .LVU557
 2368 00ec 4CF8043B 		str	r3, [ip], #4
 2369              	.LVL223:
 766:hc32_ll_driver/src/hc32_ll_efm.c ****         while (EFM_FLAG_OPTEND != READ_REG32_BIT(CM_EFM->FSR, EFM_FLAG_OPTEND)) {
 2370              		.loc 1 766 9 is_stmt 1 view .LVU558
 767:hc32_ll_driver/src/hc32_ll_efm.c ****             if (u32Timeout++ >= EFM_PGM_TIMEOUT) {
 2371              		.loc 1 767 9 view .LVU559
 766:hc32_ll_driver/src/hc32_ll_efm.c ****         while (EFM_FLAG_OPTEND != READ_REG32_BIT(CM_EFM->FSR, EFM_FLAG_OPTEND)) {
 2372              		.loc 1 766 20 is_stmt 0 view .LVU560
 2373 00f0 7746     		mov	r7, lr
 2374              	.LVL224:
 2375              	.L211:
 767:hc32_ll_driver/src/hc32_ll_efm.c ****             if (u32Timeout++ >= EFM_PGM_TIMEOUT) {
 2376              		.loc 1 767 32 is_stmt 1 view .LVU561
 767:hc32_ll_driver/src/hc32_ll_efm.c ****             if (u32Timeout++ >= EFM_PGM_TIMEOUT) {
 2377              		.loc 1 767 35 is_stmt 0 view .LVU562
 2378 00f2 454B     		ldr	r3, .L239
 2379 00f4 1B69     		ldr	r3, [r3, #16]
 767:hc32_ll_driver/src/hc32_ll_efm.c ****             if (u32Timeout++ >= EFM_PGM_TIMEOUT) {
 2380              		.loc 1 767 32 view .LVU563
 2381 00f6 13F0100F 		tst	r3, #16
 2382 00fa D4D1     		bne	.L212
 768:hc32_ll_driver/src/hc32_ll_efm.c ****                 i32Ret = LL_ERR_TIMEOUT;
 2383              		.loc 1 768 13 is_stmt 1 view .LVU564
 768:hc32_ll_driver/src/hc32_ll_efm.c ****                 i32Ret = LL_ERR_TIMEOUT;
 2384              		.loc 1 768 27 is_stmt 0 view .LVU565
 2385 00fc 07F10108 		add	r8, r7, #1
 2386              	.LVL225:
 768:hc32_ll_driver/src/hc32_ll_efm.c ****                 i32Ret = LL_ERR_TIMEOUT;
 2387              		.loc 1 768 33 view .LVU566
 2388 0100 454B     		ldr	r3, .L239+16
 2389 0102 1A6A     		ldr	r2, [r3, #32]
 2390 0104 C2F30262 		ubfx	r2, r2, #24, #3
 2391 0108 444B     		ldr	r3, .L239+20
 2392 010a 1B68     		ldr	r3, [r3]
ARM GAS  C:\Users\mkand\AppData\Local\Temp\cc6Q7h6g.s 			page 60


 2393 010c D340     		lsrs	r3, r3, r2
 2394 010e 444A     		ldr	r2, .L239+24
 2395 0110 A2FB0323 		umull	r2, r3, r2, r3
 768:hc32_ll_driver/src/hc32_ll_efm.c ****                 i32Ret = LL_ERR_TIMEOUT;
 2396              		.loc 1 768 16 view .LVU567
 2397 0114 B7EB933F 		cmp	r7, r3, lsr #14
 2398 0118 C3D2     		bcs	.L232
 768:hc32_ll_driver/src/hc32_ll_efm.c ****                 i32Ret = LL_ERR_TIMEOUT;
 2399              		.loc 1 768 27 view .LVU568
 2400 011a 4746     		mov	r7, r8
 2401 011c E9E7     		b	.L211
 2402              	.LVL226:
 2403              	.L238:
 779:hc32_ll_driver/src/hc32_ll_efm.c ****                 break;
 780:hc32_ll_driver/src/hc32_ll_efm.c ****             }
 781:hc32_ll_driver/src/hc32_ll_efm.c ****         }
 782:hc32_ll_driver/src/hc32_ll_efm.c ****     }
 783:hc32_ll_driver/src/hc32_ll_efm.c **** 
 784:hc32_ll_driver/src/hc32_ll_efm.c ****     if (0U != u32RemainBytes) {
 2404              		.loc 1 784 5 is_stmt 1 view .LVU569
 2405              		.loc 1 784 8 is_stmt 0 view .LVU570
 2406 011e 002E     		cmp	r6, #0
 2407 0120 3CD0     		beq	.L218
 785:hc32_ll_driver/src/hc32_ll_efm.c ****         u32LastWord = *u32pSource;
 2408              		.loc 1 785 9 is_stmt 1 view .LVU571
 2409              		.loc 1 785 21 is_stmt 0 view .LVU572
 2410 0122 0968     		ldr	r1, [r1]
 2411              	.LVL227:
 786:hc32_ll_driver/src/hc32_ll_efm.c ****         u32LastWord |= 0xFFFFFFFFUL << (u32RemainBytes * 8UL);
 2412              		.loc 1 786 9 is_stmt 1 view .LVU573
 2413              		.loc 1 786 56 is_stmt 0 view .LVU574
 2414 0124 F600     		lsls	r6, r6, #3
 2415              	.LVL228:
 2416              		.loc 1 786 37 view .LVU575
 2417 0126 4FF0FF32 		mov	r2, #-1
 2418 012a B240     		lsls	r2, r2, r6
 2419              		.loc 1 786 21 view .LVU576
 2420 012c 0A43     		orrs	r2, r2, r1
 2421              	.LVL229:
 787:hc32_ll_driver/src/hc32_ll_efm.c ****         *u32pDest++ = u32LastWord;
 2422              		.loc 1 787 9 is_stmt 1 view .LVU577
 2423              		.loc 1 787 21 is_stmt 0 view .LVU578
 2424 012e CCF80020 		str	r2, [ip]
 788:hc32_ll_driver/src/hc32_ll_efm.c **** 
 789:hc32_ll_driver/src/hc32_ll_efm.c ****         /* wait for operation end flag. */
 790:hc32_ll_driver/src/hc32_ll_efm.c ****         u32Timeout = 0UL;
 2425              		.loc 1 790 9 is_stmt 1 view .LVU579
 2426              	.LVL230:
 791:hc32_ll_driver/src/hc32_ll_efm.c ****         while (EFM_FLAG_OPTEND != READ_REG32_BIT(CM_EFM->FSR, EFM_FLAG_OPTEND)) {
 2427              		.loc 1 791 9 view .LVU580
 790:hc32_ll_driver/src/hc32_ll_efm.c ****         while (EFM_FLAG_OPTEND != READ_REG32_BIT(CM_EFM->FSR, EFM_FLAG_OPTEND)) {
 2428              		.loc 1 790 20 is_stmt 0 view .LVU581
 2429 0132 1C46     		mov	r4, r3
 2430              	.LVL231:
 2431              	.L219:
 2432              		.loc 1 791 32 is_stmt 1 view .LVU582
 2433              		.loc 1 791 35 is_stmt 0 view .LVU583
ARM GAS  C:\Users\mkand\AppData\Local\Temp\cc6Q7h6g.s 			page 61


 2434 0134 344A     		ldr	r2, .L239
 2435 0136 1269     		ldr	r2, [r2, #16]
 2436              		.loc 1 791 32 view .LVU584
 2437 0138 12F0100F 		tst	r2, #16
 2438 013c 11D1     		bne	.L220
 792:hc32_ll_driver/src/hc32_ll_efm.c ****             if (u32Timeout++ >= EFM_PGM_TIMEOUT) {
 2439              		.loc 1 792 13 is_stmt 1 view .LVU585
 2440              		.loc 1 792 27 is_stmt 0 view .LVU586
 2441 013e 661C     		adds	r6, r4, #1
 2442              	.LVL232:
 2443              		.loc 1 792 33 view .LVU587
 2444 0140 354A     		ldr	r2, .L239+16
 2445 0142 116A     		ldr	r1, [r2, #32]
 2446 0144 C1F30261 		ubfx	r1, r1, #24, #3
 2447 0148 344A     		ldr	r2, .L239+20
 2448 014a 1268     		ldr	r2, [r2]
 2449 014c CA40     		lsrs	r2, r2, r1
 2450 014e 3449     		ldr	r1, .L239+24
 2451 0150 A1FB0212 		umull	r1, r2, r1, r2
 2452              		.loc 1 792 16 view .LVU588
 2453 0154 B4EB923F 		cmp	r4, r2, lsr #14
 2454 0158 01D2     		bcs	.L234
 2455              		.loc 1 792 27 view .LVU589
 2456 015a 3446     		mov	r4, r6
 2457 015c EAE7     		b	.L219
 2458              	.L234:
 793:hc32_ll_driver/src/hc32_ll_efm.c ****                 i32Ret = LL_ERR_TIMEOUT;
 2459              		.loc 1 793 24 view .LVU590
 2460 015e 6FF00700 		mvn	r0, #7
 2461              	.LVL233:
 2462              	.L220:
 794:hc32_ll_driver/src/hc32_ll_efm.c ****                 break;
 795:hc32_ll_driver/src/hc32_ll_efm.c ****             }
 796:hc32_ll_driver/src/hc32_ll_efm.c ****         }
 797:hc32_ll_driver/src/hc32_ll_efm.c ****         /* Clear operation end flag */
 798:hc32_ll_driver/src/hc32_ll_efm.c ****         u32Timeout = 0UL;
 2463              		.loc 1 798 9 is_stmt 1 view .LVU591
 799:hc32_ll_driver/src/hc32_ll_efm.c ****         while (EFM_FLAG_OPTEND == READ_REG32_BIT(CM_EFM->FSR, EFM_FLAG_OPTEND)) {
 2464              		.loc 1 799 9 view .LVU592
 798:hc32_ll_driver/src/hc32_ll_efm.c ****         while (EFM_FLAG_OPTEND == READ_REG32_BIT(CM_EFM->FSR, EFM_FLAG_OPTEND)) {
 2465              		.loc 1 798 20 is_stmt 0 view .LVU593
 2466 0162 1C46     		mov	r4, r3
 2467              	.LVL234:
 2468              	.L222:
 2469              		.loc 1 799 32 is_stmt 1 view .LVU594
 2470              		.loc 1 799 35 is_stmt 0 view .LVU595
 2471 0164 284A     		ldr	r2, .L239
 2472 0166 1269     		ldr	r2, [r2, #16]
 2473              		.loc 1 799 32 view .LVU596
 2474 0168 12F0100F 		tst	r2, #16
 2475 016c 16D0     		beq	.L218
 800:hc32_ll_driver/src/hc32_ll_efm.c ****             SET_REG32_BIT(CM_EFM->FSCLR, EFM_FLAG_OPTEND);
 2476              		.loc 1 800 13 is_stmt 1 view .LVU597
 2477 016e 2649     		ldr	r1, .L239
 2478 0170 4A69     		ldr	r2, [r1, #20]
 2479 0172 42F01002 		orr	r2, r2, #16
 2480 0176 4A61     		str	r2, [r1, #20]
ARM GAS  C:\Users\mkand\AppData\Local\Temp\cc6Q7h6g.s 			page 62


 801:hc32_ll_driver/src/hc32_ll_efm.c ****             if (u32Timeout++ >= EFM_TIMEOUT) {
 2481              		.loc 1 801 13 view .LVU598
 2482              		.loc 1 801 27 is_stmt 0 view .LVU599
 2483 0178 661C     		adds	r6, r4, #1
 2484              	.LVL235:
 2485              		.loc 1 801 33 view .LVU600
 2486 017a 274A     		ldr	r2, .L239+16
 2487 017c 116A     		ldr	r1, [r2, #32]
 2488 017e C1F30261 		ubfx	r1, r1, #24, #3
 2489 0182 264A     		ldr	r2, .L239+20
 2490 0184 1268     		ldr	r2, [r2]
 2491 0186 CA40     		lsrs	r2, r2, r1
 2492 0188 2549     		ldr	r1, .L239+24
 2493 018a A1FB0212 		umull	r1, r2, r1, r2
 2494              		.loc 1 801 16 view .LVU601
 2495 018e B4EB923F 		cmp	r4, r2, lsr #14
 2496 0192 01D2     		bcs	.L235
 2497              		.loc 1 801 27 view .LVU602
 2498 0194 3446     		mov	r4, r6
 2499 0196 E5E7     		b	.L222
 2500              	.L235:
 802:hc32_ll_driver/src/hc32_ll_efm.c ****                 i32Ret = LL_ERR_TIMEOUT;
 2501              		.loc 1 802 24 view .LVU603
 2502 0198 6FF00700 		mvn	r0, #7
 2503              	.LVL236:
 2504              	.L218:
 803:hc32_ll_driver/src/hc32_ll_efm.c ****                 break;
 804:hc32_ll_driver/src/hc32_ll_efm.c ****             }
 805:hc32_ll_driver/src/hc32_ll_efm.c ****         }
 806:hc32_ll_driver/src/hc32_ll_efm.c **** 
 807:hc32_ll_driver/src/hc32_ll_efm.c ****     }
 808:hc32_ll_driver/src/hc32_ll_efm.c **** 
 809:hc32_ll_driver/src/hc32_ll_efm.c ****     /* Set read only mode. */
 810:hc32_ll_driver/src/hc32_ll_efm.c ****     MODIFY_REG32(CM_EFM->FWMC, EFM_FWMC_PEMOD, EFM_MD_READONLY);
 2505              		.loc 1 810 5 is_stmt 1 view .LVU604
 2506 019c 1A49     		ldr	r1, .L239
 2507 019e CA68     		ldr	r2, [r1, #12]
 2508 01a0 22F07002 		bic	r2, r2, #112
 2509 01a4 CA60     		str	r2, [r1, #12]
 811:hc32_ll_driver/src/hc32_ll_efm.c ****     /* Wait for ready flag. */
 812:hc32_ll_driver/src/hc32_ll_efm.c ****     u32Timeout = 0UL;
 2510              		.loc 1 812 5 view .LVU605
 2511              	.LVL237:
 813:hc32_ll_driver/src/hc32_ll_efm.c ****     while (EFM_FLAG_RDY != READ_REG32_BIT(CM_EFM->FSR, EFM_FLAG_RDY)) {
 2512              		.loc 1 813 5 view .LVU606
 2513              	.L224:
 2514              		.loc 1 813 25 view .LVU607
 2515              		.loc 1 813 28 is_stmt 0 view .LVU608
 2516 01a6 184A     		ldr	r2, .L239
 2517 01a8 1269     		ldr	r2, [r2, #16]
 2518              		.loc 1 813 25 view .LVU609
 2519 01aa 12F4807F 		tst	r2, #256
 2520 01ae 11D1     		bne	.L225
 814:hc32_ll_driver/src/hc32_ll_efm.c ****         if (u32Timeout++ >= EFM_PGM_TIMEOUT) {
 2521              		.loc 1 814 9 is_stmt 1 view .LVU610
 2522              		.loc 1 814 23 is_stmt 0 view .LVU611
 2523 01b0 5C1C     		adds	r4, r3, #1
ARM GAS  C:\Users\mkand\AppData\Local\Temp\cc6Q7h6g.s 			page 63


 2524              	.LVL238:
 2525              		.loc 1 814 29 view .LVU612
 2526 01b2 194A     		ldr	r2, .L239+16
 2527 01b4 116A     		ldr	r1, [r2, #32]
 2528 01b6 C1F30261 		ubfx	r1, r1, #24, #3
 2529 01ba 184A     		ldr	r2, .L239+20
 2530 01bc 1268     		ldr	r2, [r2]
 2531 01be CA40     		lsrs	r2, r2, r1
 2532 01c0 1749     		ldr	r1, .L239+24
 2533 01c2 A1FB0212 		umull	r1, r2, r1, r2
 2534              		.loc 1 814 12 view .LVU613
 2535 01c6 B3EB923F 		cmp	r3, r2, lsr #14
 2536 01ca 01D2     		bcs	.L236
 2537              		.loc 1 814 23 view .LVU614
 2538 01cc 2346     		mov	r3, r4
 2539 01ce EAE7     		b	.L224
 2540              	.L236:
 815:hc32_ll_driver/src/hc32_ll_efm.c ****             i32Ret = LL_ERR_TIMEOUT;
 2541              		.loc 1 815 20 view .LVU615
 2542 01d0 6FF00700 		mvn	r0, #7
 2543              	.LVL239:
 2544              	.L225:
 816:hc32_ll_driver/src/hc32_ll_efm.c ****             break;
 817:hc32_ll_driver/src/hc32_ll_efm.c ****         }
 818:hc32_ll_driver/src/hc32_ll_efm.c ****     }
 819:hc32_ll_driver/src/hc32_ll_efm.c **** 
 820:hc32_ll_driver/src/hc32_ll_efm.c ****     /* Recover CACHE */
 821:hc32_ll_driver/src/hc32_ll_efm.c ****     MODIFY_REG32(CM_EFM->FRMC, EFM_CACHE_ALL, u32Tmp);
 2545              		.loc 1 821 5 is_stmt 1 view .LVU616
 2546 01d4 0C4A     		ldr	r2, .L239
 2547 01d6 9368     		ldr	r3, [r2, #8]
 2548 01d8 23F08073 		bic	r3, r3, #16777216
 2549 01dc 23F48033 		bic	r3, r3, #65536
 2550 01e0 2B43     		orrs	r3, r3, r5
 2551 01e2 9360     		str	r3, [r2, #8]
 822:hc32_ll_driver/src/hc32_ll_efm.c ****     return i32Ret;
 2552              		.loc 1 822 5 view .LVU617
 2553              	.LVL240:
 2554              	.L206:
 823:hc32_ll_driver/src/hc32_ll_efm.c **** }
 2555              		.loc 1 823 1 is_stmt 0 view .LVU618
 2556 01e4 BDE8F081 		pop	{r4, r5, r6, r7, r8, pc}
 2557              	.LVL241:
 2558              	.L227:
 744:hc32_ll_driver/src/hc32_ll_efm.c ****     }
 2559              		.loc 1 744 16 view .LVU619
 2560 01e8 6FF00400 		mvn	r0, #4
 2561              	.LVL242:
 744:hc32_ll_driver/src/hc32_ll_efm.c ****     }
 2562              		.loc 1 744 16 view .LVU620
 2563 01ec FAE7     		b	.L206
 2564              	.LVL243:
 2565              	.L228:
 747:hc32_ll_driver/src/hc32_ll_efm.c ****     }
 2566              		.loc 1 747 16 view .LVU621
 2567 01ee 6FF00200 		mvn	r0, #2
 2568              	.LVL244:
ARM GAS  C:\Users\mkand\AppData\Local\Temp\cc6Q7h6g.s 			page 64


 747:hc32_ll_driver/src/hc32_ll_efm.c ****     }
 2569              		.loc 1 747 16 view .LVU622
 2570 01f2 F7E7     		b	.L206
 2571              	.LVL245:
 2572              	.L229:
 747:hc32_ll_driver/src/hc32_ll_efm.c ****     }
 2573              		.loc 1 747 16 view .LVU623
 2574 01f4 6FF00200 		mvn	r0, #2
 2575              	.LVL246:
 747:hc32_ll_driver/src/hc32_ll_efm.c ****     }
 2576              		.loc 1 747 16 view .LVU624
 2577 01f8 F4E7     		b	.L206
 2578              	.LVL247:
 2579              	.L230:
 747:hc32_ll_driver/src/hc32_ll_efm.c ****     }
 2580              		.loc 1 747 16 view .LVU625
 2581 01fa 6FF00200 		mvn	r0, #2
 2582              	.LVL248:
 747:hc32_ll_driver/src/hc32_ll_efm.c ****     }
 2583              		.loc 1 747 16 view .LVU626
 2584 01fe F1E7     		b	.L206
 2585              	.LVL249:
 2586              	.L231:
 750:hc32_ll_driver/src/hc32_ll_efm.c ****     }
 2587              		.loc 1 750 16 view .LVU627
 2588 0200 6FF00200 		mvn	r0, #2
 2589              	.LVL250:
 750:hc32_ll_driver/src/hc32_ll_efm.c ****     }
 2590              		.loc 1 750 16 view .LVU628
 2591 0204 EEE7     		b	.L206
 2592              	.L240:
 2593 0206 00BF     		.align	2
 2594              	.L239:
 2595 0208 00040140 		.word	1073808384
 2596 020c 00802042 		.word	1109426176
 2597 0210 2000E8FC 		.word	-51904480
 2598 0214 1F00E8FC 		.word	-51904481
 2599 0218 00400540 		.word	1074085888
 2600 021c 00000000 		.word	SystemCoreClock
 2601 0220 5917B7D1 		.word	-776530087
 2602              		.cfi_endproc
 2603              	.LFE156:
 2605              		.section	.text.EFM_SectorErase,"ax",%progbits
 2606              		.align	1
 2607              		.global	EFM_SectorErase
 2608              		.syntax unified
 2609              		.thumb
 2610              		.thumb_func
 2612              	EFM_SectorErase:
 2613              	.LVL251:
 2614              	.LFB157:
 824:hc32_ll_driver/src/hc32_ll_efm.c **** 
 825:hc32_ll_driver/src/hc32_ll_efm.c **** /**
 826:hc32_ll_driver/src/hc32_ll_efm.c ****  * @brief  EFM sector erase.
 827:hc32_ll_driver/src/hc32_ll_efm.c ****  * @param  [in] u32Addr                   The address in the specified sector.
 828:hc32_ll_driver/src/hc32_ll_efm.c ****  * @retval int32_t:
 829:hc32_ll_driver/src/hc32_ll_efm.c ****  *         - LL_OK: Erase successful.
ARM GAS  C:\Users\mkand\AppData\Local\Temp\cc6Q7h6g.s 			page 65


 830:hc32_ll_driver/src/hc32_ll_efm.c ****  *         - LL_ERR_NOT_RDY: EFM is not ready.
 831:hc32_ll_driver/src/hc32_ll_efm.c ****  * @note   Call EFM_REG_Unlock() unlock EFM register first.
 832:hc32_ll_driver/src/hc32_ll_efm.c ****  */
 833:hc32_ll_driver/src/hc32_ll_efm.c **** int32_t EFM_SectorErase(uint32_t u32Addr)
 834:hc32_ll_driver/src/hc32_ll_efm.c **** {
 2615              		.loc 1 834 1 is_stmt 1 view -0
 2616              		.cfi_startproc
 2617              		@ args = 0, pretend = 0, frame = 0
 2618              		@ frame_needed = 0, uses_anonymous_args = 0
 2619              		.loc 1 834 1 is_stmt 0 view .LVU630
 2620 0000 38B5     		push	{r3, r4, r5, lr}
 2621              	.LCFI21:
 2622              		.cfi_def_cfa_offset 16
 2623              		.cfi_offset 3, -16
 2624              		.cfi_offset 4, -12
 2625              		.cfi_offset 5, -8
 2626              		.cfi_offset 14, -4
 2627 0002 0446     		mov	r4, r0
 835:hc32_ll_driver/src/hc32_ll_efm.c ****     int32_t i32Ret = LL_OK;
 2628              		.loc 1 835 5 is_stmt 1 view .LVU631
 2629              	.LVL252:
 836:hc32_ll_driver/src/hc32_ll_efm.c ****     uint32_t u32Tmp;
 2630              		.loc 1 836 5 view .LVU632
 837:hc32_ll_driver/src/hc32_ll_efm.c ****     uint8_t u8Shift;
 2631              		.loc 1 837 5 view .LVU633
 838:hc32_ll_driver/src/hc32_ll_efm.c **** 
 839:hc32_ll_driver/src/hc32_ll_efm.c ****     DDL_ASSERT(IS_EFM_ERASE_ADDR(u32Addr));
 2632              		.loc 1 839 5 view .LVU634
 2633              		.loc 1 839 5 view .LVU635
 2634 0004 B0F5002F 		cmp	r0, #524288
 2635 0008 49D2     		bcs	.L249
 2636              	.LVL253:
 2637              	.L242:
 2638              		.loc 1 839 5 discriminator 3 view .LVU636
 840:hc32_ll_driver/src/hc32_ll_efm.c ****     DDL_ASSERT(IS_ADDR_ALIGN_WORD(u32Addr));
 2639              		.loc 1 840 5 discriminator 3 view .LVU637
 2640              		.loc 1 840 5 discriminator 3 view .LVU638
 2641 000a 14F0030F 		tst	r4, #3
 2642 000e 4CD1     		bne	.L250
 2643              	.L243:
 2644              		.loc 1 840 5 discriminator 3 view .LVU639
 841:hc32_ll_driver/src/hc32_ll_efm.c ****     DDL_ASSERT(IS_EFM_REG_UNLOCK());
 2645              		.loc 1 841 5 discriminator 3 view .LVU640
 2646              		.loc 1 841 5 discriminator 3 view .LVU641
 2647 0010 304B     		ldr	r3, .L253
 2648 0012 1B68     		ldr	r3, [r3]
 2649 0014 012B     		cmp	r3, #1
 2650 0016 4ED1     		bne	.L251
 2651              	.L244:
 2652              		.loc 1 841 5 discriminator 3 view .LVU642
 842:hc32_ll_driver/src/hc32_ll_efm.c ****     DDL_ASSERT(IS_EFM_FWMC_UNLOCK());
 2653              		.loc 1 842 5 discriminator 3 view .LVU643
 2654              		.loc 1 842 5 discriminator 3 view .LVU644
 2655 0018 2F4B     		ldr	r3, .L253+4
 2656 001a D3F88031 		ldr	r3, [r3, #384]
 2657 001e 012B     		cmp	r3, #1
 2658 0020 4FD1     		bne	.L252
ARM GAS  C:\Users\mkand\AppData\Local\Temp\cc6Q7h6g.s 			page 66


 2659              	.L245:
 2660              		.loc 1 842 5 discriminator 3 view .LVU645
 843:hc32_ll_driver/src/hc32_ll_efm.c **** 
 844:hc32_ll_driver/src/hc32_ll_efm.c ****     /* CLear the error flag. */
 845:hc32_ll_driver/src/hc32_ll_efm.c ****     EFM_ClearStatus(EFM_FLAG_ALL);
 2661              		.loc 1 845 5 discriminator 3 view .LVU646
 2662 0022 40F23F10 		movw	r0, #319
 2663 0026 FFF7FEFF 		bl	EFM_ClearStatus
 2664              	.LVL254:
 846:hc32_ll_driver/src/hc32_ll_efm.c ****     /* Get CACHE status */
 847:hc32_ll_driver/src/hc32_ll_efm.c ****     u32Tmp = READ_REG32_BIT(CM_EFM->FRMC, EFM_CACHE_ALL);
 2665              		.loc 1 847 5 discriminator 3 view .LVU647
 2666              		.loc 1 847 14 is_stmt 0 discriminator 3 view .LVU648
 2667 002a 2A4B     		ldr	r3, .L253
 2668 002c 9D68     		ldr	r5, [r3, #8]
 2669              		.loc 1 847 12 discriminator 3 view .LVU649
 2670 002e 25F07E45 		bic	r5, r5, #-33554432
 2671 0032 25F47E05 		bic	r5, r5, #16646144
 2672 0036 2D0C     		lsrs	r5, r5, #16
 2673 0038 2D04     		lsls	r5, r5, #16
 2674              	.LVL255:
 848:hc32_ll_driver/src/hc32_ll_efm.c ****     /* Disable CACHE */
 849:hc32_ll_driver/src/hc32_ll_efm.c ****     CLR_REG32_BIT(CM_EFM->FRMC, EFM_CACHE_ALL);
 2675              		.loc 1 849 5 is_stmt 1 discriminator 3 view .LVU650
 2676 003a 9A68     		ldr	r2, [r3, #8]
 2677 003c 22F08072 		bic	r2, r2, #16777216
 2678 0040 22F48032 		bic	r2, r2, #65536
 2679 0044 9A60     		str	r2, [r3, #8]
 850:hc32_ll_driver/src/hc32_ll_efm.c ****     u8Shift = 0U;
 2680              		.loc 1 850 5 discriminator 3 view .LVU651
 2681              	.LVL256:
 851:hc32_ll_driver/src/hc32_ll_efm.c ****     /* Set sector erase mode. */
 852:hc32_ll_driver/src/hc32_ll_efm.c ****     MODIFY_REG32(CM_EFM->FWMC, EFM_FWMC_PEMOD, EFM_MD_ERASE_SECTOR);
 2682              		.loc 1 852 5 discriminator 3 view .LVU652
 2683 0046 DA68     		ldr	r2, [r3, #12]
 2684 0048 22F07002 		bic	r2, r2, #112
 2685 004c 42F04002 		orr	r2, r2, #64
 2686 0050 DA60     		str	r2, [r3, #12]
 853:hc32_ll_driver/src/hc32_ll_efm.c **** 
 854:hc32_ll_driver/src/hc32_ll_efm.c ****     /* Erase */
 855:hc32_ll_driver/src/hc32_ll_efm.c ****     RW_MEM32(u32Addr) = 0UL;
 2687              		.loc 1 855 5 discriminator 3 view .LVU653
 2688              		.loc 1 855 23 is_stmt 0 discriminator 3 view .LVU654
 2689 0052 0023     		movs	r3, #0
 2690 0054 2360     		str	r3, [r4]
 856:hc32_ll_driver/src/hc32_ll_efm.c **** 
 857:hc32_ll_driver/src/hc32_ll_efm.c ****     /* Wait for ready flag. */
 858:hc32_ll_driver/src/hc32_ll_efm.c ****     if (LL_ERR_TIMEOUT == EFM_WaitFlag(EFM_FLAG_RDY << u8Shift, EFM_ERASE_TIMEOUT)) {
 2691              		.loc 1 858 5 is_stmt 1 discriminator 3 view .LVU655
 2692              		.loc 1 858 65 is_stmt 0 discriminator 3 view .LVU656
 2693 0056 214B     		ldr	r3, .L253+8
 2694 0058 1B6A     		ldr	r3, [r3, #32]
 2695 005a C3F30263 		ubfx	r3, r3, #24, #3
 2696 005e 204A     		ldr	r2, .L253+12
 2697 0060 1168     		ldr	r1, [r2]
 2698 0062 D940     		lsrs	r1, r1, r3
 2699              		.loc 1 858 27 discriminator 3 view .LVU657
ARM GAS  C:\Users\mkand\AppData\Local\Temp\cc6Q7h6g.s 			page 67


 2700 0064 1F4B     		ldr	r3, .L253+16
 2701 0066 A3FB0131 		umull	r3, r1, r3, r1
 2702 006a 0909     		lsrs	r1, r1, #4
 2703 006c 4FF48070 		mov	r0, #256
 2704 0070 FFF7FEFF 		bl	EFM_WaitFlag
 2705              	.LVL257:
 2706              		.loc 1 858 8 discriminator 3 view .LVU658
 2707 0074 10F1080F 		cmn	r0, #8
 2708 0078 29D0     		beq	.L247
 835:hc32_ll_driver/src/hc32_ll_efm.c ****     uint32_t u32Tmp;
 2709              		.loc 1 835 13 view .LVU659
 2710 007a 0024     		movs	r4, #0
 2711              	.LVL258:
 2712              	.L246:
 859:hc32_ll_driver/src/hc32_ll_efm.c ****         i32Ret = LL_ERR_NOT_RDY;
 860:hc32_ll_driver/src/hc32_ll_efm.c ****     }
 861:hc32_ll_driver/src/hc32_ll_efm.c ****     /* Clear the operation end flag */
 862:hc32_ll_driver/src/hc32_ll_efm.c ****     EFM_ClearStatus(EFM_FLAG_OPTEND << u8Shift);
 2713              		.loc 1 862 5 is_stmt 1 view .LVU660
 2714 007c 1020     		movs	r0, #16
 2715 007e FFF7FEFF 		bl	EFM_ClearStatus
 2716              	.LVL259:
 863:hc32_ll_driver/src/hc32_ll_efm.c ****     /* Set read only mode. */
 864:hc32_ll_driver/src/hc32_ll_efm.c ****     MODIFY_REG32(CM_EFM->FWMC, EFM_FWMC_PEMOD, EFM_MD_READONLY);
 2717              		.loc 1 864 5 view .LVU661
 2718 0082 144A     		ldr	r2, .L253
 2719 0084 D368     		ldr	r3, [r2, #12]
 2720 0086 23F07003 		bic	r3, r3, #112
 2721 008a D360     		str	r3, [r2, #12]
 865:hc32_ll_driver/src/hc32_ll_efm.c ****     /* Recover CACHE */
 866:hc32_ll_driver/src/hc32_ll_efm.c ****     MODIFY_REG32(CM_EFM->FRMC, EFM_CACHE_ALL, u32Tmp);
 2722              		.loc 1 866 5 view .LVU662
 2723 008c 9368     		ldr	r3, [r2, #8]
 2724 008e 23F08073 		bic	r3, r3, #16777216
 2725 0092 23F48033 		bic	r3, r3, #65536
 2726 0096 2B43     		orrs	r3, r3, r5
 2727 0098 9360     		str	r3, [r2, #8]
 867:hc32_ll_driver/src/hc32_ll_efm.c **** 
 868:hc32_ll_driver/src/hc32_ll_efm.c ****     return i32Ret;
 2728              		.loc 1 868 5 view .LVU663
 869:hc32_ll_driver/src/hc32_ll_efm.c **** }
 2729              		.loc 1 869 1 is_stmt 0 view .LVU664
 2730 009a 2046     		mov	r0, r4
 2731 009c 38BD     		pop	{r3, r4, r5, pc}
 2732              	.LVL260:
 2733              	.L249:
 839:hc32_ll_driver/src/hc32_ll_efm.c ****     DDL_ASSERT(IS_ADDR_ALIGN_WORD(u32Addr));
 2734              		.loc 1 839 5 discriminator 1 view .LVU665
 2735 009e 40F24731 		movw	r1, #839
 2736 00a2 1148     		ldr	r0, .L253+20
 2737              	.LVL261:
 839:hc32_ll_driver/src/hc32_ll_efm.c ****     DDL_ASSERT(IS_ADDR_ALIGN_WORD(u32Addr));
 2738              		.loc 1 839 5 discriminator 1 view .LVU666
 2739 00a4 FFF7FEFF 		bl	DDL_AssertHandler
 2740              	.LVL262:
 2741 00a8 AFE7     		b	.L242
 2742              	.L250:
ARM GAS  C:\Users\mkand\AppData\Local\Temp\cc6Q7h6g.s 			page 68


 840:hc32_ll_driver/src/hc32_ll_efm.c ****     DDL_ASSERT(IS_EFM_REG_UNLOCK());
 2743              		.loc 1 840 5 discriminator 1 view .LVU667
 2744 00aa 4FF45271 		mov	r1, #840
 2745 00ae 0E48     		ldr	r0, .L253+20
 2746 00b0 FFF7FEFF 		bl	DDL_AssertHandler
 2747              	.LVL263:
 2748 00b4 ACE7     		b	.L243
 2749              	.L251:
 841:hc32_ll_driver/src/hc32_ll_efm.c ****     DDL_ASSERT(IS_EFM_FWMC_UNLOCK());
 2750              		.loc 1 841 5 discriminator 1 view .LVU668
 2751 00b6 40F24931 		movw	r1, #841
 2752 00ba 0B48     		ldr	r0, .L253+20
 2753 00bc FFF7FEFF 		bl	DDL_AssertHandler
 2754              	.LVL264:
 2755 00c0 AAE7     		b	.L244
 2756              	.L252:
 842:hc32_ll_driver/src/hc32_ll_efm.c **** 
 2757              		.loc 1 842 5 discriminator 1 view .LVU669
 2758 00c2 40F24A31 		movw	r1, #842
 2759 00c6 0848     		ldr	r0, .L253+20
 2760 00c8 FFF7FEFF 		bl	DDL_AssertHandler
 2761              	.LVL265:
 2762 00cc A9E7     		b	.L245
 2763              	.LVL266:
 2764              	.L247:
 859:hc32_ll_driver/src/hc32_ll_efm.c ****     }
 2765              		.loc 1 859 16 view .LVU670
 2766 00ce 6FF00404 		mvn	r4, #4
 2767              	.LVL267:
 859:hc32_ll_driver/src/hc32_ll_efm.c ****     }
 2768              		.loc 1 859 16 view .LVU671
