ARM GAS  C:\Users\mkand\AppData\Local\Temp\ccWWjlsL.s 			page 1


   1              		.cpu cortex-m4
   2              		.arch armv7e-m
   3              		.fpu fpv4-sp-d16
   4              		.eabi_attribute 27, 1
   5              		.eabi_attribute 28, 1
   6              		.eabi_attribute 20, 1
   7              		.eabi_attribute 21, 1
   8              		.eabi_attribute 23, 3
   9              		.eabi_attribute 24, 1
  10              		.eabi_attribute 25, 1
  11              		.eabi_attribute 26, 1
  12              		.eabi_attribute 30, 1
  13              		.eabi_attribute 34, 1
  14              		.eabi_attribute 18, 4
  15              		.file	"main.c"
  16              		.text
  17              	.Ltext0:
  18              		.cfi_sections	.debug_frame
  19              		.file 1 "src/main.c"
  20              		.section	.text.LED_Init,"ax",%progbits
  21              		.align	1
  22              		.syntax unified
  23              		.thumb
  24              		.thumb_func
  26              	LED_Init:
  27              	.LFB152:
   1:src/main.c    **** /*
   2:src/main.c    ****  * @Author       : Deng
   3:src/main.c    ****  * @Date         : 2024-04-18 19:48:18
   4:src/main.c    ****  * @LastEditors  : Joel
   5:src/main.c    ****  * @LastEditTime : 2024-05-17 21:28:03
   6:src/main.c    ****  * @FilePath     : \src\main.c
   7:src/main.c    ****  * @Description  :
   8:src/main.c    ****  * Copyright 2024 YiJiaLink, All Rights Reserved.
   9:src/main.c    ****  * 2024-04-18 19:48:18
  10:src/main.c    ****  */
  11:src/main.c    **** #include "main.h"
  12:src/main.c    **** 
  13:src/main.c    **** /**
  14:src/main.c    ****  * @addtogroup HC32F460_DDL_Examples
  15:src/main.c    ****  * @{
  16:src/main.c    ****  */
  17:src/main.c    **** 
  18:src/main.c    **** /**
  19:src/main.c    ****  * @addtogroup GPIO_OUTPUT
  20:src/main.c    ****  * @{
  21:src/main.c    ****  */
  22:src/main.c    **** 
  23:src/main.c    **** /*******************************************************************************
  24:src/main.c    ****  * Local type definitions ('typedef')
  25:src/main.c    ****  ******************************************************************************/
  26:src/main.c    **** 
  27:src/main.c    **** /*******************************************************************************
  28:src/main.c    ****  * Local pre-processor symbols/macros ('#define')
  29:src/main.c    ****  ******************************************************************************/
  30:src/main.c    **** /* LED_R Port/Pin definition */
  31:src/main.c    **** #define LED_R_PORT (GPIO_PORT_B)
ARM GAS  C:\Users\mkand\AppData\Local\Temp\ccWWjlsL.s 			page 2


  32:src/main.c    **** #define LED_R_PIN (GPIO_PIN_15)
  33:src/main.c    **** /* LED_G Port/Pin definition */
  34:src/main.c    **** #define LED_G_PORT (GPIO_PORT_B)
  35:src/main.c    **** #define LED_G_PIN (GPIO_PIN_14)
  36:src/main.c    **** /* LED_Y Port/Pin definition */
  37:src/main.c    **** #define LED_Y_PORT (GPIO_PORT_B)
  38:src/main.c    **** #define LED_Y_PIN (GPIO_PIN_13)
  39:src/main.c    **** /* LED_B Port/Pin definition */
  40:src/main.c    **** #define LED_B_PORT (GPIO_PORT_B)
  41:src/main.c    **** #define LED_B_PIN (GPIO_PIN_12)
  42:src/main.c    **** /* LED toggle definition */
  43:src/main.c    **** #define LED_R_TOGGLE() (GPIO_TogglePins(LED_R_PORT, LED_R_PIN))
  44:src/main.c    **** #define LED_G_TOGGLE() (GPIO_TogglePins(LED_G_PORT, LED_G_PIN))
  45:src/main.c    **** #define LED_Y_TOGGLE() (GPIO_TogglePins(LED_Y_PORT, LED_Y_PIN))
  46:src/main.c    **** #define LED_B_TOGGLE() (GPIO_TogglePins(LED_B_PORT, LED_B_PIN))
  47:src/main.c    **** 
  48:src/main.c    **** #define DLY_MS (1UL)
  49:src/main.c    **** 
  50:src/main.c    **** /*******************************************************************************
  51:src/main.c    ****  * Global variable definitions (declared in header file with 'extern')
  52:src/main.c    ****  ******************************************************************************/
  53:src/main.c    **** 
  54:src/main.c    **** /*******************************************************************************
  55:src/main.c    ****  * Local function prototypes ('static')
  56:src/main.c    ****  ******************************************************************************/
  57:src/main.c    **** stc_clock_freq_t out_clk;
  58:src/main.c    **** /*******************************************************************************
  59:src/main.c    ****  * Local variable definitions ('static')
  60:src/main.c    ****  ******************************************************************************/
  61:src/main.c    **** /*******************************************************************************
  62:src/main.c    ****  * Function implementation - global ('extern') and local ('static')
  63:src/main.c    ****  ******************************************************************************/
  64:src/main.c    **** /**
  65:src/main.c    ****  * @brief  LED Init
  66:src/main.c    ****  * @param  None
  67:src/main.c    ****  * @retval None
  68:src/main.c    ****  */
  69:src/main.c    **** static void LED_Init(void)
  70:src/main.c    **** {
  28              		.loc 1 70 1 view -0
  29              		.cfi_startproc
  30              		@ args = 0, pretend = 0, frame = 24
  31              		@ frame_needed = 0, uses_anonymous_args = 0
  32 0000 10B5     		push	{r4, lr}
  33              	.LCFI0:
  34              		.cfi_def_cfa_offset 8
  35              		.cfi_offset 4, -8
  36              		.cfi_offset 14, -4
  37 0002 86B0     		sub	sp, sp, #24
  38              	.LCFI1:
  39              		.cfi_def_cfa_offset 32
  71:src/main.c    ****   stc_gpio_init_t stcGpioInit;
  40              		.loc 1 71 3 view .LVU1
  72:src/main.c    **** 
  73:src/main.c    ****   (void)GPIO_StructInit(&stcGpioInit);
  41              		.loc 1 73 3 view .LVU2
  42              		.loc 1 73 9 is_stmt 0 view .LVU3
ARM GAS  C:\Users\mkand\AppData\Local\Temp\ccWWjlsL.s 			page 3


  43 0004 01A8     		add	r0, sp, #4
  44 0006 FFF7FEFF 		bl	GPIO_StructInit
  45              	.LVL0:
  74:src/main.c    ****   stcGpioInit.u16PinState = PIN_STAT_SET;
  46              		.loc 1 74 3 is_stmt 1 view .LVU4
  47              		.loc 1 74 27 is_stmt 0 view .LVU5
  48 000a 0124     		movs	r4, #1
  49 000c ADF80440 		strh	r4, [sp, #4]	@ movhi
  75:src/main.c    ****   stcGpioInit.u16PinDir = PIN_DIR_OUT;
  50              		.loc 1 75 3 is_stmt 1 view .LVU6
  51              		.loc 1 75 25 is_stmt 0 view .LVU7
  52 0010 0223     		movs	r3, #2
  53 0012 ADF80630 		strh	r3, [sp, #6]	@ movhi
  76:src/main.c    ****   (void)GPIO_Init(LED_R_PORT, LED_R_PIN, &stcGpioInit);
  54              		.loc 1 76 3 is_stmt 1 view .LVU8
  55              		.loc 1 76 9 is_stmt 0 view .LVU9
  56 0016 01AA     		add	r2, sp, #4
  57 0018 4FF40041 		mov	r1, #32768
  58 001c 2046     		mov	r0, r4
  59 001e FFF7FEFF 		bl	GPIO_Init
  60              	.LVL1:
  77:src/main.c    ****   (void)GPIO_Init(LED_G_PORT, LED_G_PIN, &stcGpioInit);
  61              		.loc 1 77 3 is_stmt 1 view .LVU10
  62              		.loc 1 77 9 is_stmt 0 view .LVU11
  63 0022 01AA     		add	r2, sp, #4
  64 0024 4FF48041 		mov	r1, #16384
  65 0028 2046     		mov	r0, r4
  66 002a FFF7FEFF 		bl	GPIO_Init
  67              	.LVL2:
  78:src/main.c    ****   (void)GPIO_Init(LED_Y_PORT, LED_Y_PIN, &stcGpioInit);
  68              		.loc 1 78 3 is_stmt 1 view .LVU12
  69              		.loc 1 78 9 is_stmt 0 view .LVU13
  70 002e 01AA     		add	r2, sp, #4
  71 0030 4FF40051 		mov	r1, #8192
  72 0034 2046     		mov	r0, r4
  73 0036 FFF7FEFF 		bl	GPIO_Init
  74              	.LVL3:
  79:src/main.c    ****   (void)GPIO_Init(LED_B_PORT, LED_B_PIN, &stcGpioInit);
  75              		.loc 1 79 3 is_stmt 1 view .LVU14
  76              		.loc 1 79 9 is_stmt 0 view .LVU15
  77 003a 01AA     		add	r2, sp, #4
  78 003c 4FF48051 		mov	r1, #4096
  79 0040 2046     		mov	r0, r4
  80 0042 FFF7FEFF 		bl	GPIO_Init
  81              	.LVL4:
  80:src/main.c    **** }
  82              		.loc 1 80 1 view .LVU16
  83 0046 06B0     		add	sp, sp, #24
  84              	.LCFI2:
  85              		.cfi_def_cfa_offset 8
  86              		@ sp needed
  87 0048 10BD     		pop	{r4, pc}
  88              		.cfi_endproc
  89              	.LFE152:
  91              		.section	.rodata.main.str1.4,"aMS",%progbits,1
  92              		.align	2
  93              	.LC0:
ARM GAS  C:\Users\mkand\AppData\Local\Temp\ccWWjlsL.s 			page 4


  94 0000 75333253 		.ascii	"u32SysclkFreq= %d \015\012\000"
  94      7973636C 
  94      6B467265 
  94      713D2025 
  94      64200D0A 
  95 0015 000000   		.align	2
  96              	.LC1:
  97 0018 75333248 		.ascii	"u32HclkFreq= %d \015\012\000"
  97      636C6B46 
  97      7265713D 
  97      20256420 
  97      0D0A00
  98 002b 00       		.align	2
  99              	.LC2:
 100 002c 53797374 		.ascii	"SystemCoreClock= %d \015\012\000"
 100      656D436F 
 100      7265436C 
 100      6F636B3D 
 100      20256420 
 101 0043 00       		.align	2
 102              	.LC3:
 103 0044 64617461 		.ascii	"data[%d] = %x\015\012\000"
 103      5B25645D 
 103      203D2025 
 103      780D0A00 
 104              		.section	.text.main,"ax",%progbits
 105              		.align	1
 106              		.global	main
 107              		.syntax unified
 108              		.thumb
 109              		.thumb_func
 111              	main:
 112              	.LFB153:
  81:src/main.c    **** 
  82:src/main.c    **** /**
  83:src/main.c    ****  * @brief  Main function of GPIO project
  84:src/main.c    ****  * @param  None
  85:src/main.c    ****  * @retval int32_t return value, if needed
  86:src/main.c    ****  */
  87:src/main.c    **** int main(void)
  88:src/main.c    **** {
 113              		.loc 1 88 1 is_stmt 1 view -0
 114              		.cfi_startproc
 115              		@ args = 0, pretend = 0, frame = 0
 116              		@ frame_needed = 0, uses_anonymous_args = 0
 117 0000 10B5     		push	{r4, lr}
 118              	.LCFI3:
 119              		.cfi_def_cfa_offset 8
 120              		.cfi_offset 4, -8
 121              		.cfi_offset 14, -4
  89:src/main.c    ****   LL_PERIPH_WE(LL_PERIPH_ALL);
 122              		.loc 1 89 3 view .LVU18
 123 0002 FF20     		movs	r0, #255
 124 0004 FFF7FEFF 		bl	LL_PERIPH_WE
 125              	.LVL5:
  90:src/main.c    ****   user_system_init();
 126              		.loc 1 90 3 view .LVU19
ARM GAS  C:\Users\mkand\AppData\Local\Temp\ccWWjlsL.s 			page 5


 127 0008 FFF7FEFF 		bl	user_system_init
 128              	.LVL6:
  91:src/main.c    **** 
  92:src/main.c    ****   /* LED initialize */
  93:src/main.c    ****   LED_Init();
 129              		.loc 1 93 3 view .LVU20
 130 000c FFF7FEFF 		bl	LED_Init
 131              	.LVL7:
  94:src/main.c    ****   init_ws2812b();
 132              		.loc 1 94 3 view .LVU21
 133 0010 FFF7FEFF 		bl	init_ws2812b
 134              	.LVL8:
  95:src/main.c    ****   User_Timer_Init();
 135              		.loc 1 95 3 view .LVU22
 136 0014 FFF7FEFF 		bl	User_Timer_Init
 137              	.LVL9:
  96:src/main.c    **** 
  97:src/main.c    ****   /* Register write protected for some required peripherals. */
  98:src/main.c    ****   LL_PERIPH_WP(LL_PERIPH_ALL);
 138              		.loc 1 98 3 view .LVU23
 139 0018 FF20     		movs	r0, #255
 140 001a FFF7FEFF 		bl	LL_PERIPH_WP
 141              	.LVL10:
  99:src/main.c    **** 
 100:src/main.c    ****   CLK_GetClockFreq(&out_clk);
 142              		.loc 1 100 3 view .LVU24
 143 001e 144C     		ldr	r4, .L7
 144 0020 2046     		mov	r0, r4
 145 0022 FFF7FEFF 		bl	CLK_GetClockFreq
 146              	.LVL11:
 101:src/main.c    ****   printf("u32SysclkFreq= %d \r\n", (int)out_clk.u32SysclkFreq);
 147              		.loc 1 101 3 view .LVU25
 148 0026 2168     		ldr	r1, [r4]
 149 0028 1248     		ldr	r0, .L7+4
 150 002a FFF7FEFF 		bl	printf
 151              	.LVL12:
 102:src/main.c    ****   printf("u32HclkFreq= %d \r\n", (int)out_clk.u32HclkFreq);
 152              		.loc 1 102 3 view .LVU26
 153 002e 6168     		ldr	r1, [r4, #4]
 154 0030 1148     		ldr	r0, .L7+8
 155 0032 FFF7FEFF 		bl	printf
 156              	.LVL13:
 103:src/main.c    ****   printf("SystemCoreClock= %d \r\n", (int)SystemCoreClock);
 157              		.loc 1 103 3 view .LVU27
 158 0036 114B     		ldr	r3, .L7+12
 159 0038 1968     		ldr	r1, [r3]
 160 003a 1148     		ldr	r0, .L7+16
 161 003c FFF7FEFF 		bl	printf
 162              	.LVL14:
 104:src/main.c    ****   init_rgb_pwm *p_pwm = &set_rgb_pwm;
 163              		.loc 1 104 3 view .LVU28
 105:src/main.c    ****   uint32_t data = 0xFF00FF;
 164              		.loc 1 105 3 view .LVU29
 106:src/main.c    ****   uint8_t i = 23;
 165              		.loc 1 106 3 view .LVU30
 166              		.loc 1 106 11 is_stmt 0 view .LVU31
 167 0040 1724     		movs	r4, #23
ARM GAS  C:\Users\mkand\AppData\Local\Temp\ccWWjlsL.s 			page 6


 168              	.LVL15:
 169              	.L4:
 107:src/main.c    ****   do{
 170              		.loc 1 107 3 is_stmt 1 discriminator 1 view .LVU32
 108:src/main.c    ****   printf("data[%d] = %x\r\n",i,(int)(data & (1 << i)));
 171              		.loc 1 108 3 discriminator 1 view .LVU33
 172              		.loc 1 108 48 is_stmt 0 discriminator 1 view .LVU34
 173 0042 0122     		movs	r2, #1
 174 0044 A240     		lsls	r2, r2, r4
 175              		.loc 1 108 3 discriminator 1 view .LVU35
 176 0046 02F0FF12 		and	r2, r2, #16711935
 177 004a 2146     		mov	r1, r4
 178 004c 0D48     		ldr	r0, .L7+20
 179 004e FFF7FEFF 		bl	printf
 180              	.LVL16:
 109:src/main.c    ****   }while(--i > 0);
 181              		.loc 1 109 14 is_stmt 1 discriminator 1 view .LVU36
 182 0052 013C     		subs	r4, r4, #1
 183              	.LVL17:
 184              		.loc 1 109 14 is_stmt 0 discriminator 1 view .LVU37
 185 0054 14F0FF04 		ands	r4, r4, #255
 186              	.LVL18:
 187              		.loc 1 109 14 discriminator 1 view .LVU38
 188 0058 F3D1     		bne	.L4
 110:src/main.c    **** 	p_pwm->white_duty = PWM_CYCLE>>3;
 189              		.loc 1 110 2 is_stmt 1 view .LVU39
 190              		.loc 1 110 20 is_stmt 0 view .LVU40
 191 005a 0B4B     		ldr	r3, .L7+24
 192 005c 1F22     		movs	r2, #31
 193 005e 1A81     		strh	r2, [r3, #8]	@ movhi
 111:src/main.c    **** 
 112:src/main.c    ****   linklist_test_main();
 194              		.loc 1 112 3 is_stmt 1 view .LVU41
 195 0060 FFF7FEFF 		bl	linklist_test_main
 196              	.LVL19:
 197              	.L5:
 113:src/main.c    ****   for (;;)
 198              		.loc 1 113 3 discriminator 1 view .LVU42
 114:src/main.c    ****   {
 115:src/main.c    ****   /* code */
 116:src/main.c    ****   // rgb_math_run(p_pwm);
 117:src/main.c    ****   run_ws2812b();
 199              		.loc 1 117 3 discriminator 1 view .LVU43
 200 0064 FFF7FEFF 		bl	run_ws2812b
 201              	.LVL20:
 118:src/main.c    ****   DDL_DelayMS(DLY_MS);
 202              		.loc 1 118 3 discriminator 1 view .LVU44
 203 0068 0120     		movs	r0, #1
 204 006a FFF7FEFF 		bl	DDL_DelayMS
 205              	.LVL21:
 113:src/main.c    ****   for (;;)
 206              		.loc 1 113 3 discriminator 1 view .LVU45
 207 006e F9E7     		b	.L5
 208              	.L8:
 209              		.align	2
 210              	.L7:
 211 0070 00000000 		.word	out_clk
ARM GAS  C:\Users\mkand\AppData\Local\Temp\ccWWjlsL.s 			page 7


 212 0074 00000000 		.word	.LC0
 213 0078 18000000 		.word	.LC1
 214 007c 00000000 		.word	SystemCoreClock
 215 0080 2C000000 		.word	.LC2
 216 0084 44000000 		.word	.LC3
 217 0088 00000000 		.word	set_rgb_pwm
 218              		.cfi_endproc
 219              	.LFE153:
 221              		.global	out_clk
 222              		.section	.bss.out_clk,"aw",%nobits
 223              		.align	2
 226              	out_clk:
 227 0000 00000000 		.space	32
 227      00000000 
 227      00000000 
 227      00000000 
 227      00000000 
 228              		.text
 229              	.Letext0:
 230              		.file 2 "c:\\msys64\\mingw64\\arm-none-eabi\\include\\machine\\_default_types.h"
 231              		.file 3 "c:\\msys64\\mingw64\\arm-none-eabi\\include\\sys\\_stdint.h"
 232              		.file 4 "hc32_ll_driver/inc/hc32_ll_clk.h"
 233              		.file 5 "hc32_ll_driver/inc/hc32_ll_gpio.h"
 234              		.file 6 "Include/usr_timer.h"
 235              		.file 7 "common/system_hc32f460.h"
 236              		.file 8 "c:\\msys64\\mingw64\\arm-none-eabi\\include\\stdio.h"
 237              		.file 9 "hc32_ll_driver/inc/hc32_ll_utility.h"
 238              		.file 10 "hc32_ll_driver/inc/hc32_ll.h"
 239              		.file 11 "Include/ws2812b.h"
 240              		.file 12 "Include/usr_system.h"
 241              		.file 13 "Include/linked_list.h"
ARM GAS  C:\Users\mkand\AppData\Local\Temp\ccWWjlsL.s 			page 8


DEFINED SYMBOLS
                            *ABS*:00000000 main.c
C:\Users\mkand\AppData\Local\Temp\ccWWjlsL.s:21     .text.LED_Init:00000000 $t
C:\Users\mkand\AppData\Local\Temp\ccWWjlsL.s:26     .text.LED_Init:00000000 LED_Init
C:\Users\mkand\AppData\Local\Temp\ccWWjlsL.s:92     .rodata.main.str1.4:00000000 $d
C:\Users\mkand\AppData\Local\Temp\ccWWjlsL.s:105    .text.main:00000000 $t
C:\Users\mkand\AppData\Local\Temp\ccWWjlsL.s:111    .text.main:00000000 main
C:\Users\mkand\AppData\Local\Temp\ccWWjlsL.s:211    .text.main:00000070 $d
C:\Users\mkand\AppData\Local\Temp\ccWWjlsL.s:226    .bss.out_clk:00000000 out_clk
C:\Users\mkand\AppData\Local\Temp\ccWWjlsL.s:223    .bss.out_clk:00000000 $d

UNDEFINED SYMBOLS
GPIO_StructInit
GPIO_Init
LL_PERIPH_WE
user_system_init
init_ws2812b
User_Timer_Init
LL_PERIPH_WP
CLK_GetClockFreq
printf
linklist_test_main
run_ws2812b
DDL_DelayMS
SystemCoreClock
set_rgb_pwm
